{
  "contractName": "SmartHousing",
  "abi": [
    {
      "inputs": [
        {
          "internalType": "string",
          "name": "_landlord_name",
          "type": "string"
        },
        {
          "internalType": "string",
          "name": "_landlord_hashed_pid",
          "type": "string"
        }
      ],
      "payable": false,
      "stateMutability": "nonpayable",
      "type": "constructor"
    },
    {
      "anonymous": false,
      "inputs": [
        {
          "indexed": false,
          "internalType": "string",
          "name": "physical_address",
          "type": "string"
        },
        {
          "indexed": false,
          "internalType": "string",
          "name": "city",
          "type": "string"
        },
        {
          "indexed": false,
          "internalType": "uint256",
          "name": "zip_code",
          "type": "uint256"
        },
        {
          "indexed": false,
          "internalType": "string",
          "name": "house_type",
          "type": "string"
        },
        {
          "indexed": false,
          "internalType": "uint256",
          "name": "id",
          "type": "uint256"
        }
      ],
      "name": "ContractCreated",
      "type": "event"
    },
    {
      "anonymous": false,
      "inputs": [
        {
          "indexed": false,
          "internalType": "uint256",
          "name": "contract_id",
          "type": "uint256"
        },
        {
          "indexed": false,
          "internalType": "address",
          "name": "select_address",
          "type": "address"
        }
      ],
      "name": "ContractStarted",
      "type": "event"
    },
    {
      "anonymous": false,
      "inputs": [
        {
          "indexed": false,
          "internalType": "string",
          "name": "name",
          "type": "string"
        },
        {
          "indexed": false,
          "internalType": "string",
          "name": "email",
          "type": "string"
        },
        {
          "indexed": false,
          "internalType": "uint256",
          "name": "phone_number",
          "type": "uint256"
        },
        {
          "indexed": false,
          "internalType": "uint256",
          "name": "contract_id",
          "type": "uint256"
        }
      ],
      "name": "NewLeaseRequest",
      "type": "event"
    },
    {
      "anonymous": false,
      "inputs": [
        {
          "indexed": true,
          "internalType": "address",
          "name": "previousOwner",
          "type": "address"
        },
        {
          "indexed": true,
          "internalType": "address",
          "name": "newOwner",
          "type": "address"
        }
      ],
      "name": "OwnershipTransferred",
      "type": "event"
    },
    {
      "constant": true,
      "inputs": [
        {
          "internalType": "uint256",
          "name": "timestamp",
          "type": "uint256"
        }
      ],
      "name": "getDay",
      "outputs": [
        {
          "internalType": "uint8",
          "name": "",
          "type": "uint8"
        }
      ],
      "payable": false,
      "stateMutability": "pure",
      "type": "function"
    },
    {
      "constant": true,
      "inputs": [
        {
          "internalType": "uint8",
          "name": "month",
          "type": "uint8"
        },
        {
          "internalType": "uint16",
          "name": "year",
          "type": "uint16"
        }
      ],
      "name": "getDaysInMonth",
      "outputs": [
        {
          "internalType": "uint8",
          "name": "",
          "type": "uint8"
        }
      ],
      "payable": false,
      "stateMutability": "pure",
      "type": "function"
    },
    {
      "constant": true,
      "inputs": [
        {
          "internalType": "uint256",
          "name": "timestamp",
          "type": "uint256"
        }
      ],
      "name": "getHour",
      "outputs": [
        {
          "internalType": "uint8",
          "name": "",
          "type": "uint8"
        }
      ],
      "payable": false,
      "stateMutability": "pure",
      "type": "function"
    },
    {
      "constant": true,
      "inputs": [
        {
          "internalType": "uint256",
          "name": "timestamp",
          "type": "uint256"
        }
      ],
      "name": "getMinute",
      "outputs": [
        {
          "internalType": "uint8",
          "name": "",
          "type": "uint8"
        }
      ],
      "payable": false,
      "stateMutability": "pure",
      "type": "function"
    },
    {
      "constant": true,
      "inputs": [
        {
          "internalType": "uint256",
          "name": "timestamp",
          "type": "uint256"
        }
      ],
      "name": "getMonth",
      "outputs": [
        {
          "internalType": "uint8",
          "name": "",
          "type": "uint8"
        }
      ],
      "payable": false,
      "stateMutability": "pure",
      "type": "function"
    },
    {
      "constant": true,
      "inputs": [
        {
          "internalType": "uint256",
          "name": "timestamp",
          "type": "uint256"
        }
      ],
      "name": "getSecond",
      "outputs": [
        {
          "internalType": "uint8",
          "name": "",
          "type": "uint8"
        }
      ],
      "payable": false,
      "stateMutability": "pure",
      "type": "function"
    },
    {
      "constant": true,
      "inputs": [
        {
          "internalType": "uint256",
          "name": "timestamp",
          "type": "uint256"
        }
      ],
      "name": "getWeekday",
      "outputs": [
        {
          "internalType": "uint8",
          "name": "",
          "type": "uint8"
        }
      ],
      "payable": false,
      "stateMutability": "pure",
      "type": "function"
    },
    {
      "constant": true,
      "inputs": [
        {
          "internalType": "uint256",
          "name": "timestamp",
          "type": "uint256"
        }
      ],
      "name": "getYear",
      "outputs": [
        {
          "internalType": "uint16",
          "name": "",
          "type": "uint16"
        }
      ],
      "payable": false,
      "stateMutability": "pure",
      "type": "function"
    },
    {
      "constant": true,
      "inputs": [
        {
          "internalType": "uint16",
          "name": "year",
          "type": "uint16"
        }
      ],
      "name": "isLeapYear",
      "outputs": [
        {
          "internalType": "bool",
          "name": "",
          "type": "bool"
        }
      ],
      "payable": false,
      "stateMutability": "pure",
      "type": "function"
    },
    {
      "constant": true,
      "inputs": [],
      "name": "isOwner",
      "outputs": [
        {
          "internalType": "bool",
          "name": "",
          "type": "bool"
        }
      ],
      "payable": false,
      "stateMutability": "view",
      "type": "function"
    },
    {
      "constant": true,
      "inputs": [
        {
          "internalType": "uint256",
          "name": "year",
          "type": "uint256"
        }
      ],
      "name": "leapYearsBefore",
      "outputs": [
        {
          "internalType": "uint256",
          "name": "",
          "type": "uint256"
        }
      ],
      "payable": false,
      "stateMutability": "pure",
      "type": "function"
    },
    {
      "constant": true,
      "inputs": [],
      "name": "owner",
      "outputs": [
        {
          "internalType": "address",
          "name": "",
          "type": "address"
        }
      ],
      "payable": false,
      "stateMutability": "view",
      "type": "function"
    },
    {
      "constant": false,
      "inputs": [],
      "name": "renounceOwnership",
      "outputs": [],
      "payable": false,
      "stateMutability": "nonpayable",
      "type": "function"
    },
    {
      "constant": true,
      "inputs": [
        {
          "internalType": "uint16",
          "name": "year",
          "type": "uint16"
        },
        {
          "internalType": "uint8",
          "name": "month",
          "type": "uint8"
        },
        {
          "internalType": "uint8",
          "name": "day",
          "type": "uint8"
        },
        {
          "internalType": "uint8",
          "name": "hour",
          "type": "uint8"
        },
        {
          "internalType": "uint8",
          "name": "minute",
          "type": "uint8"
        }
      ],
      "name": "toTimestamp",
      "outputs": [
        {
          "internalType": "uint256",
          "name": "timestamp",
          "type": "uint256"
        }
      ],
      "payable": false,
      "stateMutability": "pure",
      "type": "function"
    },
    {
      "constant": true,
      "inputs": [
        {
          "internalType": "uint16",
          "name": "year",
          "type": "uint16"
        },
        {
          "internalType": "uint8",
          "name": "month",
          "type": "uint8"
        },
        {
          "internalType": "uint8",
          "name": "day",
          "type": "uint8"
        },
        {
          "internalType": "uint8",
          "name": "hour",
          "type": "uint8"
        }
      ],
      "name": "toTimestamp",
      "outputs": [
        {
          "internalType": "uint256",
          "name": "timestamp",
          "type": "uint256"
        }
      ],
      "payable": false,
      "stateMutability": "pure",
      "type": "function"
    },
    {
      "constant": true,
      "inputs": [
        {
          "internalType": "uint16",
          "name": "year",
          "type": "uint16"
        },
        {
          "internalType": "uint8",
          "name": "month",
          "type": "uint8"
        },
        {
          "internalType": "uint8",
          "name": "day",
          "type": "uint8"
        }
      ],
      "name": "toTimestamp",
      "outputs": [
        {
          "internalType": "uint256",
          "name": "timestamp",
          "type": "uint256"
        }
      ],
      "payable": false,
      "stateMutability": "pure",
      "type": "function"
    },
    {
      "constant": true,
      "inputs": [
        {
          "internalType": "uint16",
          "name": "year",
          "type": "uint16"
        },
        {
          "internalType": "uint8",
          "name": "month",
          "type": "uint8"
        },
        {
          "internalType": "uint8",
          "name": "day",
          "type": "uint8"
        },
        {
          "internalType": "uint8",
          "name": "hour",
          "type": "uint8"
        },
        {
          "internalType": "uint8",
          "name": "minute",
          "type": "uint8"
        },
        {
          "internalType": "uint8",
          "name": "second",
          "type": "uint8"
        }
      ],
      "name": "toTimestamp",
      "outputs": [
        {
          "internalType": "uint256",
          "name": "timestamp",
          "type": "uint256"
        }
      ],
      "payable": false,
      "stateMutability": "pure",
      "type": "function"
    },
    {
      "constant": false,
      "inputs": [
        {
          "internalType": "address",
          "name": "newOwner",
          "type": "address"
        }
      ],
      "name": "transferOwnership",
      "outputs": [],
      "payable": false,
      "stateMutability": "nonpayable",
      "type": "function"
    },
    {
      "constant": false,
      "inputs": [
        {
          "internalType": "address",
          "name": "_tenant_address",
          "type": "address"
        },
        {
          "internalType": "string",
          "name": "_physical_address",
          "type": "string"
        },
        {
          "internalType": "string",
          "name": "_city",
          "type": "string"
        },
        {
          "internalType": "uint256",
          "name": "_zip_code",
          "type": "uint256"
        },
        {
          "internalType": "string",
          "name": "_house_type",
          "type": "string"
        },
        {
          "internalType": "uint256",
          "name": "_rent",
          "type": "uint256"
        },
        {
          "internalType": "uint256",
          "name": "_utility_bill",
          "type": "uint256"
        },
        {
          "internalType": "uint256",
          "name": "_total_term",
          "type": "uint256"
        },
        {
          "internalType": "uint8",
          "name": "_rent_pay_day",
          "type": "uint8"
        },
        {
          "internalType": "uint256",
          "name": "_deposit",
          "type": "uint256"
        },
        {
          "internalType": "string",
          "name": "_repair_obligation",
          "type": "string"
        }
      ],
      "name": "addNewContract",
      "outputs": [
        {
          "internalType": "uint256",
          "name": "",
          "type": "uint256"
        }
      ],
      "payable": false,
      "stateMutability": "nonpayable",
      "type": "function"
    },
    {
      "constant": false,
      "inputs": [
        {
          "internalType": "string",
          "name": "_name",
          "type": "string"
        },
        {
          "internalType": "string",
          "name": "_hashed_pid",
          "type": "string"
        },
        {
          "internalType": "uint256",
          "name": "_contract_id",
          "type": "uint256"
        }
      ],
      "name": "signContract",
      "outputs": [],
      "payable": false,
      "stateMutability": "nonpayable",
      "type": "function"
    },
    {
      "constant": false,
      "inputs": [
        {
          "internalType": "address",
          "name": "_tenant",
          "type": "address"
        }
      ],
      "name": "removeTenant",
      "outputs": [],
      "payable": false,
      "stateMutability": "nonpayable",
      "type": "function"
    },
    {
      "constant": true,
      "inputs": [
        {
          "internalType": "uint256",
          "name": "_contract_id",
          "type": "uint256"
        }
      ],
      "name": "getContractHouseInfo",
      "outputs": [
        {
          "internalType": "string",
          "name": "",
          "type": "string"
        },
        {
          "internalType": "string",
          "name": "",
          "type": "string"
        },
        {
          "internalType": "uint256",
          "name": "",
          "type": "uint256"
        },
        {
          "internalType": "string",
          "name": "",
          "type": "string"
        },
        {
          "internalType": "uint256",
          "name": "",
          "type": "uint256"
        },
        {
          "internalType": "uint256",
          "name": "",
          "type": "uint256"
        }
      ],
      "payable": false,
      "stateMutability": "view",
      "type": "function"
    },
    {
      "constant": true,
      "inputs": [
        {
          "internalType": "uint256",
          "name": "_contract_id",
          "type": "uint256"
        }
      ],
      "name": "getContractStatus",
      "outputs": [
        {
          "internalType": "enum SmartHousing.State",
          "name": "",
          "type": "uint8"
        }
      ],
      "payable": false,
      "stateMutability": "view",
      "type": "function"
    },
    {
      "constant": true,
      "inputs": [
        {
          "internalType": "uint256",
          "name": "_contract_id",
          "type": "uint256"
        }
      ],
      "name": "getContractTenant",
      "outputs": [
        {
          "internalType": "string",
          "name": "",
          "type": "string"
        },
        {
          "internalType": "string",
          "name": "",
          "type": "string"
        },
        {
          "internalType": "address",
          "name": "",
          "type": "address"
        }
      ],
      "payable": false,
      "stateMutability": "view",
      "type": "function"
    },
    {
      "constant": true,
      "inputs": [
        {
          "internalType": "uint256",
          "name": "_contract_id",
          "type": "uint256"
        }
      ],
      "name": "getCurrentTerm",
      "outputs": [
        {
          "internalType": "uint16",
          "name": "",
          "type": "uint16"
        }
      ],
      "payable": false,
      "stateMutability": "view",
      "type": "function"
    },
    {
      "constant": false,
      "inputs": [
        {
          "internalType": "uint256",
          "name": "_contract_id",
          "type": "uint256"
        }
      ],
      "name": "payRent",
      "outputs": [],
      "payable": true,
      "stateMutability": "payable",
      "type": "function"
    },
    {
      "constant": false,
      "inputs": [
        {
          "internalType": "uint256",
          "name": "_contract_id",
          "type": "uint256"
        }
      ],
      "name": "updateContractStatus",
      "outputs": [
        {
          "internalType": "uint256",
          "name": "",
          "type": "uint256"
        }
      ],
      "payable": false,
      "stateMutability": "nonpayable",
      "type": "function"
    },
    {
      "constant": false,
      "inputs": [
        {
          "internalType": "uint256",
          "name": "_contract_id",
          "type": "uint256"
        },
        {
          "internalType": "string",
          "name": "comment",
          "type": "string"
        }
      ],
      "name": "tennantComment",
      "outputs": [],
      "payable": false,
      "stateMutability": "nonpayable",
      "type": "function"
    },
    {
      "constant": false,
      "inputs": [
        {
          "internalType": "uint256",
          "name": "_contract_id",
          "type": "uint256"
        },
        {
          "internalType": "string",
          "name": "comment",
          "type": "string"
        }
      ],
      "name": "landlordComment",
      "outputs": [],
      "payable": false,
      "stateMutability": "nonpayable",
      "type": "function"
    },
    {
      "constant": true,
      "inputs": [
        {
          "internalType": "uint256",
          "name": "_contract_id",
          "type": "uint256"
        }
      ],
      "name": "viewComments",
      "outputs": [
        {
          "internalType": "string",
          "name": "",
          "type": "string"
        },
        {
          "internalType": "string",
          "name": "",
          "type": "string"
        }
      ],
      "payable": false,
      "stateMutability": "view",
      "type": "function"
    }
  ],
  "bytecode": "0x60806040523480156200001157600080fd5b506040516200604238038062006042833981810160405260408110156200003757600080fd5b81019080805160405193929190846401000000008211156200005857600080fd5b838201915060208201858111156200006f57600080fd5b82518660018202830111640100000000821117156200008d57600080fd5b8083526020830192505050908051906020019080838360005b83811015620000c3578082015181840152602081019050620000a6565b50505050905090810190601f168015620000f15780820380516001836020036101000a031916815260200191505b50604052602001805160405193929190846401000000008211156200011557600080fd5b838201915060208201858111156200012c57600080fd5b82518660018202830111640100000000821117156200014a57600080fd5b8083526020830192505050908051906020019080838360005b838110156200018057808201518184015260208101905062000163565b50505050905090810190601f168015620001ae5780820380516001836020036101000a031916815260200191505b50604052505050620001c56200030460201b60201c565b6000806101000a81548173ffffffffffffffffffffffffffffffffffffffff021916908373ffffffffffffffffffffffffffffffffffffffff1602179055506000809054906101000a900473ffffffffffffffffffffffffffffffffffffffff1673ffffffffffffffffffffffffffffffffffffffff16600073ffffffffffffffffffffffffffffffffffffffff167f8be0079c531659141344cd1fd0a4f28419497f9722a3daafe3b4186f6b6457e060405160405180910390a333600460020160006101000a81548173ffffffffffffffffffffffffffffffffffffffff021916908373ffffffffffffffffffffffffffffffffffffffff1602179055508160046000019080519060200190620002df9291906200030c565b508060046001019080519060200190620002fb9291906200030c565b505050620003bb565b600033905090565b828054600181600116156101000203166002900490600052602060002090601f016020900481019282601f106200034f57805160ff191683800117855562000380565b8280016001018555821562000380579182015b828111156200037f57825182559160200191906001019062000362565b5b5090506200038f919062000393565b5090565b620003b891905b80821115620003b45760008160009055506001016200039a565b5090565b90565b615c7780620003cb6000396000f3fe6080604052600436106101cd5760003560e01c80638d8ac6fb116100f7578063a6f0e57711610095578063c6253f4711610064578063c6253f471461118a578063d9e8843f146112f3578063f2fde38b14611321578063fa93f88314611372576101cd565b8063a6f0e57714610fac578063b199993714611003578063b238ad0e14611052578063b300cf0c146110b8576101cd565b80639054bdec116100d15780639054bdec14610e1d57806392d6631314610eb1578063998aa46514610f08578063a324ad2414610f57576101cd565b80638d8ac6fb14610c445780638da5cb5b14610d975780638f32d59b14610dee576101cd565b80634d740c0f1161016f5780637f7918331161013e5780637f791833146109e8578063845e238f14610a625780638aa001fc14610b825780638c8d98a014610bd7576101cd565b80634d740c0f1461089e57806362ba9687146108f557806365c728401461097c578063715018a6146109d1576101cd565b80632f4fa870116101ab5780632f4fa870146103525780633e239e1a146106535780633eddfef7146106a85780634ac1ad7814610849576101cd565b806317b18458146101d25780632697494f1461022f5780632d71007014610301575b600080fd5b3480156101de57600080fd5b5061020b600480360360208110156101f557600080fd5b81019080803590602001909291905050506113c7565b6040518082600381111561021b57fe5b60ff16815260200191505060405180910390f35b34801561023b57600080fd5b506102ff6004803603604081101561025257600080fd5b81019080803590602001909291908035906020019064010000000081111561027957600080fd5b82018360208201111561028b57600080fd5b803590602001918460018302840111640100000000831117156102ad57600080fd5b91908080601f016020809104026020016040519081016040528093929190818152602001838380828437600081840152601f19601f8201169050808301925050505050505091929192905050506113fc565b005b34801561030d57600080fd5b506103506004803603602081101561032457600080fd5b81019080803573ffffffffffffffffffffffffffffffffffffffff1690602001909291905050506115bb565b005b34801561035e57600080fd5b5061063d600480360361016081101561037657600080fd5b81019080803573ffffffffffffffffffffffffffffffffffffffff169060200190929190803590602001906401000000008111156103b357600080fd5b8201836020820111156103c557600080fd5b803590602001918460018302840111640100000000831117156103e757600080fd5b91908080601f016020809104026020016040519081016040528093929190818152602001838380828437600081840152601f19601f8201169050808301925050505050505091929192908035906020019064010000000081111561044a57600080fd5b82018360208201111561045c57600080fd5b8035906020019184600183028401116401000000008311171561047e57600080fd5b91908080601f016020809104026020016040519081016040528093929190818152602001838380828437600081840152601f19601f82011690508083019250505050505050919291929080359060200190929190803590602001906401000000008111156104eb57600080fd5b8201836020820111156104fd57600080fd5b8035906020019184600183028401116401000000008311171561051f57600080fd5b91908080601f016020809104026020016040519081016040528093929190818152602001838380828437600081840152601f19601f820116905080830192505050505050509192919290803590602001909291908035906020019092919080359060200190929190803560ff16906020019092919080359060200190929190803590602001906401000000008111156105b757600080fd5b8201836020820111156105c957600080fd5b803590602001918460018302840111640100000000831117156105eb57600080fd5b91908080601f016020809104026020016040519081016040528093929190818152602001838380828437600081840152601f19601f82011690508083019250505050505050919291929050505061164c565b6040518082815260200191505060405180910390f35b34801561065f57600080fd5b5061068c6004803603602081101561067657600080fd5b8101908080359060200190929190505050611de2565b604051808260ff1660ff16815260200191505060405180910390f35b3480156106b457600080fd5b506106e1600480360360208110156106cb57600080fd5b8101908080359060200190929190505050611e09565b6040518080602001806020018781526020018060200186815260200185815260200184810384528a818151815260200191508051906020019080838360005b8381101561073b578082015181840152602081019050610720565b50505050905090810190601f1680156107685780820380516001836020036101000a031916815260200191505b50848103835289818151815260200191508051906020019080838360005b838110156107a1578082015181840152602081019050610786565b50505050905090810190601f1680156107ce5780820380516001836020036101000a031916815260200191505b50848103825287818151815260200191508051906020019080838360005b838110156108075780820151818401526020810190506107ec565b50505050905090810190601f1680156108345780820380516001836020036101000a031916815260200191505b50995050505050505050505060405180910390f35b34801561085557600080fd5b506108826004803603602081101561086c57600080fd5b8101908080359060200190929190505050612122565b604051808260ff1660ff16815260200191505060405180910390f35b3480156108aa57600080fd5b506108d7600480360360208110156108c157600080fd5b8101908080359060200190929190505050612145565b604051808261ffff1661ffff16815260200191505060405180910390f35b34801561090157600080fd5b50610966600480360360a081101561091857600080fd5b81019080803561ffff169060200190929190803560ff169060200190929190803560ff169060200190929190803560ff169060200190929190803560ff1690602001909291905050506121d4565b6040518082815260200191505060405180910390f35b34801561098857600080fd5b506109b56004803603602081101561099f57600080fd5b81019080803590602001909291905050506121f0565b604051808260ff1660ff16815260200191505060405180910390f35b3480156109dd57600080fd5b506109e6612206565b005b3480156109f457600080fd5b50610a4c60048036036080811015610a0b57600080fd5b81019080803561ffff169060200190929190803560ff169060200190929190803560ff169060200190929190803560ff16906020019092919050505061233f565b6040518082815260200191505060405180910390f35b348015610a6e57600080fd5b50610a9b60048036036020811015610a8557600080fd5b810190808035906020019092919050505061235a565b604051808060200180602001838103835285818151815260200191508051906020019080838360005b83811015610adf578082015181840152602081019050610ac4565b50505050905090810190601f168015610b0c5780820380516001836020036101000a031916815260200191505b50838103825284818151815260200191508051906020019080838360005b83811015610b45578082015181840152602081019050610b2a565b50505050905090810190601f168015610b725780820380516001836020036101000a031916815260200191505b5094505050505060405180910390f35b348015610b8e57600080fd5b50610bbb60048036036020811015610ba557600080fd5b81019080803590602001909291905050506125ae565b604051808260ff1660ff16815260200191505060405180910390f35b348015610be357600080fd5b50610c2e60048036036060811015610bfa57600080fd5b81019080803561ffff169060200190929190803560ff169060200190929190803560ff1690602001909291905050506125c2565b6040518082815260200191505060405180910390f35b348015610c5057600080fd5b50610c7d60048036036020811015610c6757600080fd5b81019080803590602001909291905050506125dd565b6040518080602001806020018473ffffffffffffffffffffffffffffffffffffffff1673ffffffffffffffffffffffffffffffffffffffff168152602001838103835286818151815260200191508051906020019080838360005b83811015610cf3578082015181840152602081019050610cd8565b50505050905090810190601f168015610d205780820380516001836020036101000a031916815260200191505b50838103825285818151815260200191508051906020019080838360005b83811015610d59578082015181840152602081019050610d3e565b50505050905090810190601f168015610d865780820380516001836020036101000a031916815260200191505b509550505050505060405180910390f35b348015610da357600080fd5b50610dac6127ab565b604051808273ffffffffffffffffffffffffffffffffffffffff1673ffffffffffffffffffffffffffffffffffffffff16815260200191505060405180910390f35b348015610dfa57600080fd5b50610e036127d4565b604051808215151515815260200191505060405180910390f35b348015610e2957600080fd5b50610e9b600480360360c0811015610e4057600080fd5b81019080803561ffff169060200190929190803560ff169060200190929190803560ff169060200190929190803560ff169060200190929190803560ff169060200190929190803560ff169060200190929190505050612832565b6040518082815260200191505060405180910390f35b348015610ebd57600080fd5b50610eea60048036036020811015610ed457600080fd5b8101908080359060200190929190505050612abd565b604051808261ffff1661ffff16815260200191505060405180910390f35b348015610f1457600080fd5b50610f4160048036036020811015610f2b57600080fd5b8101908080359060200190929190505050612b66565b6040518082815260200191505060405180910390f35b348015610f6357600080fd5b50610f9060048036036020811015610f7a57600080fd5b8101908080359060200190929190505050613587565b604051808260ff1660ff16815260200191505060405180910390f35b348015610fb857600080fd5b50610fe960048036036020811015610fcf57600080fd5b81019080803561ffff16906020019092919050505061359d565b604051808215151515815260200191505060405180910390f35b34801561100f57600080fd5b5061103c6004803603602081101561102657600080fd5b8101908080359060200190929190505050613612565b6040518082815260200191505060405180910390f35b34801561105e57600080fd5b5061109c6004803603604081101561107557600080fd5b81019080803560ff169060200190929190803561ffff16906020019092919050505061364a565b604051808260ff1660ff16815260200191505060405180910390f35b3480156110c457600080fd5b50611188600480360360408110156110db57600080fd5b81019080803590602001909291908035906020019064010000000081111561110257600080fd5b82018360208201111561111457600080fd5b8035906020019184600183028401116401000000008311171561113657600080fd5b91908080601f016020809104026020016040519081016040528093929190818152602001838380828437600081840152601f19601f820116905080830192505050505050509192919290505050613716565b005b34801561119657600080fd5b506112f1600480360360608110156111ad57600080fd5b81019080803590602001906401000000008111156111ca57600080fd5b8201836020820111156111dc57600080fd5b803590602001918460018302840111640100000000831117156111fe57600080fd5b91908080601f016020809104026020016040519081016040528093929190818152602001838380828437600081840152601f19601f8201169050808301925050505050505091929192908035906020019064010000000081111561126157600080fd5b82018360208201111561127357600080fd5b8035906020019184600183028401116401000000008311171561129557600080fd5b91908080601f016020809104026020016040519081016040528093929190818152602001838380828437600081840152601f19601f8201169050808301925050505050505091929192908035906020019092919050505061391f565b005b61131f6004803603602081101561130957600080fd5b8101908080359060200190929190505050613c05565b005b34801561132d57600080fd5b506113706004803603602081101561134457600080fd5b81019080803573ffffffffffffffffffffffffffffffffffffffff1690602001909291905050506146cb565b005b34801561137e57600080fd5b506113ab6004803603602081101561139557600080fd5b8101908080359060200190929190505050614751565b604051808260ff1660ff16815260200191505060405180910390f35b6000600382815481106113d657fe5b906000526020600020906017020160100160009054906101000a900460ff169050919050565b6114058261476e565b61145a576040517f08c379a0000000000000000000000000000000000000000000000000000000008152600401808060200182810382526022815260200180615c216022913960400191505060405180910390fd5b3373ffffffffffffffffffffffffffffffffffffffff16600a600084815260200190815260200160002060009054906101000a900473ffffffffffffffffffffffffffffffffffffffff1673ffffffffffffffffffffffffffffffffffffffff161461152e576040517f08c379a000000000000000000000000000000000000000000000000000000000815260040180806020018281038252600f8152602001807f496e76616c6964204163636f756e74000000000000000000000000000000000081525060200191505060405180910390fd5b806003838154811061153c57fe5b9060005260206000209060170201601401600201908051906020019061156392919061582a565b506000600a600084815260200190815260200160002060006101000a81548173ffffffffffffffffffffffffffffffffffffffff021916908373ffffffffffffffffffffffffffffffffffffffff1602179055505050565b6115c36127d4565b611635576040517f08c379a00000000000000000000000000000000000000000000000000000000081526004018080602001828103825260208152602001807f4f776e61626c653a2063616c6c6572206973206e6f7420746865206f776e657281525060200191505060405180910390fd5b6116498160016147e590919063ffffffff16565b50565b60006116566127d4565b6116c8576040517f08c379a00000000000000000000000000000000000000000000000000000000081526004018080602001828103825260208152602001807f4f776e61626c653a2063616c6c6572206973206e6f7420746865206f776e657281525060200191505060405180910390fd5b6116d06158aa565b6004604051806060016040529081600082018054600181600116156101000203166002900480601f0160208091040260200160405190810160405280929190818152602001828054600181600116156101000203166002900480156117765780601f1061174b57610100808354040283529160200191611776565b820191906000526020600020905b81548152906001019060200180831161175957829003601f168201915b50505050508152602001600182018054600181600116156101000203166002900480601f0160208091040260200160405190810160405280929190818152602001828054600181600116156101000203166002900480156118185780601f106117ed57610100808354040283529160200191611818565b820191906000526020600020905b8154815290600101906020018083116117fb57829003601f168201915b505050505081526020016002820160009054906101000a900473ffffffffffffffffffffffffffffffffffffffff1673ffffffffffffffffffffffffffffffffffffffff1673ffffffffffffffffffffffffffffffffffffffff1681525050816020018190525060405180608001604052808d81526020018c81526020018b81526020018a81525081606001819052506007548160000181815250508c600a60008360000151815260200190815260200160002060006101000a81548173ffffffffffffffffffffffffffffffffffffffff021916908373ffffffffffffffffffffffffffffffffffffffff16021790555061192060016007546148a290919063ffffffff16565b5087816080018181525050868160a0018181525050858160e0018181525050848160c0019060ff16908160ff16815250508381610100018181525050828161018001819052506000816101200190600381111561197957fe5b9081600381111561198657fe5b81525050600381908060018154018082558091505090600182039060005260206000209060170201600090919290919091506000820151816000015560208201518160010160008201518160000190805190602001906119e792919061593f565b506020820151816001019080519060200190611a0492919061593f565b5060408201518160020160006101000a81548173ffffffffffffffffffffffffffffffffffffffff021916908373ffffffffffffffffffffffffffffffffffffffff16021790555050506040820151816004016000820151816000019080519060200190611a7392919061593f565b506020820151816001019080519060200190611a9092919061593f565b5060408201518160020160006101000a81548173ffffffffffffffffffffffffffffffffffffffff021916908373ffffffffffffffffffffffffffffffffffffffff16021790555050506060820151816007016000820151816000019080519060200190611aff92919061593f565b506020820151816001019080519060200190611b1c92919061593f565b50604082015181600201556060820151816003019080519060200190611b4392919061593f565b505050608082015181600b015560a082015181600c015560c082015181600d0160006101000a81548160ff021916908360ff16021790555060e082015181600e015561010082015181600f01556101208201518160100160006101000a81548160ff02191690836003811115611bb557fe5b021790555061014082015181601101556101608201518160120155610180820151816013019080519060200190611bed92919061593f565b506101a082015181601401600082015181600001556020820151816001019080519060200190611c1e92919061593f565b506040820151816002019080519060200190611c3b92919061593f565b5050505050507f43f1ae21a29a6c9d44a34c2f193fa24cb531c824a420ffa2cd6296068be1a29b8c8c8c8c856000015160405180806020018060200186815260200180602001858152602001848103845289818151815260200191508051906020019080838360005b83811015611cbf578082015181840152602081019050611ca4565b50505050905090810190601f168015611cec5780820380516001836020036101000a031916815260200191505b50848103835288818151815260200191508051906020019080838360005b83811015611d25578082015181840152602081019050611d0a565b50505050905090810190601f168015611d525780820380516001836020036101000a031916815260200191505b50848103825286818151815260200191508051906020019080838360005b83811015611d8b578082015181840152602081019050611d70565b50505050905090810190601f168015611db85780820380516001836020036101000a031916815260200191505b509850505050505050505060405180910390a180600001519150509b9a5050505050505050505050565b60006018603c808481611df157fe5b0481611df957fe5b0481611e0157fe5b069050919050565b60608060006060600080611e1c8761492a565b611e8e576040517f08c379a00000000000000000000000000000000000000000000000000000000081526004018080602001828103825260138152602001807f496e76616c696420436f6e74726163742049440000000000000000000000000081525060200191505060405180910390fd5b611e966159bf565b60038881548110611ea357fe5b9060005260206000209060170201600701604051806080016040529081600082018054600181600116156101000203166002900480601f016020809104026020016040519081016040528092919081815260200182805460018160011615610100020316600290048015611f585780601f10611f2d57610100808354040283529160200191611f58565b820191906000526020600020905b815481529060010190602001808311611f3b57829003601f168201915b50505050508152602001600182018054600181600116156101000203166002900480601f016020809104026020016040519081016040528092919081815260200182805460018160011615610100020316600290048015611ffa5780601f10611fcf57610100808354040283529160200191611ffa565b820191906000526020600020905b815481529060010190602001808311611fdd57829003601f168201915b5050505050815260200160028201548152602001600382018054600181600116156101000203166002900480601f0160208091040260200160405190810160405280929190818152602001828054600181600116156101000203166002900480156120a65780601f1061207b576101008083540402835291602001916120a6565b820191906000526020600020905b81548152906001019060200180831161208957829003601f168201915b5050505050815250509050806000015181602001518260400151836060015160038c815481106120d257fe5b9060005260206000209060170201600b015460038d815481106120f157fe5b9060005260206000209060170201600e01548595508494508292509650965096509650965096505091939550919395565b60006007600462015180848161213457fe5b04018161213d57fe5b069050919050565b60008061215142613587565b9050600061215e42612abd565b905060006121896003868154811061217257fe5b906000526020600020906017020160110154613587565b905060006121b46003878154811061219d57fe5b906000526020600020906017020160110154612abd565b90508160ff16600c82028560ff16600c8602010301945050505050919050565b60006121e586868686866000612832565b905095945050505050565b60006121fb8261496f565b604001519050919050565b61220e6127d4565b612280576040517f08c379a00000000000000000000000000000000000000000000000000000000081526004018080602001828103825260208152602001807f4f776e61626c653a2063616c6c6572206973206e6f7420746865206f776e657281525060200191505060405180910390fd5b600073ffffffffffffffffffffffffffffffffffffffff166000809054906101000a900473ffffffffffffffffffffffffffffffffffffffff1673ffffffffffffffffffffffffffffffffffffffff167f8be0079c531659141344cd1fd0a4f28419497f9722a3daafe3b4186f6b6457e060405160405180910390a360008060006101000a81548173ffffffffffffffffffffffffffffffffffffffff021916908373ffffffffffffffffffffffffffffffffffffffff160217905550565b600061235085858585600080612832565b9050949350505050565b60608060038081111561236957fe5b6003848154811061237657fe5b906000526020600020906017020160100160009054906101000a900460ff1660038111156123a057fe5b14612413576040517f08c379a000000000000000000000000000000000000000000000000000000000815260040180806020018281038252601d8152602001807f436f6e7472616374204973204e6f742059657420436f6d6d656e74656400000081525060200191505060405180910390fd5b61241b6159e7565b6003848154811061242857fe5b906000526020600020906017020160140160405180606001604052908160008201548152602001600182018054600181600116156101000203166002900480601f0160208091040260200160405190810160405280929190818152602001828054600181600116156101000203166002900480156124e75780601f106124bc576101008083540402835291602001916124e7565b820191906000526020600020905b8154815290600101906020018083116124ca57829003601f168201915b50505050508152602001600282018054600181600116156101000203166002900480601f0160208091040260200160405190810160405280929190818152602001828054600181600116156101000203166002900480156125895780601f1061255e57610100808354040283529160200191612589565b820191906000526020600020905b81548152906001019060200180831161256c57829003601f168201915b5050505050815250509050806040015181602001518191508090509250925050915091565b6000603c82816125ba57fe5b069050919050565b60006125d48484846000806000612832565b90509392505050565b6060806000600384815481106125ef57fe5b90600052602060002090601702016004016000016003858154811061261057fe5b90600052602060002090601702016004016001016003868154811061263157fe5b906000526020600020906017020160040160020160009054906101000a900473ffffffffffffffffffffffffffffffffffffffff16828054600181600116156101000203166002900480601f0160208091040260200160405190810160405280929190818152602001828054600181600116156101000203166002900480156126fb5780601f106126d0576101008083540402835291602001916126fb565b820191906000526020600020905b8154815290600101906020018083116126de57829003601f168201915b50505050509250818054600181600116156101000203166002900480601f0160208091040260200160405190810160405280929190818152602001828054600181600116156101000203166002900480156127975780601f1061276c57610100808354040283529160200191612797565b820191906000526020600020905b81548152906001019060200180831161277a57829003601f168201915b505050505091509250925092509193909250565b60008060009054906101000a900473ffffffffffffffffffffffffffffffffffffffff16905090565b60008060009054906101000a900473ffffffffffffffffffffffffffffffffffffffff1673ffffffffffffffffffffffffffffffffffffffff16612816614b0c565b73ffffffffffffffffffffffffffffffffffffffff1614905090565b6000806107b290505b8761ffff168161ffff16101561287e576128548161359d565b15612867576301e2850082019150612871565b6301e13380820191505b808060010191505061283b565b612886615a08565b601f816000600c811061289557fe5b602002019060ff16908160ff16815250506128af8961359d565b156128d957601d816001600c81106128c357fe5b602002019060ff16908160ff16815250506128fa565b601c816001600c81106128e857fe5b602002019060ff16908160ff16815250505b601f816002600c811061290957fe5b602002019060ff16908160ff1681525050601e816003600c811061292957fe5b602002019060ff16908160ff1681525050601f816004600c811061294957fe5b602002019060ff16908160ff1681525050601e816005600c811061296957fe5b602002019060ff16908160ff1681525050601f816006600c811061298957fe5b602002019060ff16908160ff1681525050601f816007600c81106129a957fe5b602002019060ff16908160ff1681525050601e816008600c81106129c957fe5b602002019060ff16908160ff1681525050601f816009600c81106129e957fe5b602002019060ff16908160ff1681525050601e81600a600c8110612a0957fe5b602002019060ff16908160ff1681525050601f81600b600c8110612a2957fe5b602002019060ff16908160ff1681525050600191505b8760ff168261ffff161015612a7f57806001830361ffff16600c8110612a6157fe5b602002015160ff166201518002830192508180600101925050612a3f565b6001870360ff166201518002830192508560ff16610e1002830192508460ff16603c02830192508360ff168301925082925050509695505050505050565b600080600090506000806301e133808581612ad457fe5b046107b261ffff16019150612aee6107b261ffff16613612565b612afb8361ffff16613612565b039050806301e285000283019250806107b2830361ffff16036301e1338002830192505b84831115612b5b57612b336001830361359d565b15612b46576301e2850083039250612b50565b6301e13380830392505b600182039150612b1f565b819350505050919050565b6000612b706127d4565b612be2576040517f08c379a00000000000000000000000000000000000000000000000000000000081526004018080602001828103825260208152602001807f4f776e61626c653a2063616c6c6572206973206e6f7420746865206f776e657281525060200191505060405180910390fd5b612beb8261492a565b612c5d576040517f08c379a00000000000000000000000000000000000000000000000000000000081526004018080602001828103825260138152602001807f496e76616c696420436f6e74726163742049440000000000000000000000000081525060200191505060405180910390fd5b612c656158aa565b60038381548110612c7257fe5b9060005260206000209060170201604051806101c00160405290816000820154815260200160018201604051806060016040529081600082018054600181600116156101000203166002900480601f016020809104026020016040519081016040528092919081815260200182805460018160011615610100020316600290048015612d3f5780601f10612d1457610100808354040283529160200191612d3f565b820191906000526020600020905b815481529060010190602001808311612d2257829003601f168201915b50505050508152602001600182018054600181600116156101000203166002900480601f016020809104026020016040519081016040528092919081815260200182805460018160011615610100020316600290048015612de15780601f10612db657610100808354040283529160200191612de1565b820191906000526020600020905b815481529060010190602001808311612dc457829003601f168201915b505050505081526020016002820160009054906101000a900473ffffffffffffffffffffffffffffffffffffffff1673ffffffffffffffffffffffffffffffffffffffff1673ffffffffffffffffffffffffffffffffffffffff1681525050815260200160048201604051806060016040529081600082018054600181600116156101000203166002900480601f016020809104026020016040519081016040528092919081815260200182805460018160011615610100020316600290048015612eed5780601f10612ec257610100808354040283529160200191612eed565b820191906000526020600020905b815481529060010190602001808311612ed057829003601f168201915b50505050508152602001600182018054600181600116156101000203166002900480601f016020809104026020016040519081016040528092919081815260200182805460018160011615610100020316600290048015612f8f5780601f10612f6457610100808354040283529160200191612f8f565b820191906000526020600020905b815481529060010190602001808311612f7257829003601f168201915b505050505081526020016002820160009054906101000a900473ffffffffffffffffffffffffffffffffffffffff1673ffffffffffffffffffffffffffffffffffffffff1673ffffffffffffffffffffffffffffffffffffffff1681525050815260200160078201604051806080016040529081600082018054600181600116156101000203166002900480601f01602080910402602001604051908101604052809291908181526020018280546001816001161561010002031660029004801561309b5780601f106130705761010080835404028352916020019161309b565b820191906000526020600020905b81548152906001019060200180831161307e57829003601f168201915b50505050508152602001600182018054600181600116156101000203166002900480601f01602080910402602001604051908101604052809291908181526020018280546001816001161561010002031660029004801561313d5780601f106131125761010080835404028352916020019161313d565b820191906000526020600020905b81548152906001019060200180831161312057829003601f168201915b5050505050815260200160028201548152602001600382018054600181600116156101000203166002900480601f0160208091040260200160405190810160405280929190818152602001828054600181600116156101000203166002900480156131e95780601f106131be576101008083540402835291602001916131e9565b820191906000526020600020905b8154815290600101906020018083116131cc57829003601f168201915b5050505050815250508152602001600b8201548152602001600c8201548152602001600d820160009054906101000a900460ff1660ff1660ff168152602001600e8201548152602001600f82015481526020016010820160009054906101000a900460ff16600381111561325957fe5b600381111561326457fe5b81526020016011820154815260200160128201548152602001601382018054600181600116156101000203166002900480601f0160208091040260200160405190810160405280929190818152602001828054600181600116156101000203166002900480156133155780601f106132ea57610100808354040283529160200191613315565b820191906000526020600020905b8154815290600101906020018083116132f857829003601f168201915b505050505081526020016014820160405180606001604052908160008201548152602001600182018054600181600116156101000203166002900480601f0160208091040260200160405190810160405280929190818152602001828054600181600116156101000203166002900480156133d15780601f106133a6576101008083540402835291602001916133d1565b820191906000526020600020905b8154815290600101906020018083116133b457829003601f168201915b50505050508152602001600282018054600181600116156101000203166002900480601f0160208091040260200160405190810160405280929190818152602001828054600181600116156101000203166002900480156134735780601f1061344857610100808354040283529160200191613473565b820191906000526020600020905b81548152906001019060200180831161345657829003601f168201915b50505050508152505081525050905060003073ffffffffffffffffffffffffffffffffffffffff16634d740c0f856040518263ffffffff1660e01b81526004018082815260200191505060206040518083038186803b1580156134d557600080fd5b505afa1580156134e9573d6000803e3d6000fd5b505050506040513d60208110156134ff57600080fd5b8101908080519060200190929190505050905061352b60028361010001516148a290919063ffffffff16565b8261016001518261ffff1603111561354b5761354684614b14565b61357f565b8160e001518161ffff1611156135695761356484614b14565b61357e565b8161016001518161ffff160392505050613582565b5b50505b919050565b60006135928261496f565b602001519050919050565b60008060048361ffff16816135ae57fe5b0661ffff16146135c1576000905061360d565b600060648361ffff16816135d157fe5b0661ffff16146135e4576001905061360d565b60006101908361ffff16816135f557fe5b0661ffff1614613608576000905061360d565b600190505b919050565b600080829050600181039050610190818161362957fe5b046064828161363457fe5b046004838161363f57fe5b040301915050919050565b600060018360ff161480613661575060038360ff16145b8061366f575060058360ff16145b8061367d575060078360ff16145b8061368b575060088360ff16145b806136995750600a8360ff16145b806136a75750600c8360ff16145b156136b557601f9050613710565b60048360ff1614806136ca575060068360ff16145b806136d8575060098360ff16145b806136e65750600b8360ff16145b156136f457601e9050613710565b6136fd8261359d565b1561370b57601d9050613710565b601c90505b92915050565b61371e6127d4565b613790576040517f08c379a00000000000000000000000000000000000000000000000000000000081526004018080602001828103825260208152602001807f4f776e61626c653a2063616c6c6572206973206e6f7420746865206f776e657281525060200191505060405180910390fd5b6137998261476e565b6137ee576040517f08c379a0000000000000000000000000000000000000000000000000000000008152600401808060200182810382526022815260200180615c216022913960400191505060405180910390fd5b600073ffffffffffffffffffffffffffffffffffffffff16600a600084815260200190815260200160002060009054906101000a900473ffffffffffffffffffffffffffffffffffffffff1673ffffffffffffffffffffffffffffffffffffffff16146138a6576040517f08c379a0000000000000000000000000000000000000000000000000000000008152600401808060200182810382526026815260200180615b926026913960400191505060405180910390fd5b80600383815481106138b457fe5b906000526020600020906017020160140160010190805190602001906138db92919061582a565b5060038083815481106138ea57fe5b906000526020600020906017020160100160006101000a81548160ff0219169083600381111561391657fe5b02179055505050565b6139288161492a565b61399a576040517f08c379a00000000000000000000000000000000000000000000000000000000081526004018080602001828103825260138152602001807f496e76616c696420436f6e74726163742049440000000000000000000000000081525060200191505060405180910390fd5b6139a4813361547e565b613a16576040517f08c379a00000000000000000000000000000000000000000000000000000000081526004018080602001828103825260158152602001807f4e6f74205065726d697474656420546f205369676e000000000000000000000081525060200191505060405180910390fd5b60006003811115613a2357fe5b60038281548110613a3057fe5b906000526020600020906017020160100160009054906101000a900460ff166003811115613a5a57fe5b14613acd576040517f08c379a00000000000000000000000000000000000000000000000000000000081526004018080602001828103825260148152602001807f4e6f742041742050656e64696e6720537461746500000000000000000000000081525060200191505060405180910390fd5b613ad5615a2b565b60405180606001604052808581526020018481526020013373ffffffffffffffffffffffffffffffffffffffff168152509050613b1c3360016154f890919063ffffffff16565b8060038381548110613b2a57fe5b90600052602060002090601702016004016000820151816000019080519060200190613b5792919061593f565b506020820151816001019080519060200190613b7492919061593f565b5060408201518160020160006101000a81548173ffffffffffffffffffffffffffffffffffffffff021916908373ffffffffffffffffffffffffffffffffffffffff160217905550905050600160038381548110613bce57fe5b906000526020600020906017020160100160006101000a81548160ff02191690836003811115613bfa57fe5b021790555050505050565b613c193360016155d390919063ffffffff16565b613c8b576040517f08c379a00000000000000000000000000000000000000000000000000000000081526004018080602001828103825260198152602001807f446f6573204e6f7420486176652054656e616e7420526f6c650000000000000081525060200191505060405180910390fd5b613c948161492a565b613d06576040517f08c379a00000000000000000000000000000000000000000000000000000000081526004018080602001828103825260138152602001807f496e76616c696420436f6e74726163742049440000000000000000000000000081525060200191505060405180910390fd5b613d1081346156b1565b613d82576040517f08c379a00000000000000000000000000000000000000000000000000000000081526004018080602001828103825260168152602001807f496e76616c6964205061796d656e7420416d6f756e740000000000000000000081525060200191505060405180910390fd5b60003073ffffffffffffffffffffffffffffffffffffffff16634d740c0f836040518263ffffffff1660e01b81526004018082815260200191505060206040518083038186803b158015613dd557600080fd5b505afa158015613de9573d6000803e3d6000fd5b505050506040513d6020811015613dff57600080fd5b81019080805190602001909291905050509050613e1a6158aa565b60038381548110613e2757fe5b9060005260206000209060170201604051806101c00160405290816000820154815260200160018201604051806060016040529081600082018054600181600116156101000203166002900480601f016020809104026020016040519081016040528092919081815260200182805460018160011615610100020316600290048015613ef45780601f10613ec957610100808354040283529160200191613ef4565b820191906000526020600020905b815481529060010190602001808311613ed757829003601f168201915b50505050508152602001600182018054600181600116156101000203166002900480601f016020809104026020016040519081016040528092919081815260200182805460018160011615610100020316600290048015613f965780601f10613f6b57610100808354040283529160200191613f96565b820191906000526020600020905b815481529060010190602001808311613f7957829003601f168201915b505050505081526020016002820160009054906101000a900473ffffffffffffffffffffffffffffffffffffffff1673ffffffffffffffffffffffffffffffffffffffff1673ffffffffffffffffffffffffffffffffffffffff1681525050815260200160048201604051806060016040529081600082018054600181600116156101000203166002900480601f0160208091040260200160405190810160405280929190818152602001828054600181600116156101000203166002900480156140a25780601f10614077576101008083540402835291602001916140a2565b820191906000526020600020905b81548152906001019060200180831161408557829003601f168201915b50505050508152602001600182018054600181600116156101000203166002900480601f0160208091040260200160405190810160405280929190818152602001828054600181600116156101000203166002900480156141445780601f1061411957610100808354040283529160200191614144565b820191906000526020600020905b81548152906001019060200180831161412757829003601f168201915b505050505081526020016002820160009054906101000a900473ffffffffffffffffffffffffffffffffffffffff1673ffffffffffffffffffffffffffffffffffffffff1673ffffffffffffffffffffffffffffffffffffffff1681525050815260200160078201604051806080016040529081600082018054600181600116156101000203166002900480601f0160208091040260200160405190810160405280929190818152602001828054600181600116156101000203166002900480156142505780601f1061422557610100808354040283529160200191614250565b820191906000526020600020905b81548152906001019060200180831161423357829003601f168201915b50505050508152602001600182018054600181600116156101000203166002900480601f0160208091040260200160405190810160405280929190818152602001828054600181600116156101000203166002900480156142f25780601f106142c7576101008083540402835291602001916142f2565b820191906000526020600020905b8154815290600101906020018083116142d557829003601f168201915b5050505050815260200160028201548152602001600382018054600181600116156101000203166002900480601f01602080910402602001604051908101604052809291908181526020018280546001816001161561010002031660029004801561439e5780601f106143735761010080835404028352916020019161439e565b820191906000526020600020905b81548152906001019060200180831161438157829003601f168201915b5050505050815250508152602001600b8201548152602001600c8201548152602001600d820160009054906101000a900460ff1660ff1660ff168152602001600e8201548152602001600f82015481526020016010820160009054906101000a900460ff16600381111561440e57fe5b600381111561441957fe5b81526020016011820154815260200160128201548152602001601382018054600181600116156101000203166002900480601f0160208091040260200160405190810160405280929190818152602001828054600181600116156101000203166002900480156144ca5780601f1061449f576101008083540402835291602001916144ca565b820191906000526020600020905b8154815290600101906020018083116144ad57829003601f168201915b505050505081526020016014820160405180606001604052908160008201548152602001600182018054600181600116156101000203166002900480601f0160208091040260200160405190810160405280929190818152602001828054600181600116156101000203166002900480156145865780601f1061455b57610100808354040283529160200191614586565b820191906000526020600020905b81548152906001019060200180831161456957829003601f168201915b50505050508152602001600282018054600181600116156101000203166002900480601f0160208091040260200160405190810160405280929190818152602001828054600181600116156101000203166002900480156146285780601f106145fd57610100808354040283529160200191614628565b820191906000526020600020905b81548152906001019060200180831161460b57829003601f168201915b5050505050815250508152505090508161ffff1681610160015110156146675761466160018261016001516148a290919063ffffffff16565b506146c6565b3373ffffffffffffffffffffffffffffffffffffffff166108fc3073ffffffffffffffffffffffffffffffffffffffff16319081150290604051600060405180830381858888f193505050501580156146c4573d6000803e3d6000fd5b505b505050565b6146d36127d4565b614745576040517f08c379a00000000000000000000000000000000000000000000000000000000081526004018080602001828103825260208152602001807f4f776e61626c653a2063616c6c6572206973206e6f7420746865206f776e657281525060200191505060405180910390fd5b61474e816156e6565b50565b6000603c80838161475e57fe5b048161476657fe5b069050919050565b60006009600083815260200190815260200160002060009054906101000a900460ff1680156147de5750600260038111156147a557fe5b600383815481106147b257fe5b906000526020600020906017020160100160009054906101000a900460ff1660038111156147dc57fe5b145b9050919050565b6147ef82826155d3565b614844576040517f08c379a0000000000000000000000000000000000000000000000000000000008152600401808060200182810382526021815260200180615bde6021913960400191505060405180910390fd5b60008260000160008373ffffffffffffffffffffffffffffffffffffffff1673ffffffffffffffffffffffffffffffffffffffff16815260200190815260200160002060006101000a81548160ff0219169083151502179055505050565b600080828401905083811015614920576040517f08c379a000000000000000000000000000000000000000000000000000000000815260040180806020018281038252601b8152602001807f536166654d6174683a206164646974696f6e206f766572666c6f77000000000081525060200191505060405180910390fd5b8091505092915050565b600080821015801561493e57506007548211155b801561496857506009600083815260200190815260200160002060009054906101000a900460ff16155b9050919050565b614977615a62565b600080905060008061498885612abd565b846000019061ffff16908161ffff16815250506149aa6107b261ffff16613612565b6149bb856000015161ffff16613612565b039150816301e285000283019250816107b285600001510361ffff16036301e1338002830192506000600191505b600c8260ff1611614a3f57614a0282866000015161364a565b60ff1662015180029050858482011115614a2d5781856020019060ff16908160ff1681525050614a3f565b808401935081806001019250506149e9565b600191505b614a568560200151866000015161364a565b60ff168260ff1611614a9b57858462015180011115614a865781856040019060ff16908160ff1681525050614a9b565b62015180840193508180600101925050614a44565b614aa486611de2565b856060019060ff16908160ff1681525050614abe86614751565b856080019060ff16908160ff1681525050614ad8866125ae565b8560a0019060ff16908160ff1681525050614af286612122565b8560c0019060ff16908160ff168152505050505050919050565b600033905090565b614b1c6158aa565b60038281548110614b2957fe5b9060005260206000209060170201604051806101c00160405290816000820154815260200160018201604051806060016040529081600082018054600181600116156101000203166002900480601f016020809104026020016040519081016040528092919081815260200182805460018160011615610100020316600290048015614bf65780601f10614bcb57610100808354040283529160200191614bf6565b820191906000526020600020905b815481529060010190602001808311614bd957829003601f168201915b50505050508152602001600182018054600181600116156101000203166002900480601f016020809104026020016040519081016040528092919081815260200182805460018160011615610100020316600290048015614c985780601f10614c6d57610100808354040283529160200191614c98565b820191906000526020600020905b815481529060010190602001808311614c7b57829003601f168201915b505050505081526020016002820160009054906101000a900473ffffffffffffffffffffffffffffffffffffffff1673ffffffffffffffffffffffffffffffffffffffff1673ffffffffffffffffffffffffffffffffffffffff1681525050815260200160048201604051806060016040529081600082018054600181600116156101000203166002900480601f016020809104026020016040519081016040528092919081815260200182805460018160011615610100020316600290048015614da45780601f10614d7957610100808354040283529160200191614da4565b820191906000526020600020905b815481529060010190602001808311614d8757829003601f168201915b50505050508152602001600182018054600181600116156101000203166002900480601f016020809104026020016040519081016040528092919081815260200182805460018160011615610100020316600290048015614e465780601f10614e1b57610100808354040283529160200191614e46565b820191906000526020600020905b815481529060010190602001808311614e2957829003601f168201915b505050505081526020016002820160009054906101000a900473ffffffffffffffffffffffffffffffffffffffff1673ffffffffffffffffffffffffffffffffffffffff1673ffffffffffffffffffffffffffffffffffffffff1681525050815260200160078201604051806080016040529081600082018054600181600116156101000203166002900480601f016020809104026020016040519081016040528092919081815260200182805460018160011615610100020316600290048015614f525780601f10614f2757610100808354040283529160200191614f52565b820191906000526020600020905b815481529060010190602001808311614f3557829003601f168201915b50505050508152602001600182018054600181600116156101000203166002900480601f016020809104026020016040519081016040528092919081815260200182805460018160011615610100020316600290048015614ff45780601f10614fc957610100808354040283529160200191614ff4565b820191906000526020600020905b815481529060010190602001808311614fd757829003601f168201915b5050505050815260200160028201548152602001600382018054600181600116156101000203166002900480601f0160208091040260200160405190810160405280929190818152602001828054600181600116156101000203166002900480156150a05780601f10615075576101008083540402835291602001916150a0565b820191906000526020600020905b81548152906001019060200180831161508357829003601f168201915b5050505050815250508152602001600b8201548152602001600c8201548152602001600d820160009054906101000a900460ff1660ff1660ff168152602001600e8201548152602001600f82015481526020016010820160009054906101000a900460ff16600381111561511057fe5b600381111561511b57fe5b81526020016011820154815260200160128201548152602001601382018054600181600116156101000203166002900480601f0160208091040260200160405190810160405280929190818152602001828054600181600116156101000203166002900480156151cc5780601f106151a1576101008083540402835291602001916151cc565b820191906000526020600020905b8154815290600101906020018083116151af57829003601f168201915b505050505081526020016014820160405180606001604052908160008201548152602001600182018054600181600116156101000203166002900480601f0160208091040260200160405190810160405280929190818152602001828054600181600116156101000203166002900480156152885780601f1061525d57610100808354040283529160200191615288565b820191906000526020600020905b81548152906001019060200180831161526b57829003601f168201915b50505050508152602001600282018054600181600116156101000203166002900480601f01602080910402602001604051908101604052809291908181526020018280546001816001161561010002031660029004801561532a5780601f106152ff5761010080835404028352916020019161532a565b820191906000526020600020905b81548152906001019060200180831161530d57829003601f168201915b5050505050815250508152505090506153416159e7565b604051806060016040528042815260200160405180602001604052806000815250815260200160405180602001604052806000815250815250905080826101a001819052506002826101200190600381111561539957fe5b908160038111156153a657fe5b815250503073ffffffffffffffffffffffffffffffffffffffff16632d7100708360400151604001516040518263ffffffff1660e01b8152600401808273ffffffffffffffffffffffffffffffffffffffff1673ffffffffffffffffffffffffffffffffffffffff168152602001915050600060405180830381600087803b15801561543157600080fd5b505af1158015615445573d6000803e3d6000fd5b505050506001600960008460000151815260200190815260200160002060006101000a81548160ff021916908315150217905550505050565b60008173ffffffffffffffffffffffffffffffffffffffff16600384815481106154a457fe5b906000526020600020906017020160040160020160009054906101000a900473ffffffffffffffffffffffffffffffffffffffff1673ffffffffffffffffffffffffffffffffffffffff1614905092915050565b61550282826155d3565b15615575576040517f08c379a000000000000000000000000000000000000000000000000000000000815260040180806020018281038252601f8152602001807f526f6c65733a206163636f756e7420616c72656164792068617320726f6c650081525060200191505060405180910390fd5b60018260000160008373ffffffffffffffffffffffffffffffffffffffff1673ffffffffffffffffffffffffffffffffffffffff16815260200190815260200160002060006101000a81548160ff0219169083151502179055505050565b60008073ffffffffffffffffffffffffffffffffffffffff168273ffffffffffffffffffffffffffffffffffffffff16141561565a576040517f08c379a0000000000000000000000000000000000000000000000000000000008152600401808060200182810382526022815260200180615bff6022913960400191505060405180910390fd5b8260000160008373ffffffffffffffffffffffffffffffffffffffff1673ffffffffffffffffffffffffffffffffffffffff16815260200190815260200160002060009054906101000a900460ff16905092915050565b6000670de0b6b3a7640000600384815481106156c957fe5b9060005260206000209060170201600b0154028214905092915050565b600073ffffffffffffffffffffffffffffffffffffffff168173ffffffffffffffffffffffffffffffffffffffff16141561576c576040517f08c379a0000000000000000000000000000000000000000000000000000000008152600401808060200182810382526026815260200180615bb86026913960400191505060405180910390fd5b8073ffffffffffffffffffffffffffffffffffffffff166000809054906101000a900473ffffffffffffffffffffffffffffffffffffffff1673ffffffffffffffffffffffffffffffffffffffff167f8be0079c531659141344cd1fd0a4f28419497f9722a3daafe3b4186f6b6457e060405160405180910390a3806000806101000a81548173ffffffffffffffffffffffffffffffffffffffff021916908373ffffffffffffffffffffffffffffffffffffffff16021790555050565b828054600181600116156101000203166002900490600052602060002090601f016020900481019282601f1061586b57805160ff1916838001178555615899565b82800160010185558215615899579182015b8281111561589857825182559160200191906001019061587d565b5b5090506158a69190615ab5565b5090565b604051806101c00160405280600081526020016158c5615ada565b81526020016158d2615b11565b81526020016158df615b48565b81526020016000815260200160008152602001600060ff16815260200160008152602001600081526020016000600381111561591757fe5b8152602001600081526020016000815260200160608152602001615939615b70565b81525090565b828054600181600116156101000203166002900490600052602060002090601f016020900481019282601f1061598057805160ff19168380011785556159ae565b828001600101855582156159ae579182015b828111156159ad578251825591602001919060010190615992565b5b5090506159bb9190615ab5565b5090565b6040518060800160405280606081526020016060815260200160008152602001606081525090565b60405180606001604052806000815260200160608152602001606081525090565b604051806101800160405280600c90602082028038833980820191505090505090565b60405180606001604052806060815260200160608152602001600073ffffffffffffffffffffffffffffffffffffffff1681525090565b6040518060e00160405280600061ffff168152602001600060ff168152602001600060ff168152602001600060ff168152602001600060ff168152602001600060ff168152602001600060ff1681525090565b615ad791905b80821115615ad3576000816000905550600101615abb565b5090565b90565b60405180606001604052806060815260200160608152602001600073ffffffffffffffffffffffffffffffffffffffff1681525090565b60405180606001604052806060815260200160608152602001600073ffffffffffffffffffffffffffffffffffffffff1681525090565b6040518060800160405280606081526020016060815260200160008152602001606081525090565b6040518060600160405280600081526020016060815260200160608152509056fe54656e616e7420466f72205468697320436f6e7472616374204861736e7420436f6d6d656e744f776e61626c653a206e6577206f776e657220697320746865207a65726f2061646472657373526f6c65733a206163636f756e7420646f6573206e6f74206861766520726f6c65526f6c65733a206163636f756e7420697320746865207a65726f2061646472657373436f6e7472616374204973204e6f7420416c6c6f77656420546f20436f6d6d656e74a265627a7a72315820c86402b6f2acbde41fcd737dff23d070b44f048f92696556aa04b6e82102e5e064736f6c634300050c0032",
  "source": "pragma solidity ^0.5.0;\nimport \"../node_modules/@openzeppelin/contracts/access/Roles.sol\";\nimport \"../node_modules/@openzeppelin/contracts/ownership/Ownable.sol\";\nimport \"../node_modules/@openzeppelin/contracts/token/ERC721/ERC721Full.sol\";\nimport \"./DateTime.sol\";\n///import \"../node_modules/@openzeppelin/contracts/token/ERC20/ERC20Detailed.sol\";\n\n/**\n* @title A house leasing contract\n*/\n\ncontract SmartHousing is Ownable,DateTime{\n    using Roles for Roles.Role;\n    //prevent overflow c = a + b becomes c = a.add(b)\n    using SafeMath for uint256;\n    Roles.Role private tenants;\n    address private landlord_address;\n    struct Landlord{\n        string name;\n        string hashed_pid;\n        address _address;\n    }\n    struct Tenant{\n        string name;\n        string hashed_pid;\n        address _address;\n    }\n    struct HouseInfo{\n        string physical_address;\n        string city;\n        uint256 zip_code;\n        //house_type indicate studio, two bedrooms, etc\n        string house_type;\n    }\n    struct Termination{\n        uint256 timestamp;\n        string landlord_comment;\n        string tenant_comment;\n    }\n    // defines contract state\n    enum State {Pending, Started, Terminated, Commented}\n    // main lease contract\n    struct LeaseContract{\n        uint256 id;\n        Landlord landlord;\n        Tenant tenant;\n        HouseInfo house_info; //basic information about this leasing object\n\n        //Contract Metadata\n        uint256 rent; // rent per month\n        uint256 utility_bill; ///\n        uint8 rent_pay_day; // the day that needs to pay rent, for example 5 means you need to pay rent on 9/5 for September\n        uint256 total_term; //total number of term for this contract, unit for term is month\n        uint256 deposit; //deposit in unit of month, ex: two months deposit\n        State state;\n        uint256 start_timestamp; // when the contract actually starts\n        uint256 paid_rent_count; //array that records rent payments\n        string repair_obligation;///\n\n        //Termination\n        Termination termination; //provide terminate time and reason\n    }\n    //list of all contracts\n    LeaseContract[] contracts;\n    Landlord landlord;\n    // highest valid tokenID or contractID\n    uint256 internal maxID;\n    // number of contracts\n    uint256 private contractNumber;\n    //A mapping of terminated contracts, checks if a contract is valid\n    mapping(uint256 => bool) internal burned;\n    //A mapping of  tenant to corresponding address, allowance will continue to allow access\n    //to the contract until tenant comment on the lease after termination\n    mapping(uint256 => address) internal allowance;\n\n    //Events\n    event ContractCreated(string physical_address, string city, uint256 zip_code, string house_type, uint256 id);\n    event NewLeaseRequest(string name, string email, uint256 phone_number, uint256 contract_id);\n    event ContractStarted(uint256 contract_id, address select_address);\n    // constructor() public{\n    //     landlord._address = msg.sender;\n    // }\n    constructor(string memory _landlord_name, string memory _landlord_hashed_pid) public{\n        landlord._address = msg.sender;\n        landlord.name = _landlord_name;\n        landlord.hashed_pid = _landlord_hashed_pid;\n    }\n    /**\n     * @dev check if one month payment is not less than require rent\n     */\n    function isValidAmount(uint256 _contractId, uint256 _payment) internal view returns(bool){\n        return _payment == contracts[_contractId].rent * 1 ether;\n    }\n    /**\n     * @dev check if a contract, its id should be valid and is not burned\n     */\n    function isValidContract(uint256 _contractId) internal view returns(bool){\n        //return _contractId != 0 && _contractId <= maxID && !burned[_contractId];\n        return _contractId >= 0 && _contractId <= maxID && !burned[_contractId];\n    }\n     /**\n     * @dev check if this signer is allowed to sign this contract\n     */\n    function isPermittedSigner(uint256 _contractId, address _signer) internal view returns(bool){\n        return contracts[_contractId].tenant._address == _signer;\n    }\n    /**\n     * @dev check if landlord or tenant is allowed to comment on this burined contract\n     */\n     function isAllowedComment(uint256 _contractId) internal view returns(bool){\n         return burned[_contractId] && contracts[_contractId].state == State.Terminated;\n     }\n    /**\n     * @dev during the appointment with tenant, landlodrd creates a new contract and wait for tenant to sign\n     */\n    function addNewContract(address _tenant_address,\n                            string memory _physical_address,string memory _city, uint256 _zip_code, string memory _house_type,\n                            uint256 _rent, uint256 _utility_bill, uint256 _total_term, uint8 _rent_pay_day, uint256 _deposit,\n                            string memory _repair_obligation) public onlyOwner returns(uint256){\n        LeaseContract memory newcontract;\n        newcontract.landlord = landlord;\n        newcontract.house_info = HouseInfo({physical_address:_physical_address, city:_city, zip_code:_zip_code, house_type:_house_type });\n        newcontract.id = maxID;\n        allowance[newcontract.id] = _tenant_address; //only allow this address to sign the contract\n        maxID.add(1);\n        newcontract.rent = _rent;\n        newcontract.utility_bill = _utility_bill;\n        newcontract.total_term = _total_term;\n        newcontract.rent_pay_day = _rent_pay_day;\n        newcontract.deposit = _deposit;\n        newcontract.repair_obligation = _repair_obligation;\n        newcontract.state = State.Pending;\n        contracts.push(newcontract);\n        emit ContractCreated(_physical_address,_city,_zip_code,_house_type,newcontract.id);\n        return newcontract.id;\n    }\n    /**\n     * @dev sign the contract and the lease start\n     */\n    function signContract(string memory _name, string memory _hashed_pid, uint256 _contract_id) public{\n        require(isValidContract(_contract_id),'Invalid Contract ID');\n        require(isPermittedSigner(_contract_id, msg.sender),'Not Permitted To Sign');\n        require(contracts[_contract_id].state == State.Pending,'Not At Pending State');\n        Tenant memory new_tenant = Tenant(_name,_hashed_pid,msg.sender);\n        tenants.add(msg.sender);\n        contracts[_contract_id].tenant = new_tenant;\n        contracts[_contract_id].state = State.Started;\n    }\n     /**\n     * @dev remove a tenant and delete his allowance to a contract\n     */\n     function removeTenant(address _tenant)  public onlyOwner{\n         tenants.remove(_tenant);\n     }\n    /**\n     * @dev return house info, rent, and term for specific contract\n     */\n    function getContractHouseInfo(uint256 _contract_id) public view returns(string memory, string memory, uint256, string memory\n                                                                           ,uint256, uint256){\n        require(isValidContract(_contract_id),'Invalid Contract ID');\n        HouseInfo memory house_info = contracts[_contract_id].house_info;\n        return (house_info.physical_address, house_info.city, house_info.zip_code, house_info.house_type, contracts[_contract_id].rent,\n                contracts[_contract_id].total_term);\n    }\n    /**\n     * @dev obtain list of pending id for a pending contract\n     */\n     function getContractStatus(uint256 _contract_id) public view returns(State){\n         return contracts[_contract_id].state;\n     }\n      /**\n     * @dev obtain the tenant for that contract\n     */\n     function getContractTenant(uint256 _contract_id) public view returns(string memory, string memory, address){\n         return (contracts[_contract_id].tenant.name,contracts[_contract_id].tenant.hashed_pid,contracts[_contract_id].tenant._address);\n     }\n     /**\n     * @dev return current term of the given contract\n     */\n     function getCurrentTerm(uint256 _contract_id)public view returns(uint16){\n        uint8 current_month = getMonth(now);\n        uint16 current_year = getYear(now);\n        uint8 started_month = getMonth(contracts[_contract_id].start_timestamp);\n        uint16 started_year = getYear(contracts[_contract_id].start_timestamp);\n        return current_year * 12 + current_month - started_year * 12 + started_month;\n     }\n     /**\n     * @dev pay rent to the contract\n     */\n     function payRent(uint256 _contract_id) public payable{\n        require(tenants.has(msg.sender),\"Does Not Have Tenant Role\");\n        require(isValidContract(_contract_id),'Invalid Contract ID');\n        require(isValidAmount(_contract_id,msg.value),'Invalid Payment Amount');\n        uint16 current_term = this.getCurrentTerm(_contract_id);\n        LeaseContract memory target_contract = contracts[_contract_id];\n        if(target_contract.paid_rent_count < current_term){\n            target_contract.paid_rent_count.add(1);\n        }\n        else{\n            msg.sender.transfer(address(this).balance);\n        }\n     }\n     /**\n     * @dev terminate contract\n     */\n     function terminateContract(uint256 _contract_id) internal{\n        LeaseContract memory target_contract = contracts[_contract_id];\n        Termination memory termination = Termination({timestamp:now, landlord_comment:\"\",tenant_comment:\"\"});\n        target_contract.termination = termination;\n        target_contract.state = State.Terminated;\n        this.removeTenant(target_contract.tenant._address);\n        burned[target_contract.id] = true;\n     }\n     /**\n     * @dev check the rent payment status and terminate if neccessary, return unpaid rent count\n     */\n     function updateContractStatus(uint256 _contract_id) public onlyOwner returns(uint256){\n        require(isValidContract(_contract_id),'Invalid Contract ID');\n        LeaseContract memory target_contract = contracts[_contract_id];\n        uint16 current_term = this.getCurrentTerm(_contract_id);\n        //if this tenant owe rent in an amount that exceed his deposit, the contract is terminated\n        if(current_term - target_contract.paid_rent_count > target_contract.deposit.add(2)){\n            terminateContract(_contract_id);\n        }\n        //lease end\n        else if(current_term > target_contract.total_term){\n            terminateContract(_contract_id);\n        }\n        else{\n            return(current_term-target_contract.paid_rent_count);\n        }\n     }\n    /**\n     * @dev Tenant comments on contract\n     */\n    function tennantComment(uint256 _contract_id, string memory comment) public{\n        require(isAllowedComment(_contract_id),\"Contract Is Not Allowed To Comment\");\n        require(allowance[_contract_id] == msg.sender, \"Invalid Account\");\n        contracts[_contract_id].termination.tenant_comment = comment;\n        allowance[_contract_id] = address(0);\n    }\n    /**\n     * @dev Landlord can comment after tenant commented\n     */\n    function landlordComment(uint256 _contract_id, string memory comment) public onlyOwner{\n        require(isAllowedComment(_contract_id),\"Contract Is Not Allowed To Comment\");\n        require(allowance[_contract_id] == address(0), \"Tenant For This Contract Hasnt Comment\");\n        contracts[_contract_id].termination.landlord_comment = comment;\n        contracts[_contract_id].state = State.Commented;\n    }\n    /**\n     * @dev Obtain comments from this contract\n     */\n     function viewComments(uint256 _contract_id) public view returns(string memory, string memory){\n         require(contracts[_contract_id].state == State.Commented, \"Contract Is Not Yet Commented\");\n         Termination memory termination = contracts[_contract_id].termination;\n         return (termination.tenant_comment,termination.landlord_comment);\n     }\n\n\n\n}",
  "sourcePath": "/Users/liuyuantai/Desktop/Blockchain/smarthousing/contracts/SmartHousing.sol",
  "compiler": {
    "name": "solc",
    "version": "0.5.12+commit.7709ece9.Emscripten.clang"
  },
  "schemaVersion": "3.0.19",
  "updatedAt": "2019-12-15T05:30:31.102Z",
  "networkType": "ethereum",
  "devdoc": {
    "methods": {
      "addNewContract(address,string,string,uint256,string,uint256,uint256,uint256,uint8,uint256,string)": {
        "details": "during the appointment with tenant, landlodrd creates a new contract and wait for tenant to sign"
      },
      "getContractHouseInfo(uint256)": {
        "details": "return house info, rent, and term for specific contract"
      },
      "getContractStatus(uint256)": {
        "details": "obtain list of pending id for a pending contract"
      },
      "getContractTenant(uint256)": {
        "details": "obtain the tenant for that contract"
      },
      "getCurrentTerm(uint256)": {
        "details": "return current term of the given contract"
      },
      "isOwner()": {
        "details": "Returns true if the caller is the current owner."
      },
      "landlordComment(uint256,string)": {
        "details": "Landlord can comment after tenant commented"
      },
      "owner()": {
        "details": "Returns the address of the current owner."
      },
      "payRent(uint256)": {
        "details": "pay rent to the contract"
      },
      "removeTenant(address)": {
        "details": "remove a tenant and delete his allowance to a contract"
      },
      "renounceOwnership()": {
        "details": "Leaves the contract without owner. It will not be possible to call `onlyOwner` functions anymore. Can only be called by the current owner.     * NOTE: Renouncing ownership will leave the contract without an owner, thereby removing any functionality that is only available to the owner."
      },
      "signContract(string,string,uint256)": {
        "details": "sign the contract and the lease start"
      },
      "tennantComment(uint256,string)": {
        "details": "Tenant comments on contract"
      },
      "transferOwnership(address)": {
        "details": "Transfers ownership of the contract to a new account (`newOwner`). Can only be called by the current owner."
      },
      "updateContractStatus(uint256)": {
        "details": "check the rent payment status and terminate if neccessary, return unpaid rent count"
      },
      "viewComments(uint256)": {
        "details": "Obtain comments from this contract"
      }
    },
    "title": "A house leasing contract"
  },
  "userdoc": {
    "methods": {}
  }
}