{
  "contractName": "HouseContract",
  "abi": [
    {
      "inputs": [],
      "payable": false,
      "stateMutability": "nonpayable",
      "type": "constructor"
    },
    {
      "anonymous": false,
      "inputs": [
        {
          "indexed": false,
          "internalType": "string",
          "name": "physical_address",
          "type": "string"
        },
        {
          "indexed": false,
          "internalType": "string",
          "name": "city",
          "type": "string"
        },
        {
          "indexed": false,
          "internalType": "uint256",
          "name": "zip_code",
          "type": "uint256"
        },
        {
          "indexed": false,
          "internalType": "string",
          "name": "house_type",
          "type": "string"
        },
        {
          "indexed": false,
          "internalType": "uint256",
          "name": "id",
          "type": "uint256"
        }
      ],
      "name": "ContractCreated",
      "type": "event"
    },
    {
      "anonymous": false,
      "inputs": [
        {
          "indexed": false,
          "internalType": "uint256",
          "name": "contract_id",
          "type": "uint256"
        },
        {
          "indexed": false,
          "internalType": "address",
          "name": "select_address",
          "type": "address"
        }
      ],
      "name": "ContractStarted",
      "type": "event"
    },
    {
      "anonymous": false,
      "inputs": [
        {
          "indexed": false,
          "internalType": "string",
          "name": "name",
          "type": "string"
        },
        {
          "indexed": false,
          "internalType": "string",
          "name": "email",
          "type": "string"
        },
        {
          "indexed": false,
          "internalType": "uint256",
          "name": "phone_number",
          "type": "uint256"
        },
        {
          "indexed": false,
          "internalType": "uint256",
          "name": "contract_id",
          "type": "uint256"
        }
      ],
      "name": "NewLeaseRequest",
      "type": "event"
    },
    {
      "anonymous": false,
      "inputs": [
        {
          "indexed": true,
          "internalType": "address",
          "name": "previousOwner",
          "type": "address"
        },
        {
          "indexed": true,
          "internalType": "address",
          "name": "newOwner",
          "type": "address"
        }
      ],
      "name": "OwnershipTransferred",
      "type": "event"
    },
    {
      "constant": true,
      "inputs": [
        {
          "internalType": "uint256",
          "name": "timestamp",
          "type": "uint256"
        }
      ],
      "name": "getDay",
      "outputs": [
        {
          "internalType": "uint8",
          "name": "",
          "type": "uint8"
        }
      ],
      "payable": false,
      "stateMutability": "pure",
      "type": "function"
    },
    {
      "constant": true,
      "inputs": [
        {
          "internalType": "uint8",
          "name": "month",
          "type": "uint8"
        },
        {
          "internalType": "uint16",
          "name": "year",
          "type": "uint16"
        }
      ],
      "name": "getDaysInMonth",
      "outputs": [
        {
          "internalType": "uint8",
          "name": "",
          "type": "uint8"
        }
      ],
      "payable": false,
      "stateMutability": "pure",
      "type": "function"
    },
    {
      "constant": true,
      "inputs": [
        {
          "internalType": "uint256",
          "name": "timestamp",
          "type": "uint256"
        }
      ],
      "name": "getHour",
      "outputs": [
        {
          "internalType": "uint8",
          "name": "",
          "type": "uint8"
        }
      ],
      "payable": false,
      "stateMutability": "pure",
      "type": "function"
    },
    {
      "constant": true,
      "inputs": [
        {
          "internalType": "uint256",
          "name": "timestamp",
          "type": "uint256"
        }
      ],
      "name": "getMinute",
      "outputs": [
        {
          "internalType": "uint8",
          "name": "",
          "type": "uint8"
        }
      ],
      "payable": false,
      "stateMutability": "pure",
      "type": "function"
    },
    {
      "constant": true,
      "inputs": [
        {
          "internalType": "uint256",
          "name": "timestamp",
          "type": "uint256"
        }
      ],
      "name": "getMonth",
      "outputs": [
        {
          "internalType": "uint8",
          "name": "",
          "type": "uint8"
        }
      ],
      "payable": false,
      "stateMutability": "pure",
      "type": "function"
    },
    {
      "constant": true,
      "inputs": [
        {
          "internalType": "uint256",
          "name": "timestamp",
          "type": "uint256"
        }
      ],
      "name": "getSecond",
      "outputs": [
        {
          "internalType": "uint8",
          "name": "",
          "type": "uint8"
        }
      ],
      "payable": false,
      "stateMutability": "pure",
      "type": "function"
    },
    {
      "constant": true,
      "inputs": [
        {
          "internalType": "uint256",
          "name": "timestamp",
          "type": "uint256"
        }
      ],
      "name": "getWeekday",
      "outputs": [
        {
          "internalType": "uint8",
          "name": "",
          "type": "uint8"
        }
      ],
      "payable": false,
      "stateMutability": "pure",
      "type": "function"
    },
    {
      "constant": true,
      "inputs": [
        {
          "internalType": "uint256",
          "name": "timestamp",
          "type": "uint256"
        }
      ],
      "name": "getYear",
      "outputs": [
        {
          "internalType": "uint16",
          "name": "",
          "type": "uint16"
        }
      ],
      "payable": false,
      "stateMutability": "pure",
      "type": "function"
    },
    {
      "constant": true,
      "inputs": [
        {
          "internalType": "uint16",
          "name": "year",
          "type": "uint16"
        }
      ],
      "name": "isLeapYear",
      "outputs": [
        {
          "internalType": "bool",
          "name": "",
          "type": "bool"
        }
      ],
      "payable": false,
      "stateMutability": "pure",
      "type": "function"
    },
    {
      "constant": true,
      "inputs": [],
      "name": "isOwner",
      "outputs": [
        {
          "internalType": "bool",
          "name": "",
          "type": "bool"
        }
      ],
      "payable": false,
      "stateMutability": "view",
      "type": "function"
    },
    {
      "constant": true,
      "inputs": [
        {
          "internalType": "uint256",
          "name": "year",
          "type": "uint256"
        }
      ],
      "name": "leapYearsBefore",
      "outputs": [
        {
          "internalType": "uint256",
          "name": "",
          "type": "uint256"
        }
      ],
      "payable": false,
      "stateMutability": "pure",
      "type": "function"
    },
    {
      "constant": true,
      "inputs": [],
      "name": "owner",
      "outputs": [
        {
          "internalType": "address",
          "name": "",
          "type": "address"
        }
      ],
      "payable": false,
      "stateMutability": "view",
      "type": "function"
    },
    {
      "constant": false,
      "inputs": [],
      "name": "renounceOwnership",
      "outputs": [],
      "payable": false,
      "stateMutability": "nonpayable",
      "type": "function"
    },
    {
      "constant": true,
      "inputs": [
        {
          "internalType": "uint16",
          "name": "year",
          "type": "uint16"
        },
        {
          "internalType": "uint8",
          "name": "month",
          "type": "uint8"
        },
        {
          "internalType": "uint8",
          "name": "day",
          "type": "uint8"
        },
        {
          "internalType": "uint8",
          "name": "hour",
          "type": "uint8"
        },
        {
          "internalType": "uint8",
          "name": "minute",
          "type": "uint8"
        }
      ],
      "name": "toTimestamp",
      "outputs": [
        {
          "internalType": "uint256",
          "name": "timestamp",
          "type": "uint256"
        }
      ],
      "payable": false,
      "stateMutability": "pure",
      "type": "function"
    },
    {
      "constant": true,
      "inputs": [
        {
          "internalType": "uint16",
          "name": "year",
          "type": "uint16"
        },
        {
          "internalType": "uint8",
          "name": "month",
          "type": "uint8"
        },
        {
          "internalType": "uint8",
          "name": "day",
          "type": "uint8"
        },
        {
          "internalType": "uint8",
          "name": "hour",
          "type": "uint8"
        }
      ],
      "name": "toTimestamp",
      "outputs": [
        {
          "internalType": "uint256",
          "name": "timestamp",
          "type": "uint256"
        }
      ],
      "payable": false,
      "stateMutability": "pure",
      "type": "function"
    },
    {
      "constant": true,
      "inputs": [
        {
          "internalType": "uint16",
          "name": "year",
          "type": "uint16"
        },
        {
          "internalType": "uint8",
          "name": "month",
          "type": "uint8"
        },
        {
          "internalType": "uint8",
          "name": "day",
          "type": "uint8"
        }
      ],
      "name": "toTimestamp",
      "outputs": [
        {
          "internalType": "uint256",
          "name": "timestamp",
          "type": "uint256"
        }
      ],
      "payable": false,
      "stateMutability": "pure",
      "type": "function"
    },
    {
      "constant": true,
      "inputs": [
        {
          "internalType": "uint16",
          "name": "year",
          "type": "uint16"
        },
        {
          "internalType": "uint8",
          "name": "month",
          "type": "uint8"
        },
        {
          "internalType": "uint8",
          "name": "day",
          "type": "uint8"
        },
        {
          "internalType": "uint8",
          "name": "hour",
          "type": "uint8"
        },
        {
          "internalType": "uint8",
          "name": "minute",
          "type": "uint8"
        },
        {
          "internalType": "uint8",
          "name": "second",
          "type": "uint8"
        }
      ],
      "name": "toTimestamp",
      "outputs": [
        {
          "internalType": "uint256",
          "name": "timestamp",
          "type": "uint256"
        }
      ],
      "payable": false,
      "stateMutability": "pure",
      "type": "function"
    },
    {
      "constant": false,
      "inputs": [
        {
          "internalType": "address",
          "name": "newOwner",
          "type": "address"
        }
      ],
      "name": "transferOwnership",
      "outputs": [],
      "payable": false,
      "stateMutability": "nonpayable",
      "type": "function"
    },
    {
      "constant": false,
      "inputs": [
        {
          "internalType": "string",
          "name": "_physical_address",
          "type": "string"
        },
        {
          "internalType": "string",
          "name": "_city",
          "type": "string"
        },
        {
          "internalType": "uint256",
          "name": "_zip_code",
          "type": "uint256"
        },
        {
          "internalType": "string",
          "name": "_house_type",
          "type": "string"
        },
        {
          "internalType": "uint256",
          "name": "_rent",
          "type": "uint256"
        },
        {
          "internalType": "uint256",
          "name": "_total_term",
          "type": "uint256"
        },
        {
          "internalType": "uint8",
          "name": "_rent_pay_day",
          "type": "uint8"
        }
      ],
      "name": "addNewContract",
      "outputs": [
        {
          "internalType": "uint256",
          "name": "",
          "type": "uint256"
        }
      ],
      "payable": false,
      "stateMutability": "nonpayable",
      "type": "function"
    },
    {
      "constant": true,
      "inputs": [
        {
          "internalType": "uint256",
          "name": "_contract_id",
          "type": "uint256"
        }
      ],
      "name": "getContractHouseInfo",
      "outputs": [
        {
          "internalType": "string",
          "name": "",
          "type": "string"
        },
        {
          "internalType": "string",
          "name": "",
          "type": "string"
        },
        {
          "internalType": "uint256",
          "name": "",
          "type": "uint256"
        },
        {
          "internalType": "string",
          "name": "",
          "type": "string"
        },
        {
          "internalType": "uint256",
          "name": "",
          "type": "uint256"
        },
        {
          "internalType": "uint256",
          "name": "",
          "type": "uint256"
        }
      ],
      "payable": false,
      "stateMutability": "view",
      "type": "function"
    },
    {
      "constant": false,
      "inputs": [
        {
          "internalType": "address",
          "name": "_tenant",
          "type": "address"
        }
      ],
      "name": "removeTenant",
      "outputs": [],
      "payable": false,
      "stateMutability": "nonpayable",
      "type": "function"
    },
    {
      "constant": false,
      "inputs": [
        {
          "internalType": "string",
          "name": "_name",
          "type": "string"
        },
        {
          "internalType": "string",
          "name": "_email",
          "type": "string"
        },
        {
          "internalType": "uint256",
          "name": "_phone_number",
          "type": "uint256"
        },
        {
          "internalType": "uint256",
          "name": "_contract_id",
          "type": "uint256"
        }
      ],
      "name": "requestLease",
      "outputs": [],
      "payable": false,
      "stateMutability": "nonpayable",
      "type": "function"
    },
    {
      "constant": true,
      "inputs": [
        {
          "internalType": "uint256",
          "name": "_contract_id",
          "type": "uint256"
        }
      ],
      "name": "getContractPendingList",
      "outputs": [
        {
          "internalType": "address[]",
          "name": "",
          "type": "address[]"
        }
      ],
      "payable": false,
      "stateMutability": "view",
      "type": "function"
    },
    {
      "constant": false,
      "inputs": [
        {
          "internalType": "uint256",
          "name": "_contract_id",
          "type": "uint256"
        },
        {
          "internalType": "address",
          "name": "_select_address",
          "type": "address"
        }
      ],
      "name": "selectPendingRequest",
      "outputs": [],
      "payable": false,
      "stateMutability": "nonpayable",
      "type": "function"
    },
    {
      "constant": true,
      "inputs": [
        {
          "internalType": "uint256",
          "name": "_contract_id",
          "type": "uint256"
        }
      ],
      "name": "getCurrentTerm",
      "outputs": [
        {
          "internalType": "uint16",
          "name": "",
          "type": "uint16"
        }
      ],
      "payable": false,
      "stateMutability": "view",
      "type": "function"
    },
    {
      "constant": false,
      "inputs": [
        {
          "internalType": "uint256",
          "name": "_contract_id",
          "type": "uint256"
        }
      ],
      "name": "payRent",
      "outputs": [],
      "payable": true,
      "stateMutability": "payable",
      "type": "function"
    },
    {
      "constant": false,
      "inputs": [
        {
          "internalType": "uint256",
          "name": "_contract_id",
          "type": "uint256"
        }
      ],
      "name": "checkRentPaymentStatus",
      "outputs": [
        {
          "internalType": "uint256",
          "name": "",
          "type": "uint256"
        }
      ],
      "payable": false,
      "stateMutability": "nonpayable",
      "type": "function"
    }
  ],
  "bytecode": "0x60806040523480156200001157600080fd5b50620000226200012460201b60201c565b6000806101000a81548173ffffffffffffffffffffffffffffffffffffffff021916908373ffffffffffffffffffffffffffffffffffffffff1602179055506000809054906101000a900473ffffffffffffffffffffffffffffffffffffffff1673ffffffffffffffffffffffffffffffffffffffff16600073ffffffffffffffffffffffffffffffffffffffff167f8be0079c531659141344cd1fd0a4f28419497f9722a3daafe3b4186f6b6457e060405160405180910390a333600260006101000a81548173ffffffffffffffffffffffffffffffffffffffff021916908373ffffffffffffffffffffffffffffffffffffffff1602179055506200012c565b600033905090565b613e6f806200013c6000396000f3fe60806040526004361061019c5760003560e01c80638aa001fc116100ec578063a6f0e5771161008a578063d9e8843f11610064578063d9e8843f14610e28578063e4d391bc14610e56578063f2fde38b14610ea5578063fa93f88314610ef65761019c565b8063a6f0e57714610d1c578063b199993714610d73578063b238ad0e14610dc25761019c565b80638f32d59b116100c65780638f32d59b14610bad5780639054bdec14610bdc57806392d6631314610c70578063a324ad2414610cc75761019c565b80638aa001fc14610a945780638c8d98a014610ae95780638da5cb5b14610b565761019c565b806362ba9687116101595780636b103e59116101335780636b103e5914610800578063715018a6146109735780637f7918331461098a57806385f8d5c114610a045761019c565b806362ba9687146104ef578063641ea60a1461057657806365c72840146107ab5761019c565b80632d710070146101a15780633e239e1a146101f25780633eddfef714610247578063424d98b6146103e85780634ac1ad78146104435780634d740c0f14610498575b600080fd5b3480156101ad57600080fd5b506101f0600480360360208110156101c457600080fd5b81019080803573ffffffffffffffffffffffffffffffffffffffff169060200190929190505050610f4b565b005b3480156101fe57600080fd5b5061022b6004803603602081101561021557600080fd5b8101908080359060200190929190505050610fdc565b604051808260ff1660ff16815260200191505060405180910390f35b34801561025357600080fd5b506102806004803603602081101561026a57600080fd5b8101908080359060200190929190505050611003565b6040518080602001806020018781526020018060200186815260200185815260200184810384528a818151815260200191508051906020019080838360005b838110156102da5780820151818401526020810190506102bf565b50505050905090810190601f1680156103075780820380516001836020036101000a031916815260200191505b50848103835289818151815260200191508051906020019080838360005b83811015610340578082015181840152602081019050610325565b50505050905090810190601f16801561036d5780820380516001836020036101000a031916815260200191505b50848103825287818151815260200191508051906020019080838360005b838110156103a657808201518184015260208101905061038b565b50505050905090810190601f1680156103d35780820380516001836020036101000a031916815260200191505b50995050505050505050505060405180910390f35b3480156103f457600080fd5b506104416004803603604081101561040b57600080fd5b8101908080359060200190929190803573ffffffffffffffffffffffffffffffffffffffff16906020019092919050505061131c565b005b34801561044f57600080fd5b5061047c6004803603602081101561046657600080fd5b81019080803590602001909291905050506114fe565b604051808260ff1660ff16815260200191505060405180910390f35b3480156104a457600080fd5b506104d1600480360360208110156104bb57600080fd5b8101908080359060200190929190505050611521565b604051808261ffff1661ffff16815260200191505060405180910390f35b3480156104fb57600080fd5b50610560600480360360a081101561051257600080fd5b81019080803561ffff169060200190929190803560ff169060200190929190803560ff169060200190929190803560ff169060200190929190803560ff1690602001909291905050506115b0565b6040518082815260200191505060405180910390f35b34801561058257600080fd5b50610795600480360360e081101561059957600080fd5b81019080803590602001906401000000008111156105b657600080fd5b8201836020820111156105c857600080fd5b803590602001918460018302840111640100000000831117156105ea57600080fd5b91908080601f016020809104026020016040519081016040528093929190818152602001838380828437600081840152601f19601f8201169050808301925050505050505091929192908035906020019064010000000081111561064d57600080fd5b82018360208201111561065f57600080fd5b8035906020019184600183028401116401000000008311171561068157600080fd5b91908080601f016020809104026020016040519081016040528093929190818152602001838380828437600081840152601f19601f82011690508083019250505050505050919291929080359060200190929190803590602001906401000000008111156106ee57600080fd5b82018360208201111561070057600080fd5b8035906020019184600183028401116401000000008311171561072257600080fd5b91908080601f016020809104026020016040519081016040528093929190818152602001838380828437600081840152601f19601f8201169050808301925050505050505091929192908035906020019092919080359060200190929190803560ff1690602001909291905050506115cc565b6040518082815260200191505060405180910390f35b3480156107b757600080fd5b506107e4600480360360208110156107ce57600080fd5b8101908080359060200190929190505050611a3f565b604051808260ff1660ff16815260200191505060405180910390f35b34801561080c57600080fd5b506109716004803603608081101561082357600080fd5b810190808035906020019064010000000081111561084057600080fd5b82018360208201111561085257600080fd5b8035906020019184600183028401116401000000008311171561087457600080fd5b91908080601f016020809104026020016040519081016040528093929190818152602001838380828437600081840152601f19601f820116905080830192505050505050509192919290803590602001906401000000008111156108d757600080fd5b8201836020820111156108e957600080fd5b8035906020019184600183028401116401000000008311171561090b57600080fd5b91908080601f016020809104026020016040519081016040528093929190818152602001838380828437600081840152601f19601f8201169050808301925050505050505091929192908035906020019092919080359060200190929190505050611a55565b005b34801561097f57600080fd5b50610988611c61565b005b34801561099657600080fd5b506109ee600480360360808110156109ad57600080fd5b81019080803561ffff169060200190929190803560ff169060200190929190803560ff169060200190929190803560ff169060200190929190505050611d9a565b6040518082815260200191505060405180910390f35b348015610a1057600080fd5b50610a3d60048036036020811015610a2757600080fd5b8101908080359060200190929190505050611db5565b6040518080602001828103825283818151815260200191508051906020019060200280838360005b83811015610a80578082015181840152602081019050610a65565b505050509050019250505060405180910390f35b348015610aa057600080fd5b50610acd60048036036020811015610ab757600080fd5b8101908080359060200190929190505050611edb565b604051808260ff1660ff16815260200191505060405180910390f35b348015610af557600080fd5b50610b4060048036036060811015610b0c57600080fd5b81019080803561ffff169060200190929190803560ff169060200190929190803560ff169060200190929190505050611eef565b6040518082815260200191505060405180910390f35b348015610b6257600080fd5b50610b6b611f0a565b604051808273ffffffffffffffffffffffffffffffffffffffff1673ffffffffffffffffffffffffffffffffffffffff16815260200191505060405180910390f35b348015610bb957600080fd5b50610bc2611f33565b604051808215151515815260200191505060405180910390f35b348015610be857600080fd5b50610c5a600480360360c0811015610bff57600080fd5b81019080803561ffff169060200190929190803560ff169060200190929190803560ff169060200190929190803560ff169060200190929190803560ff169060200190929190803560ff169060200190929190505050611f91565b6040518082815260200191505060405180910390f35b348015610c7c57600080fd5b50610ca960048036036020811015610c9357600080fd5b810190808035906020019092919050505061221c565b604051808261ffff1661ffff16815260200191505060405180910390f35b348015610cd357600080fd5b50610d0060048036036020811015610cea57600080fd5b81019080803590602001909291905050506122c5565b604051808260ff1660ff16815260200191505060405180910390f35b348015610d2857600080fd5b50610d5960048036036020811015610d3f57600080fd5b81019080803561ffff1690602001909291905050506122db565b604051808215151515815260200191505060405180910390f35b348015610d7f57600080fd5b50610dac60048036036020811015610d9657600080fd5b8101908080359060200190929190505050612350565b6040518082815260200191505060405180910390f35b348015610dce57600080fd5b50610e0c60048036036040811015610de557600080fd5b81019080803560ff169060200190929190803561ffff169060200190929190505050612388565b604051808260ff1660ff16815260200191505060405180910390f35b610e5460048036036020811015610e3e57600080fd5b8101908080359060200190929190505050612454565b005b348015610e6257600080fd5b50610e8f60048036036020811015610e7957600080fd5b8101908080359060200190929190505050612b54565b6040518082815260200191505060405180910390f35b348015610eb157600080fd5b50610ef460048036036020811015610ec857600080fd5b81019080803573ffffffffffffffffffffffffffffffffffffffff1690602001909291905050506131a9565b005b348015610f0257600080fd5b50610f2f60048036036020811015610f1957600080fd5b810190808035906020019092919050505061322f565b604051808260ff1660ff16815260200191505060405180910390f35b610f53611f33565b610fc5576040517f08c379a00000000000000000000000000000000000000000000000000000000081526004018080602001828103825260208152602001807f4f776e61626c653a2063616c6c6572206973206e6f7420746865206f776e657281525060200191505060405180910390fd5b610fd981600161324c90919063ffffffff16565b50565b60006018603c808481610feb57fe5b0481610ff357fe5b0481610ffb57fe5b069050919050565b6060806000606060008061101687613309565b611088576040517f08c379a00000000000000000000000000000000000000000000000000000000081526004018080602001828103825260138152602001807f496e76616c696420436f6e74726163742049440000000000000000000000000081525060200191505060405180910390fd5b611090613aa6565b6003888154811061109d57fe5b9060005260206000209060110201600201604051806080016040529081600082018054600181600116156101000203166002900480601f0160208091040260200160405190810160405280929190818152602001828054600181600116156101000203166002900480156111525780601f1061112757610100808354040283529160200191611152565b820191906000526020600020905b81548152906001019060200180831161113557829003601f168201915b50505050508152602001600182018054600181600116156101000203166002900480601f0160208091040260200160405190810160405280929190818152602001828054600181600116156101000203166002900480156111f45780601f106111c9576101008083540402835291602001916111f4565b820191906000526020600020905b8154815290600101906020018083116111d757829003601f168201915b5050505050815260200160028201548152602001600382018054600181600116156101000203166002900480601f0160208091040260200160405190810160405280929190818152602001828054600181600116156101000203166002900480156112a05780601f10611275576101008083540402835291602001916112a0565b820191906000526020600020905b81548152906001019060200180831161128357829003601f168201915b5050505050815250509050806000015181602001518260400151836060015160038c815481106112cc57fe5b90600052602060002090601102016006015460038d815481106112eb57fe5b9060005260206000209060110201600801548595508494508292509650965096509650965096505091939550919395565b611324611f33565b611396576040517f08c379a00000000000000000000000000000000000000000000000000000000081526004018080602001828103825260208152602001807f4f776e61626c653a2063616c6c6572206973206e6f7420746865206f776e657281525060200191505060405180910390fd5b600160038111156113a357fe5b600383815481106113b057fe5b9060005260206000209060110201600a0160009054906101000a900460ff1660038111156113da57fe5b14611430576040517f08c379a0000000000000000000000000000000000000000000000000000000008152600401808060200182810382526027815260200180613dab6027913960400191505060405180910390fd5b806003838154811061143e57fe5b906000526020600020906011020160010160006101000a81548173ffffffffffffffffffffffffffffffffffffffff021916908373ffffffffffffffffffffffffffffffffffffffff16021790555060026003838154811061149c57fe5b9060005260206000209060110201600a0160006101000a81548160ff021916908360038111156114c857fe5b021790555042600383815481106114db57fe5b9060005260206000209060110201600b01819055506114fa8183613324565b5050565b60006007600462015180848161151057fe5b04018161151957fe5b069050919050565b60008061152d426122c5565b9050600061153a4261221c565b905060006115656003868154811061154e57fe5b9060005260206000209060110201600b01546122c5565b905060006115906003878154811061157957fe5b9060005260206000209060110201600b015461221c565b90508160ff16600c82028560ff16600c8602010301945050505050919050565b60006115c186868686866000611f91565b905095945050505050565b60006115d6611f33565b611648576040517f08c379a00000000000000000000000000000000000000000000000000000000081526004018080602001828103825260208152602001807f4f776e61626c653a2063616c6c6572206973206e6f7420746865206f776e657281525060200191505060405180910390fd5b611650613ace565b60405180608001604052808a815260200189815260200188815260200187815250816040018190525060045481600001818152505061169b600160045461354790919063ffffffff16565b5084816060018181525050838160a001818152505082816080019060ff16908160ff168152505060008160e0019060038111156116d457fe5b908160038111156116e157fe5b81525050600381908060018154018082558091505090600182039060005260206000209060110201600090919290919091506000820151816000015560208201518160010160006101000a81548173ffffffffffffffffffffffffffffffffffffffff021916908373ffffffffffffffffffffffffffffffffffffffff1602179055506040820151816002016000820151816000019080519060200190611789929190613b5f565b5060208201518160010190805190602001906117a6929190613b5f565b506040820151816002015560608201518160030190805190602001906117cd929190613b5f565b5050506060820151816006015560808201518160070160006101000a81548160ff021916908360ff16021790555060a0820151816008015560c0820151816009015560e082015181600a0160006101000a81548160ff0219169083600381111561183357fe5b021790555061010082015181600b015561012082015181600c015561014082015181600d01908051906020019061186b929190613bdf565b5061016082015181600f0160008201518160000155602082015181600101908051906020019061189c929190613b5f565b5050505050507f43f1ae21a29a6c9d44a34c2f193fa24cb531c824a420ffa2cd6296068be1a29b89898989856000015160405180806020018060200186815260200180602001858152602001848103845289818151815260200191508051906020019080838360005b83811015611920578082015181840152602081019050611905565b50505050905090810190601f16801561194d5780820380516001836020036101000a031916815260200191505b50848103835288818151815260200191508051906020019080838360005b8381101561198657808201518184015260208101905061196b565b50505050905090810190601f1680156119b35780820380516001836020036101000a031916815260200191505b50848103825286818151815260200191508051906020019080838360005b838110156119ec5780820151818401526020810190506119d1565b50505050905090810190601f168015611a195780820380516001836020036101000a031916815260200191505b509850505050505050505060405180910390a18060000151915050979650505050505050565b6000611a4a826135cf565b604001519050919050565b611a5e81613309565b611ad0576040517f08c379a00000000000000000000000000000000000000000000000000000000081526004018080602001828103825260138152602001807f496e76616c696420436f6e74726163742049440000000000000000000000000081525060200191505060405180910390fd5b611ad8613c69565b604051806060016040528086815260200185815260200184815250905060038281548110611b0257fe5b9060005260206000209060110201600d013390806001815401808255809150509060018203906000526020600020016000909192909190916101000a81548173ffffffffffffffffffffffffffffffffffffffff021916908373ffffffffffffffffffffffffffffffffffffffff160217905550508060038381548110611b8557fe5b9060005260206000209060110201600e0160003373ffffffffffffffffffffffffffffffffffffffff1673ffffffffffffffffffffffffffffffffffffffff1681526020019081526020016000206000820151816000019080519060200190611bef929190613b5f565b506020820151816001019080519060200190611c0c929190613b5f565b5060408201518160020155905050600160038381548110611c2957fe5b9060005260206000209060110201600a0160006101000a81548160ff02191690836003811115611c5557fe5b02179055505050505050565b611c69611f33565b611cdb576040517f08c379a00000000000000000000000000000000000000000000000000000000081526004018080602001828103825260208152602001807f4f776e61626c653a2063616c6c6572206973206e6f7420746865206f776e657281525060200191505060405180910390fd5b600073ffffffffffffffffffffffffffffffffffffffff166000809054906101000a900473ffffffffffffffffffffffffffffffffffffffff1673ffffffffffffffffffffffffffffffffffffffff167f8be0079c531659141344cd1fd0a4f28419497f9722a3daafe3b4186f6b6457e060405160405180910390a360008060006101000a81548173ffffffffffffffffffffffffffffffffffffffff021916908373ffffffffffffffffffffffffffffffffffffffff160217905550565b6000611dab85858585600080611f91565b9050949350505050565b6060611dbf611f33565b611e31576040517f08c379a00000000000000000000000000000000000000000000000000000000081526004018080602001828103825260208152602001807f4f776e61626c653a2063616c6c6572206973206e6f7420746865206f776e657281525060200191505060405180910390fd5b60038281548110611e3e57fe5b9060005260206000209060110201600d01805480602002602001604051908101604052809291908181526020018280548015611ecf57602002820191906000526020600020905b8160009054906101000a900473ffffffffffffffffffffffffffffffffffffffff1673ffffffffffffffffffffffffffffffffffffffff1681526020019060010190808311611e85575b50505050509050919050565b6000603c8281611ee757fe5b069050919050565b6000611f018484846000806000611f91565b90509392505050565b60008060009054906101000a900473ffffffffffffffffffffffffffffffffffffffff16905090565b60008060009054906101000a900473ffffffffffffffffffffffffffffffffffffffff1673ffffffffffffffffffffffffffffffffffffffff16611f7561376c565b73ffffffffffffffffffffffffffffffffffffffff1614905090565b6000806107b290505b8761ffff168161ffff161015611fdd57611fb3816122db565b15611fc6576301e2850082019150611fd0565b6301e13380820191505b8080600101915050611f9a565b611fe5613c8a565b601f816000600c8110611ff457fe5b602002019060ff16908160ff168152505061200e896122db565b1561203857601d816001600c811061202257fe5b602002019060ff16908160ff1681525050612059565b601c816001600c811061204757fe5b602002019060ff16908160ff16815250505b601f816002600c811061206857fe5b602002019060ff16908160ff1681525050601e816003600c811061208857fe5b602002019060ff16908160ff1681525050601f816004600c81106120a857fe5b602002019060ff16908160ff1681525050601e816005600c81106120c857fe5b602002019060ff16908160ff1681525050601f816006600c81106120e857fe5b602002019060ff16908160ff1681525050601f816007600c811061210857fe5b602002019060ff16908160ff1681525050601e816008600c811061212857fe5b602002019060ff16908160ff1681525050601f816009600c811061214857fe5b602002019060ff16908160ff1681525050601e81600a600c811061216857fe5b602002019060ff16908160ff1681525050601f81600b600c811061218857fe5b602002019060ff16908160ff1681525050600191505b8760ff168261ffff1610156121de57806001830361ffff16600c81106121c057fe5b602002015160ff16620151800283019250818060010192505061219e565b6001870360ff166201518002830192508560ff16610e1002830192508460ff16603c02830192508360ff168301925082925050509695505050505050565b600080600090506000806301e13380858161223357fe5b046107b261ffff1601915061224d6107b261ffff16612350565b61225a8361ffff16612350565b039050806301e285000283019250806107b2830361ffff16036301e1338002830192505b848311156122ba57612292600183036122db565b156122a5576301e28500830392506122af565b6301e13380830392505b60018203915061227e565b819350505050919050565b60006122d0826135cf565b602001519050919050565b60008060048361ffff16816122ec57fe5b0661ffff16146122ff576000905061234b565b600060648361ffff168161230f57fe5b0661ffff1614612322576001905061234b565b60006101908361ffff168161233357fe5b0661ffff1614612346576000905061234b565b600190505b919050565b600080829050600181039050610190818161236757fe5b046064828161237257fe5b046004838161237d57fe5b040301915050919050565b600060018360ff16148061239f575060038360ff16145b806123ad575060058360ff16145b806123bb575060078360ff16145b806123c9575060088360ff16145b806123d75750600a8360ff16145b806123e55750600c8360ff16145b156123f357601f905061244e565b60048360ff161480612408575060068360ff16145b80612416575060098360ff16145b806124245750600b8360ff16145b1561243257601e905061244e565b61243b826122db565b1561244957601d905061244e565b601c90505b92915050565b61246833600161377490919063ffffffff16565b6124da576040517f08c379a00000000000000000000000000000000000000000000000000000000081526004018080602001828103825260198152602001807f446f6573204e6f7420486176652054656e616e7420526f6c650000000000000081525060200191505060405180910390fd5b6124e381613309565b612555576040517f08c379a00000000000000000000000000000000000000000000000000000000081526004018080602001828103825260138152602001807f496e76616c696420436f6e74726163742049440000000000000000000000000081525060200191505060405180910390fd5b61255f8134613852565b6125d1576040517f08c379a00000000000000000000000000000000000000000000000000000000081526004018080602001828103825260168152602001807f496e76616c6964205061796d656e7420416d6f756e740000000000000000000081525060200191505060405180910390fd5b60003073ffffffffffffffffffffffffffffffffffffffff16634d740c0f836040518263ffffffff1660e01b81526004018082815260200191505060206040518083038186803b15801561262457600080fd5b505afa158015612638573d6000803e3d6000fd5b505050506040513d602081101561264e57600080fd5b81019080805190602001909291905050509050612669613ace565b6003838154811061267657fe5b906000526020600020906011020160405180610180016040529081600082015481526020016001820160009054906101000a900473ffffffffffffffffffffffffffffffffffffffff1673ffffffffffffffffffffffffffffffffffffffff1673ffffffffffffffffffffffffffffffffffffffff16815260200160028201604051806080016040529081600082018054600181600116156101000203166002900480601f0160208091040260200160405190810160405280929190818152602001828054600181600116156101000203166002900480156127995780601f1061276e57610100808354040283529160200191612799565b820191906000526020600020905b81548152906001019060200180831161277c57829003601f168201915b50505050508152602001600182018054600181600116156101000203166002900480601f01602080910402602001604051908101604052809291908181526020018280546001816001161561010002031660029004801561283b5780601f106128105761010080835404028352916020019161283b565b820191906000526020600020905b81548152906001019060200180831161281e57829003601f168201915b5050505050815260200160028201548152602001600382018054600181600116156101000203166002900480601f0160208091040260200160405190810160405280929190818152602001828054600181600116156101000203166002900480156128e75780601f106128bc576101008083540402835291602001916128e7565b820191906000526020600020905b8154815290600101906020018083116128ca57829003601f168201915b5050505050815250508152602001600682015481526020016007820160009054906101000a900460ff1660ff1660ff1681526020016008820154815260200160098201548152602001600a820160009054906101000a900460ff16600381111561294d57fe5b600381111561295857fe5b8152602001600b8201548152602001600c8201548152602001600d82018054806020026020016040519081016040528092919081815260200182805480156129f557602002820191906000526020600020905b8160009054906101000a900473ffffffffffffffffffffffffffffffffffffffff1673ffffffffffffffffffffffffffffffffffffffff16815260200190600101908083116129ab575b50505050508152602001600f820160405180604001604052908160008201548152602001600182018054600181600116156101000203166002900480601f016020809104026020016040519081016040528092919081815260200182805460018160011615610100020316600290048015612ab15780601f10612a8657610100808354040283529160200191612ab1565b820191906000526020600020905b815481529060010190602001808311612a9457829003601f168201915b5050505050815250508152505090508161ffff168161012001511015612af057612aea600182610120015161354790919063ffffffff16565b50612b4f565b3373ffffffffffffffffffffffffffffffffffffffff166108fc3073ffffffffffffffffffffffffffffffffffffffff16319081150290604051600060405180830381858888f19350505050158015612b4d573d6000803e3d6000fd5b505b505050565b6000612b5e611f33565b612bd0576040517f08c379a00000000000000000000000000000000000000000000000000000000081526004018080602001828103825260208152602001807f4f776e61626c653a2063616c6c6572206973206e6f7420746865206f776e657281525060200191505060405180910390fd5b612bd982613309565b612c4b576040517f08c379a00000000000000000000000000000000000000000000000000000000081526004018080602001828103825260138152602001807f496e76616c696420436f6e74726163742049440000000000000000000000000081525060200191505060405180910390fd5b612c53613ace565b60038381548110612c6057fe5b906000526020600020906011020160405180610180016040529081600082015481526020016001820160009054906101000a900473ffffffffffffffffffffffffffffffffffffffff1673ffffffffffffffffffffffffffffffffffffffff1673ffffffffffffffffffffffffffffffffffffffff16815260200160028201604051806080016040529081600082018054600181600116156101000203166002900480601f016020809104026020016040519081016040528092919081815260200182805460018160011615610100020316600290048015612d835780601f10612d5857610100808354040283529160200191612d83565b820191906000526020600020905b815481529060010190602001808311612d6657829003601f168201915b50505050508152602001600182018054600181600116156101000203166002900480601f016020809104026020016040519081016040528092919081815260200182805460018160011615610100020316600290048015612e255780601f10612dfa57610100808354040283529160200191612e25565b820191906000526020600020905b815481529060010190602001808311612e0857829003601f168201915b5050505050815260200160028201548152602001600382018054600181600116156101000203166002900480601f016020809104026020016040519081016040528092919081815260200182805460018160011615610100020316600290048015612ed15780601f10612ea657610100808354040283529160200191612ed1565b820191906000526020600020905b815481529060010190602001808311612eb457829003601f168201915b5050505050815250508152602001600682015481526020016007820160009054906101000a900460ff1660ff1660ff1681526020016008820154815260200160098201548152602001600a820160009054906101000a900460ff166003811115612f3757fe5b6003811115612f4257fe5b8152602001600b8201548152602001600c8201548152602001600d8201805480602002602001604051908101604052809291908181526020018280548015612fdf57602002820191906000526020600020905b8160009054906101000a900473ffffffffffffffffffffffffffffffffffffffff1673ffffffffffffffffffffffffffffffffffffffff1681526020019060010190808311612f95575b50505050508152602001600f820160405180604001604052908160008201548152602001600182018054600181600116156101000203166002900480601f01602080910402602001604051908101604052809291908181526020018280546001816001161561010002031660029004801561309b5780601f106130705761010080835404028352916020019161309b565b820191906000526020600020905b81548152906001019060200180831161307e57829003601f168201915b50505050508152505081525050905060003073ffffffffffffffffffffffffffffffffffffffff16634d740c0f856040518263ffffffff1660e01b81526004018082815260200191505060206040518083038186803b1580156130fd57600080fd5b505afa158015613111573d6000803e3d6000fd5b505050506040513d602081101561312757600080fd5b8101908080519060200190929190505050905061315260028360c0015161354790919063ffffffff16565b8261012001518261ffff1603111561318c5760038260e00190600381111561317657fe5b9081600381111561318357fe5b815250506131a1565b8161012001518161ffff1603925050506131a4565b50505b919050565b6131b1611f33565b613223576040517f08c379a00000000000000000000000000000000000000000000000000000000081526004018080602001828103825260208152602001807f4f776e61626c653a2063616c6c6572206973206e6f7420746865206f776e657281525060200191505060405180910390fd5b61322c81613887565b50565b6000603c80838161323c57fe5b048161324457fe5b069050919050565b6132568282613774565b6132ab576040517f08c379a0000000000000000000000000000000000000000000000000000000008152600401808060200182810382526021815260200180613df86021913960400191505060405180910390fd5b60008260000160008373ffffffffffffffffffffffffffffffffffffffff1673ffffffffffffffffffffffffffffffffffffffff16815260200190815260200160002060006101000a81548160ff0219169083151502179055505050565b600080821015801561331d57506004548211155b9050919050565b61332c611f33565b61339e576040517f08c379a00000000000000000000000000000000000000000000000000000000081526004018080602001828103825260208152602001807f4f776e61626c653a2063616c6c6572206973206e6f7420746865206f776e657281525060200191505060405180910390fd5b6133a781613309565b613419576040517f08c379a00000000000000000000000000000000000000000000000000000000081526004018080602001828103825260138152602001807f496e76616c696420436f6e74726163742049440000000000000000000000000081525060200191505060405180910390fd5b600260009054906101000a900473ffffffffffffffffffffffffffffffffffffffff1673ffffffffffffffffffffffffffffffffffffffff168273ffffffffffffffffffffffffffffffffffffffff1614156134dd576040517f08c379a00000000000000000000000000000000000000000000000000000000081526004018080602001828103825260138152602001807f43616e6e6f742041646420596f757273656c660000000000000000000000000081525060200191505060405180910390fd5b6134f18260016139cb90919063ffffffff16565b816007600083815260200190815260200160002060006101000a81548173ffffffffffffffffffffffffffffffffffffffff021916908373ffffffffffffffffffffffffffffffffffffffff1602179055505050565b6000808284019050838110156135c5576040517f08c379a000000000000000000000000000000000000000000000000000000000815260040180806020018281038252601b8152602001807f536166654d6174683a206164646974696f6e206f766572666c6f77000000000081525060200191505060405180910390fd5b8091505092915050565b6135d7613cad565b60008090506000806135e88561221c565b846000019061ffff16908161ffff168152505061360a6107b261ffff16612350565b61361b856000015161ffff16612350565b039150816301e285000283019250816107b285600001510361ffff16036301e1338002830192506000600191505b600c8260ff161161369f57613662828660000151612388565b60ff166201518002905085848201111561368d5781856020019060ff16908160ff168152505061369f565b80840193508180600101925050613649565b600191505b6136b685602001518660000151612388565b60ff168260ff16116136fb578584620151800111156136e65781856040019060ff16908160ff16815250506136fb565b620151808401935081806001019250506136a4565b61370486610fdc565b856060019060ff16908160ff168152505061371e8661322f565b856080019060ff16908160ff168152505061373886611edb565b8560a0019060ff16908160ff1681525050613752866114fe565b8560c0019060ff16908160ff168152505050505050919050565b600033905090565b60008073ffffffffffffffffffffffffffffffffffffffff168273ffffffffffffffffffffffffffffffffffffffff1614156137fb576040517f08c379a0000000000000000000000000000000000000000000000000000000008152600401808060200182810382526022815260200180613e196022913960400191505060405180910390fd5b8260000160008373ffffffffffffffffffffffffffffffffffffffff1673ffffffffffffffffffffffffffffffffffffffff16815260200190815260200160002060009054906101000a900460ff16905092915050565b6000670de0b6b3a76400006003848154811061386a57fe5b906000526020600020906011020160060154028214905092915050565b600073ffffffffffffffffffffffffffffffffffffffff168173ffffffffffffffffffffffffffffffffffffffff16141561390d576040517f08c379a0000000000000000000000000000000000000000000000000000000008152600401808060200182810382526026815260200180613dd26026913960400191505060405180910390fd5b8073ffffffffffffffffffffffffffffffffffffffff166000809054906101000a900473ffffffffffffffffffffffffffffffffffffffff1673ffffffffffffffffffffffffffffffffffffffff167f8be0079c531659141344cd1fd0a4f28419497f9722a3daafe3b4186f6b6457e060405160405180910390a3806000806101000a81548173ffffffffffffffffffffffffffffffffffffffff021916908373ffffffffffffffffffffffffffffffffffffffff16021790555050565b6139d58282613774565b15613a48576040517f08c379a000000000000000000000000000000000000000000000000000000000815260040180806020018281038252601f8152602001807f526f6c65733a206163636f756e7420616c72656164792068617320726f6c650081525060200191505060405180910390fd5b60018260000160008373ffffffffffffffffffffffffffffffffffffffff1673ffffffffffffffffffffffffffffffffffffffff16815260200190815260200160002060006101000a81548160ff0219169083151502179055505050565b6040518060800160405280606081526020016060815260200160008152602001606081525090565b60405180610180016040528060008152602001600073ffffffffffffffffffffffffffffffffffffffff168152602001613b06613d00565b815260200160008152602001600060ff168152602001600081526020016000815260200160006003811115613b3757fe5b8152602001600081526020016000815260200160608152602001613b59613d28565b81525090565b828054600181600116156101000203166002900490600052602060002090601f016020900481019282601f10613ba057805160ff1916838001178555613bce565b82800160010185558215613bce579182015b82811115613bcd578251825591602001919060010190613bb2565b5b509050613bdb9190613d42565b5090565b828054828255906000526020600020908101928215613c58579160200282015b82811115613c575782518260006101000a81548173ffffffffffffffffffffffffffffffffffffffff021916908373ffffffffffffffffffffffffffffffffffffffff16021790555091602001919060010190613bff565b5b509050613c659190613d67565b5090565b60405180606001604052806060815260200160608152602001600081525090565b604051806101800160405280600c90602082028038833980820191505090505090565b6040518060e00160405280600061ffff168152602001600060ff168152602001600060ff168152602001600060ff168152602001600060ff168152602001600060ff168152602001600060ff1681525090565b6040518060800160405280606081526020016060815260200160008152602001606081525090565b604051806040016040528060008152602001606081525090565b613d6491905b80821115613d60576000816000905550600101613d48565b5090565b90565b613da791905b80821115613da357600081816101000a81549073ffffffffffffffffffffffffffffffffffffffff021916905550600101613d6d565b5090565b9056fe436f6e747261637420446f6573204e6f7420486176652050656e64696e672052657175657374734f776e61626c653a206e6577206f776e657220697320746865207a65726f2061646472657373526f6c65733a206163636f756e7420646f6573206e6f74206861766520726f6c65526f6c65733a206163636f756e7420697320746865207a65726f2061646472657373a265627a7a723158209a0aca1bba91f2ce0a2be6361318490fd9635a38791dd2fac006eb1d1f2a4c6264736f6c634300050c0032",
  "source": "pragma solidity ^0.5.0;\nimport \"../node_modules/@openzeppelin/contracts/access/Roles.sol\";\nimport \"../node_modules/@openzeppelin/contracts/ownership/Ownable.sol\";\nimport \"../node_modules/@openzeppelin/contracts/token/ERC721/ERC721Full.sol\";\nimport \"./DateTime.sol\";\n///import \"../node_modules/@openzeppelin/contracts/token/ERC20/ERC20Detailed.sol\";\n\n/**\n* @title A house leasing contract\n* @author Jason Liu\n* @notice \n* @dev \n*/\n\ncontract HouseContract is Ownable,DateTime{\n    using Roles for Roles.Role;\n    //prevent overflow c = a + b becomes c = a.add(b)\n    using SafeMath for uint256;\n    Roles.Role private tenants;\n    address private landlord;\n\n    struct HouseInfo{\n        string physical_address;\n        string city;\n        uint256 zip_code;\n        //house_type indicate studio, two bedrooms, etc\n        string house_type;\n    }\n    struct Termination{\n        uint256 timestamp;\n        string reason;\n    }\n    struct RequestInfo{\n        string name;\n        string email;\n        uint256 phone_number;\n    }\n    // defines contract state\n    enum State {Created, Pending, Started, Terminated}\n    // main lease contract\n    struct LeaseContract{\n        uint256 id;\n        address tenant;\n        HouseInfo house_info; //basic information about this leasing object\n\n        //Contract Metadata\n        uint256 rent; // rent per month\n        uint8 rent_pay_day; // the day that needs to pay rent, for example 5 means you need to pay rent on 9/5 for September\n        uint256 total_term; //total number of term for this contract, unit for term is month\n        uint256 deposit; //deposit in unit of month, ex: two months deposit\n        State state;\n        uint256 start_timestamp; // when the contract actually starts\n        uint256 paid_rent_count; //array that records rent payments\n\n        //Pending\n        address[] pending_list; //list of address for all request accounts\n        mapping(address => RequestInfo) pending_list_info; //personal info for each request\n\n        //Termination\n        Termination termination; //provide terminate time and reason\n    }\n    //list of all contracts\n    LeaseContract[] contracts;\n    // highest valid tokenID or contractID\n    uint256 internal maxID;\n    // number of contracts\n    uint256 private contractNumber;\n    //A mapping of terminated contracts, checks if a contract is valid\n    mapping(uint256 => bool) internal burned;\n    //A mapping of approved address for each contract\n    mapping(uint256 => address) internal allowance;\n\n    //A nested mapping for managing \"operator\"\n    mapping(address => mapping(address => bool)) internal authorised;\n\n    //Events\n    event ContractCreated(string physical_address, string city, uint256 zip_code, string house_type, uint256 id);\n    event NewLeaseRequest(string name, string email, uint256 phone_number, uint256 contract_id);\n    event ContractStarted(uint256 contract_id, address select_address);\n    constructor() public{\n        landlord = msg.sender;\n    }\n    /**\n     * @dev check if one month payment is not less than require rent\n     */\n    function isValidAmount(uint256 _contractId, uint256 _payment) internal view returns(bool){\n        return _payment == contracts[_contractId].rent * 1 ether;\n    }\n    /**\n     * @dev check if a contract, its id should be valid and is not burned\n     */\n    function isValidContract(uint256 _contractId) internal view returns(bool){\n        //return _contractId != 0 && _contractId <= maxID && !burned[_contractId];\n        return _contractId >= 0 && _contractId <= maxID;\n    }\n    /**\n     * @dev create a new contract with leasing details for people to view\n     */\n    function addNewContract(string memory _physical_address, string memory _city, uint256 _zip_code, string memory _house_type,\n                            uint256 _rent, uint256 _total_term, uint8 _rent_pay_day) public onlyOwner returns(uint256){\n        LeaseContract memory newcontract;\n        newcontract.house_info = HouseInfo({physical_address:_physical_address, city:_city, zip_code:_zip_code, house_type:_house_type });\n        newcontract.id = maxID;\n        maxID.add(1);\n        newcontract.rent = _rent;\n        newcontract.total_term = _total_term;\n        newcontract.rent_pay_day = _rent_pay_day;\n        newcontract.state = State.Created;\n        contracts.push(newcontract);\n        emit ContractCreated(_physical_address,_city,_zip_code,_house_type,newcontract.id);\n        return newcontract.id;\n    }\n    /**\n     * @dev return house info, rent, and term for specific contract\n     */\n    function getContractHouseInfo(uint256 _contract_id) public view returns(string memory, string memory, uint256, string memory\n                                                                           ,uint256, uint256){\n        require(isValidContract(_contract_id),'Invalid Contract ID');\n        HouseInfo memory house_info = contracts[_contract_id].house_info;\n        return (house_info.physical_address, house_info.city, house_info.zip_code, house_info.house_type, contracts[_contract_id].rent,\n                contracts[_contract_id].total_term);\n    }\n    /**\n     * @dev add a new tenant and map him to a corresponding contract\n     */\n    function addNewTenant(address _newtenant, uint256 _contract_id) internal onlyOwner{\n        require(isValidContract(_contract_id),'Invalid Contract ID');\n        require(_newtenant != landlord,'Cannot Add Yourself');\n        tenants.add(_newtenant);\n        allowance[_contract_id] = _newtenant;\n    }\n     /**\n     * @dev remove a tenant and delete his allowance to a contract\n     */\n     function removeTenant(address _tenant)  public onlyOwner{\n         tenants.remove(_tenant);\n     }\n    /**\n     * @dev request from tenant who wants to rent a house and desire to start the leasing process\n     */\n    function requestLease(string memory _name, string memory _email, uint256 _phone_number, uint256 _contract_id /**uint256 nonce,\n                         bytes memory signature*/) public {\n        //amount is in amountGet terms\n        //bytes32 hash = keccak256(abi.encodePacked(this, _name, _email, _phone_number, _contract_id, nonce));\n        require(isValidContract(_contract_id),'Invalid Contract ID');\n        //require(ecrecover(keccak256(\"\\x19Ethereum Signed Message:\\n32\", hash),v,r,s) == user, 'invalid signature');\n        RequestInfo memory new_request = RequestInfo(_name,_email,_phone_number);\n        contracts[_contract_id].pending_list.push(msg.sender);\n        contracts[_contract_id].pending_list_info[msg.sender] = new_request;\n        contracts[_contract_id].state = State.Pending;\n        //now wait for the landlord to verify request, contact with tenant and authorize access to the contract\n    }\n    /**\n     * @dev obtain list of pending id for a pending contract\n     */\n    function getContractPendingList(uint256 _contract_id) public view onlyOwner returns(address[] memory){\n        return contracts[_contract_id].pending_list;\n    }\n     /**\n     * @dev select one pending request to start the contract\n     */\n     function selectPendingRequest(uint256 _contract_id, address _select_address) public onlyOwner{\n        require(contracts[_contract_id].state == State.Pending, \"Contract Does Not Have Pending Requests\");\n        contracts[_contract_id].tenant = _select_address;\n        contracts[_contract_id].state = State.Started;\n        contracts[_contract_id].start_timestamp = now;\n        addNewTenant(_select_address,_contract_id);\n\n     }\n     /**\n     * @dev return current term of the given contract\n     */\n     function getCurrentTerm(uint256 _contract_id)public view returns(uint16){\n        uint8 current_month = getMonth(now);\n        uint16 current_year = getYear(now);\n        uint8 started_month = getMonth(contracts[_contract_id].start_timestamp);\n        uint16 started_year = getYear(contracts[_contract_id].start_timestamp);\n        return current_year * 12 + current_month - started_year * 12 + started_month;\n     }\n     /**\n     * @dev pay rent to the contract\n     */\n     function payRent(uint256 _contract_id) public payable{\n        require(tenants.has(msg.sender),\"Does Not Have Tenant Role\");\n        require(isValidContract(_contract_id),'Invalid Contract ID');\n        require(isValidAmount(_contract_id,msg.value),'Invalid Payment Amount');\n        uint16 current_term = this.getCurrentTerm(_contract_id);\n        LeaseContract memory target_contract = contracts[_contract_id];\n        if(target_contract.paid_rent_count < current_term){\n            target_contract.paid_rent_count.add(1);\n        }\n        else{\n            msg.sender.transfer(address(this).balance);\n        }\n     }\n     /**\n     * @dev check the rent payment status and terminate if neccessary\n     */\n     function checkRentPaymentStatus(uint256 _contract_id) public onlyOwner returns(uint256){\n        require(isValidContract(_contract_id),'Invalid Contract ID');\n        LeaseContract memory target_contract = contracts[_contract_id];\n        uint16 current_term = this.getCurrentTerm(_contract_id);\n        //if this tenant owe rent in an amount that exceed his deposit, the contract is terminated\n        if(current_term - target_contract.paid_rent_count > target_contract.deposit.add(2)){\n            target_contract.state = State.Terminated;\n        }\n        else{\n            return(current_term-target_contract.paid_rent_count);\n        }\n     }\n\n\n}",
  "sourcePath": "/Users/liuyuantai/Desktop/Blockchain/smarthousing/contracts/HouseContract.sol",
  "compiler": {
    "name": "solc",
    "version": "0.5.12+commit.7709ece9.Emscripten.clang"
  },
  "schemaVersion": "3.0.19",
  "updatedAt": "2019-12-04T07:10:07.074Z",
  "devdoc": {
    "author": "Jason Liu",
    "methods": {
      "addNewContract(string,string,uint256,string,uint256,uint256,uint8)": {
        "details": "create a new contract with leasing details for people to view"
      },
      "checkRentPaymentStatus(uint256)": {
        "details": "check the rent payment status and terminate if neccessary"
      },
      "getContractHouseInfo(uint256)": {
        "details": "return house info, rent, and term for specific contract"
      },
      "getContractPendingList(uint256)": {
        "details": "obtain list of pending id for a pending contract"
      },
      "getCurrentTerm(uint256)": {
        "details": "return current term of the given contract"
      },
      "isOwner()": {
        "details": "Returns true if the caller is the current owner."
      },
      "owner()": {
        "details": "Returns the address of the current owner."
      },
      "payRent(uint256)": {
        "details": "pay rent to the contract"
      },
      "removeTenant(address)": {
        "details": "remove a tenant and delete his allowance to a contract"
      },
      "renounceOwnership()": {
        "details": "Leaves the contract without owner. It will not be possible to call `onlyOwner` functions anymore. Can only be called by the current owner.     * NOTE: Renouncing ownership will leave the contract without an owner, thereby removing any functionality that is only available to the owner."
      },
      "requestLease(string,string,uint256,uint256)": {
        "details": "request from tenant who wants to rent a house and desire to start the leasing process"
      },
      "selectPendingRequest(uint256,address)": {
        "details": "select one pending request to start the contract"
      },
      "transferOwnership(address)": {
        "details": "Transfers ownership of the contract to a new account (`newOwner`). Can only be called by the current owner."
      }
    },
    "title": "A house leasing contract"
  },
  "userdoc": {
    "methods": {}
  }
}