{
  "contractName": "SmartHousing",
  "abi": [
    {
      "inputs": [
        {
          "internalType": "string",
          "name": "_landlord_name",
          "type": "string"
        },
        {
          "internalType": "string",
          "name": "_landlord_hashed_pid",
          "type": "string"
        }
      ],
      "payable": false,
      "stateMutability": "nonpayable",
      "type": "constructor"
    },
    {
      "anonymous": false,
      "inputs": [
        {
          "indexed": false,
          "internalType": "string",
          "name": "physical_address",
          "type": "string"
        },
        {
          "indexed": false,
          "internalType": "string",
          "name": "city",
          "type": "string"
        },
        {
          "indexed": false,
          "internalType": "uint256",
          "name": "zip_code",
          "type": "uint256"
        },
        {
          "indexed": false,
          "internalType": "string",
          "name": "house_type",
          "type": "string"
        },
        {
          "indexed": false,
          "internalType": "uint256",
          "name": "id",
          "type": "uint256"
        }
      ],
      "name": "ContractCreated",
      "type": "event"
    },
    {
      "anonymous": false,
      "inputs": [
        {
          "indexed": false,
          "internalType": "uint256",
          "name": "contract_id",
          "type": "uint256"
        },
        {
          "indexed": false,
          "internalType": "address",
          "name": "select_address",
          "type": "address"
        }
      ],
      "name": "ContractStarted",
      "type": "event"
    },
    {
      "anonymous": false,
      "inputs": [
        {
          "indexed": false,
          "internalType": "string",
          "name": "name",
          "type": "string"
        },
        {
          "indexed": false,
          "internalType": "string",
          "name": "email",
          "type": "string"
        },
        {
          "indexed": false,
          "internalType": "uint256",
          "name": "phone_number",
          "type": "uint256"
        },
        {
          "indexed": false,
          "internalType": "uint256",
          "name": "contract_id",
          "type": "uint256"
        }
      ],
      "name": "NewLeaseRequest",
      "type": "event"
    },
    {
      "anonymous": false,
      "inputs": [
        {
          "indexed": true,
          "internalType": "address",
          "name": "previousOwner",
          "type": "address"
        },
        {
          "indexed": true,
          "internalType": "address",
          "name": "newOwner",
          "type": "address"
        }
      ],
      "name": "OwnershipTransferred",
      "type": "event"
    },
    {
      "constant": true,
      "inputs": [
        {
          "internalType": "uint256",
          "name": "timestamp",
          "type": "uint256"
        }
      ],
      "name": "getDay",
      "outputs": [
        {
          "internalType": "uint8",
          "name": "",
          "type": "uint8"
        }
      ],
      "payable": false,
      "stateMutability": "pure",
      "type": "function"
    },
    {
      "constant": true,
      "inputs": [
        {
          "internalType": "uint8",
          "name": "month",
          "type": "uint8"
        },
        {
          "internalType": "uint16",
          "name": "year",
          "type": "uint16"
        }
      ],
      "name": "getDaysInMonth",
      "outputs": [
        {
          "internalType": "uint8",
          "name": "",
          "type": "uint8"
        }
      ],
      "payable": false,
      "stateMutability": "pure",
      "type": "function"
    },
    {
      "constant": true,
      "inputs": [
        {
          "internalType": "uint256",
          "name": "timestamp",
          "type": "uint256"
        }
      ],
      "name": "getHour",
      "outputs": [
        {
          "internalType": "uint8",
          "name": "",
          "type": "uint8"
        }
      ],
      "payable": false,
      "stateMutability": "pure",
      "type": "function"
    },
    {
      "constant": true,
      "inputs": [
        {
          "internalType": "uint256",
          "name": "timestamp",
          "type": "uint256"
        }
      ],
      "name": "getMinute",
      "outputs": [
        {
          "internalType": "uint8",
          "name": "",
          "type": "uint8"
        }
      ],
      "payable": false,
      "stateMutability": "pure",
      "type": "function"
    },
    {
      "constant": true,
      "inputs": [
        {
          "internalType": "uint256",
          "name": "timestamp",
          "type": "uint256"
        }
      ],
      "name": "getMonth",
      "outputs": [
        {
          "internalType": "uint8",
          "name": "",
          "type": "uint8"
        }
      ],
      "payable": false,
      "stateMutability": "pure",
      "type": "function"
    },
    {
      "constant": true,
      "inputs": [
        {
          "internalType": "uint256",
          "name": "timestamp",
          "type": "uint256"
        }
      ],
      "name": "getSecond",
      "outputs": [
        {
          "internalType": "uint8",
          "name": "",
          "type": "uint8"
        }
      ],
      "payable": false,
      "stateMutability": "pure",
      "type": "function"
    },
    {
      "constant": true,
      "inputs": [
        {
          "internalType": "uint256",
          "name": "timestamp",
          "type": "uint256"
        }
      ],
      "name": "getWeekday",
      "outputs": [
        {
          "internalType": "uint8",
          "name": "",
          "type": "uint8"
        }
      ],
      "payable": false,
      "stateMutability": "pure",
      "type": "function"
    },
    {
      "constant": true,
      "inputs": [
        {
          "internalType": "uint256",
          "name": "timestamp",
          "type": "uint256"
        }
      ],
      "name": "getYear",
      "outputs": [
        {
          "internalType": "uint16",
          "name": "",
          "type": "uint16"
        }
      ],
      "payable": false,
      "stateMutability": "pure",
      "type": "function"
    },
    {
      "constant": true,
      "inputs": [
        {
          "internalType": "uint16",
          "name": "year",
          "type": "uint16"
        }
      ],
      "name": "isLeapYear",
      "outputs": [
        {
          "internalType": "bool",
          "name": "",
          "type": "bool"
        }
      ],
      "payable": false,
      "stateMutability": "pure",
      "type": "function"
    },
    {
      "constant": true,
      "inputs": [],
      "name": "isOwner",
      "outputs": [
        {
          "internalType": "bool",
          "name": "",
          "type": "bool"
        }
      ],
      "payable": false,
      "stateMutability": "view",
      "type": "function"
    },
    {
      "constant": true,
      "inputs": [
        {
          "internalType": "uint256",
          "name": "year",
          "type": "uint256"
        }
      ],
      "name": "leapYearsBefore",
      "outputs": [
        {
          "internalType": "uint256",
          "name": "",
          "type": "uint256"
        }
      ],
      "payable": false,
      "stateMutability": "pure",
      "type": "function"
    },
    {
      "constant": true,
      "inputs": [],
      "name": "owner",
      "outputs": [
        {
          "internalType": "address",
          "name": "",
          "type": "address"
        }
      ],
      "payable": false,
      "stateMutability": "view",
      "type": "function"
    },
    {
      "constant": false,
      "inputs": [],
      "name": "renounceOwnership",
      "outputs": [],
      "payable": false,
      "stateMutability": "nonpayable",
      "type": "function"
    },
    {
      "constant": true,
      "inputs": [
        {
          "internalType": "uint16",
          "name": "year",
          "type": "uint16"
        },
        {
          "internalType": "uint8",
          "name": "month",
          "type": "uint8"
        },
        {
          "internalType": "uint8",
          "name": "day",
          "type": "uint8"
        },
        {
          "internalType": "uint8",
          "name": "hour",
          "type": "uint8"
        },
        {
          "internalType": "uint8",
          "name": "minute",
          "type": "uint8"
        }
      ],
      "name": "toTimestamp",
      "outputs": [
        {
          "internalType": "uint256",
          "name": "timestamp",
          "type": "uint256"
        }
      ],
      "payable": false,
      "stateMutability": "pure",
      "type": "function"
    },
    {
      "constant": true,
      "inputs": [
        {
          "internalType": "uint16",
          "name": "year",
          "type": "uint16"
        },
        {
          "internalType": "uint8",
          "name": "month",
          "type": "uint8"
        },
        {
          "internalType": "uint8",
          "name": "day",
          "type": "uint8"
        },
        {
          "internalType": "uint8",
          "name": "hour",
          "type": "uint8"
        }
      ],
      "name": "toTimestamp",
      "outputs": [
        {
          "internalType": "uint256",
          "name": "timestamp",
          "type": "uint256"
        }
      ],
      "payable": false,
      "stateMutability": "pure",
      "type": "function"
    },
    {
      "constant": true,
      "inputs": [
        {
          "internalType": "uint16",
          "name": "year",
          "type": "uint16"
        },
        {
          "internalType": "uint8",
          "name": "month",
          "type": "uint8"
        },
        {
          "internalType": "uint8",
          "name": "day",
          "type": "uint8"
        }
      ],
      "name": "toTimestamp",
      "outputs": [
        {
          "internalType": "uint256",
          "name": "timestamp",
          "type": "uint256"
        }
      ],
      "payable": false,
      "stateMutability": "pure",
      "type": "function"
    },
    {
      "constant": true,
      "inputs": [
        {
          "internalType": "uint16",
          "name": "year",
          "type": "uint16"
        },
        {
          "internalType": "uint8",
          "name": "month",
          "type": "uint8"
        },
        {
          "internalType": "uint8",
          "name": "day",
          "type": "uint8"
        },
        {
          "internalType": "uint8",
          "name": "hour",
          "type": "uint8"
        },
        {
          "internalType": "uint8",
          "name": "minute",
          "type": "uint8"
        },
        {
          "internalType": "uint8",
          "name": "second",
          "type": "uint8"
        }
      ],
      "name": "toTimestamp",
      "outputs": [
        {
          "internalType": "uint256",
          "name": "timestamp",
          "type": "uint256"
        }
      ],
      "payable": false,
      "stateMutability": "pure",
      "type": "function"
    },
    {
      "constant": false,
      "inputs": [
        {
          "internalType": "address",
          "name": "newOwner",
          "type": "address"
        }
      ],
      "name": "transferOwnership",
      "outputs": [],
      "payable": false,
      "stateMutability": "nonpayable",
      "type": "function"
    },
    {
      "constant": false,
      "inputs": [
        {
          "internalType": "address",
          "name": "_tenant_address",
          "type": "address"
        },
        {
          "internalType": "string",
          "name": "_physical_address",
          "type": "string"
        },
        {
          "internalType": "string",
          "name": "_city",
          "type": "string"
        },
        {
          "internalType": "uint256",
          "name": "_zip_code",
          "type": "uint256"
        },
        {
          "internalType": "string",
          "name": "_house_type",
          "type": "string"
        },
        {
          "internalType": "uint256",
          "name": "_rent",
          "type": "uint256"
        },
        {
          "internalType": "uint256",
          "name": "_utility_bill",
          "type": "uint256"
        },
        {
          "internalType": "uint256",
          "name": "_total_term",
          "type": "uint256"
        },
        {
          "internalType": "uint8",
          "name": "_rent_pay_day",
          "type": "uint8"
        },
        {
          "internalType": "uint256",
          "name": "_deposit",
          "type": "uint256"
        },
        {
          "internalType": "string",
          "name": "_repair_obligation",
          "type": "string"
        }
      ],
      "name": "addNewContract",
      "outputs": [
        {
          "internalType": "uint256",
          "name": "",
          "type": "uint256"
        }
      ],
      "payable": false,
      "stateMutability": "nonpayable",
      "type": "function"
    },
    {
      "constant": false,
      "inputs": [
        {
          "internalType": "string",
          "name": "_name",
          "type": "string"
        },
        {
          "internalType": "string",
          "name": "_hashed_pid",
          "type": "string"
        },
        {
          "internalType": "uint256",
          "name": "_contract_id",
          "type": "uint256"
        }
      ],
      "name": "signContract",
      "outputs": [],
      "payable": false,
      "stateMutability": "nonpayable",
      "type": "function"
    },
    {
      "constant": false,
      "inputs": [
        {
          "internalType": "address",
          "name": "_tenant",
          "type": "address"
        }
      ],
      "name": "removeTenant",
      "outputs": [],
      "payable": false,
      "stateMutability": "nonpayable",
      "type": "function"
    },
    {
      "constant": true,
      "inputs": [
        {
          "internalType": "uint256",
          "name": "_contract_id",
          "type": "uint256"
        }
      ],
      "name": "getContractHouseInfo",
      "outputs": [
        {
          "internalType": "string",
          "name": "",
          "type": "string"
        },
        {
          "internalType": "string",
          "name": "",
          "type": "string"
        },
        {
          "internalType": "uint256",
          "name": "",
          "type": "uint256"
        },
        {
          "internalType": "string",
          "name": "",
          "type": "string"
        },
        {
          "internalType": "uint256",
          "name": "",
          "type": "uint256"
        },
        {
          "internalType": "uint256",
          "name": "",
          "type": "uint256"
        }
      ],
      "payable": false,
      "stateMutability": "view",
      "type": "function"
    },
    {
      "constant": true,
      "inputs": [
        {
          "internalType": "uint256",
          "name": "_contract_id",
          "type": "uint256"
        }
      ],
      "name": "getContractStatus",
      "outputs": [
        {
          "internalType": "enum SmartHousing.State",
          "name": "",
          "type": "uint8"
        }
      ],
      "payable": false,
      "stateMutability": "view",
      "type": "function"
    },
    {
      "constant": true,
      "inputs": [
        {
          "internalType": "uint256",
          "name": "_contract_id",
          "type": "uint256"
        }
      ],
      "name": "getContractTenant",
      "outputs": [
        {
          "internalType": "string",
          "name": "",
          "type": "string"
        },
        {
          "internalType": "string",
          "name": "",
          "type": "string"
        },
        {
          "internalType": "address",
          "name": "",
          "type": "address"
        }
      ],
      "payable": false,
      "stateMutability": "view",
      "type": "function"
    },
    {
      "constant": true,
      "inputs": [
        {
          "internalType": "uint256",
          "name": "_contract_id",
          "type": "uint256"
        }
      ],
      "name": "getCurrentTerm",
      "outputs": [
        {
          "internalType": "uint16",
          "name": "",
          "type": "uint16"
        }
      ],
      "payable": false,
      "stateMutability": "view",
      "type": "function"
    },
    {
      "constant": false,
      "inputs": [
        {
          "internalType": "uint256",
          "name": "_contract_id",
          "type": "uint256"
        }
      ],
      "name": "payRent",
      "outputs": [],
      "payable": true,
      "stateMutability": "payable",
      "type": "function"
    },
    {
      "constant": false,
      "inputs": [
        {
          "internalType": "uint256",
          "name": "_contract_id",
          "type": "uint256"
        }
      ],
      "name": "updateContractStatus",
      "outputs": [
        {
          "internalType": "uint256",
          "name": "",
          "type": "uint256"
        }
      ],
      "payable": false,
      "stateMutability": "nonpayable",
      "type": "function"
    }
  ],
  "bytecode": "0x60806040523480156200001157600080fd5b506040516200537938038062005379833981810160405260408110156200003757600080fd5b81019080805160405193929190846401000000008211156200005857600080fd5b838201915060208201858111156200006f57600080fd5b82518660018202830111640100000000821117156200008d57600080fd5b8083526020830192505050908051906020019080838360005b83811015620000c3578082015181840152602081019050620000a6565b50505050905090810190601f168015620000f15780820380516001836020036101000a031916815260200191505b50604052602001805160405193929190846401000000008211156200011557600080fd5b838201915060208201858111156200012c57600080fd5b82518660018202830111640100000000821117156200014a57600080fd5b8083526020830192505050908051906020019080838360005b838110156200018057808201518184015260208101905062000163565b50505050905090810190601f168015620001ae5780820380516001836020036101000a031916815260200191505b50604052505050620001c56200030460201b60201c565b6000806101000a81548173ffffffffffffffffffffffffffffffffffffffff021916908373ffffffffffffffffffffffffffffffffffffffff1602179055506000809054906101000a900473ffffffffffffffffffffffffffffffffffffffff1673ffffffffffffffffffffffffffffffffffffffff16600073ffffffffffffffffffffffffffffffffffffffff167f8be0079c531659141344cd1fd0a4f28419497f9722a3daafe3b4186f6b6457e060405160405180910390a333600460020160006101000a81548173ffffffffffffffffffffffffffffffffffffffff021916908373ffffffffffffffffffffffffffffffffffffffff1602179055508160046000019080519060200190620002df9291906200030c565b508060046001019080519060200190620002fb9291906200030c565b505050620003bb565b600033905090565b828054600181600116156101000203166002900490600052602060002090601f016020900481019282601f106200034f57805160ff191683800117855562000380565b8280016001018555821562000380579182015b828111156200037f57825182559160200191906001019062000362565b5b5090506200038f919062000393565b5090565b620003b891905b80821115620003b45760008160009055506001016200039a565b5090565b90565b614fae80620003cb6000396000f3fe60806040526004361061019c5760003560e01c80638d8ac6fb116100ec578063a6f0e5771161008a578063c6253f4711610064578063c6253f4714610e95578063d9e8843f14610ffe578063f2fde38b1461102c578063fa93f8831461107d5761019c565b8063a6f0e57714610d89578063b199993714610de0578063b238ad0e14610e2f5761019c565b80639054bdec116100c65780639054bdec14610bfa57806392d6631314610c8e578063998aa46514610ce5578063a324ad2414610d345761019c565b80638d8ac6fb14610a215780638da5cb5b14610b745780638f32d59b14610bcb5761019c565b80634d740c0f11610159578063715018a611610133578063715018a6146108ce5780637f791833146108e55780638aa001fc1461095f5780638c8d98a0146109b45761019c565b80634d740c0f1461079b57806362ba9687146107f257806365c72840146108795761019c565b806317b18458146101a15780632d710070146101fe5780632f4fa8701461024f5780633e239e1a146105505780633eddfef7146105a55780634ac1ad7814610746575b600080fd5b3480156101ad57600080fd5b506101da600480360360208110156101c457600080fd5b81019080803590602001909291905050506110d2565b604051808260028111156101ea57fe5b60ff16815260200191505060405180910390f35b34801561020a57600080fd5b5061024d6004803603602081101561022157600080fd5b81019080803573ffffffffffffffffffffffffffffffffffffffff169060200190929190505050611107565b005b34801561025b57600080fd5b5061053a600480360361016081101561027357600080fd5b81019080803573ffffffffffffffffffffffffffffffffffffffff169060200190929190803590602001906401000000008111156102b057600080fd5b8201836020820111156102c257600080fd5b803590602001918460018302840111640100000000831117156102e457600080fd5b91908080601f016020809104026020016040519081016040528093929190818152602001838380828437600081840152601f19601f8201169050808301925050505050505091929192908035906020019064010000000081111561034757600080fd5b82018360208201111561035957600080fd5b8035906020019184600183028401116401000000008311171561037b57600080fd5b91908080601f016020809104026020016040519081016040528093929190818152602001838380828437600081840152601f19601f82011690508083019250505050505050919291929080359060200190929190803590602001906401000000008111156103e857600080fd5b8201836020820111156103fa57600080fd5b8035906020019184600183028401116401000000008311171561041c57600080fd5b91908080601f016020809104026020016040519081016040528093929190818152602001838380828437600081840152601f19601f820116905080830192505050505050509192919290803590602001909291908035906020019092919080359060200190929190803560ff16906020019092919080359060200190929190803590602001906401000000008111156104b457600080fd5b8201836020820111156104c657600080fd5b803590602001918460018302840111640100000000831117156104e857600080fd5b91908080601f016020809104026020016040519081016040528093929190818152602001838380828437600081840152601f19601f820116905080830192505050505050509192919290505050611198565b6040518082815260200191505060405180910390f35b34801561055c57600080fd5b506105896004803603602081101561057357600080fd5b8101908080359060200190929190505050611911565b604051808260ff1660ff16815260200191505060405180910390f35b3480156105b157600080fd5b506105de600480360360208110156105c857600080fd5b8101908080359060200190929190505050611938565b6040518080602001806020018781526020018060200186815260200185815260200184810384528a818151815260200191508051906020019080838360005b8381101561063857808201518184015260208101905061061d565b50505050905090810190601f1680156106655780820380516001836020036101000a031916815260200191505b50848103835289818151815260200191508051906020019080838360005b8381101561069e578082015181840152602081019050610683565b50505050905090810190601f1680156106cb5780820380516001836020036101000a031916815260200191505b50848103825287818151815260200191508051906020019080838360005b838110156107045780820151818401526020810190506106e9565b50505050905090810190601f1680156107315780820380516001836020036101000a031916815260200191505b50995050505050505050505060405180910390f35b34801561075257600080fd5b5061077f6004803603602081101561076957600080fd5b8101908080359060200190929190505050611c51565b604051808260ff1660ff16815260200191505060405180910390f35b3480156107a757600080fd5b506107d4600480360360208110156107be57600080fd5b8101908080359060200190929190505050611c74565b604051808261ffff1661ffff16815260200191505060405180910390f35b3480156107fe57600080fd5b50610863600480360360a081101561081557600080fd5b81019080803561ffff169060200190929190803560ff169060200190929190803560ff169060200190929190803560ff169060200190929190803560ff169060200190929190505050611d03565b6040518082815260200191505060405180910390f35b34801561088557600080fd5b506108b26004803603602081101561089c57600080fd5b8101908080359060200190929190505050611d1f565b604051808260ff1660ff16815260200191505060405180910390f35b3480156108da57600080fd5b506108e3611d35565b005b3480156108f157600080fd5b506109496004803603608081101561090857600080fd5b81019080803561ffff169060200190929190803560ff169060200190929190803560ff169060200190929190803560ff169060200190929190505050611e6e565b6040518082815260200191505060405180910390f35b34801561096b57600080fd5b506109986004803603602081101561098257600080fd5b8101908080359060200190929190505050611e89565b604051808260ff1660ff16815260200191505060405180910390f35b3480156109c057600080fd5b50610a0b600480360360608110156109d757600080fd5b81019080803561ffff169060200190929190803560ff169060200190929190803560ff169060200190929190505050611e9d565b6040518082815260200191505060405180910390f35b348015610a2d57600080fd5b50610a5a60048036036020811015610a4457600080fd5b8101908080359060200190929190505050611eb8565b6040518080602001806020018473ffffffffffffffffffffffffffffffffffffffff1673ffffffffffffffffffffffffffffffffffffffff168152602001838103835286818151815260200191508051906020019080838360005b83811015610ad0578082015181840152602081019050610ab5565b50505050905090810190601f168015610afd5780820380516001836020036101000a031916815260200191505b50838103825285818151815260200191508051906020019080838360005b83811015610b36578082015181840152602081019050610b1b565b50505050905090810190601f168015610b635780820380516001836020036101000a031916815260200191505b509550505050505060405180910390f35b348015610b8057600080fd5b50610b89612086565b604051808273ffffffffffffffffffffffffffffffffffffffff1673ffffffffffffffffffffffffffffffffffffffff16815260200191505060405180910390f35b348015610bd757600080fd5b50610be06120af565b604051808215151515815260200191505060405180910390f35b348015610c0657600080fd5b50610c78600480360360c0811015610c1d57600080fd5b81019080803561ffff169060200190929190803560ff169060200190929190803560ff169060200190929190803560ff169060200190929190803560ff169060200190929190803560ff16906020019092919050505061210d565b6040518082815260200191505060405180910390f35b348015610c9a57600080fd5b50610cc760048036036020811015610cb157600080fd5b8101908080359060200190929190505050612398565b604051808261ffff1661ffff16815260200191505060405180910390f35b348015610cf157600080fd5b50610d1e60048036036020811015610d0857600080fd5b8101908080359060200190929190505050612441565b6040518082815260200191505060405180910390f35b348015610d4057600080fd5b50610d6d60048036036020811015610d5757600080fd5b8101908080359060200190929190505050612dc0565b604051808260ff1660ff16815260200191505060405180910390f35b348015610d9557600080fd5b50610dc660048036036020811015610dac57600080fd5b81019080803561ffff169060200190929190505050612dd6565b604051808215151515815260200191505060405180910390f35b348015610dec57600080fd5b50610e1960048036036020811015610e0357600080fd5b8101908080359060200190929190505050612e4b565b6040518082815260200191505060405180910390f35b348015610e3b57600080fd5b50610e7960048036036040811015610e5257600080fd5b81019080803560ff169060200190929190803561ffff169060200190929190505050612e83565b604051808260ff1660ff16815260200191505060405180910390f35b348015610ea157600080fd5b50610ffc60048036036060811015610eb857600080fd5b8101908080359060200190640100000000811115610ed557600080fd5b820183602082011115610ee757600080fd5b80359060200191846001830284011164010000000083111715610f0957600080fd5b91908080601f016020809104026020016040519081016040528093929190818152602001838380828437600081840152601f19601f82011690508083019250505050505050919291929080359060200190640100000000811115610f6c57600080fd5b820183602082011115610f7e57600080fd5b80359060200191846001830284011164010000000083111715610fa057600080fd5b91908080601f016020809104026020016040519081016040528093929190818152602001838380828437600081840152601f19601f82011690508083019250505050505050919291929080359060200190929190505050612f4f565b005b61102a6004803603602081101561101457600080fd5b8101908080359060200190929190505050613235565b005b34801561103857600080fd5b5061107b6004803603602081101561104f57600080fd5b81019080803573ffffffffffffffffffffffffffffffffffffffff169060200190929190505050613c59565b005b34801561108957600080fd5b506110b6600480360360208110156110a057600080fd5b8101908080359060200190929190505050613cdf565b604051808260ff1660ff16815260200191505060405180910390f35b6000600382815481106110e157fe5b906000526020600020906016020160100160009054906101000a900460ff169050919050565b61110f6120af565b611181576040517f08c379a00000000000000000000000000000000000000000000000000000000081526004018080602001828103825260208152602001807f4f776e61626c653a2063616c6c6572206973206e6f7420746865206f776e657281525060200191505060405180910390fd5b611195816001613cfc90919063ffffffff16565b50565b60006111a26120af565b611214576040517f08c379a00000000000000000000000000000000000000000000000000000000081526004018080602001828103825260208152602001807f4f776e61626c653a2063616c6c6572206973206e6f7420746865206f776e657281525060200191505060405180910390fd5b61121c614c51565b6004604051806060016040529081600082018054600181600116156101000203166002900480601f0160208091040260200160405190810160405280929190818152602001828054600181600116156101000203166002900480156112c25780601f10611297576101008083540402835291602001916112c2565b820191906000526020600020905b8154815290600101906020018083116112a557829003601f168201915b50505050508152602001600182018054600181600116156101000203166002900480601f0160208091040260200160405190810160405280929190818152602001828054600181600116156101000203166002900480156113645780601f1061133957610100808354040283529160200191611364565b820191906000526020600020905b81548152906001019060200180831161134757829003601f168201915b505050505081526020016002820160009054906101000a900473ffffffffffffffffffffffffffffffffffffffff1673ffffffffffffffffffffffffffffffffffffffff1673ffffffffffffffffffffffffffffffffffffffff1681525050816020018190525060405180608001604052808d81526020018c81526020018b81526020018a81525081606001819052506007548160000181815250508c600a60008360000151815260200190815260200160002060006101000a81548173ffffffffffffffffffffffffffffffffffffffff021916908373ffffffffffffffffffffffffffffffffffffffff16021790555061146c6001600754613db990919063ffffffff16565b5087816080018181525050868160a0018181525050858160e0018181525050848160c0019060ff16908160ff1681525050838161010001818152505082816101800181905250600081610120019060028111156114c557fe5b908160028111156114d257fe5b8152505060038190806001815401808255809150509060018203906000526020600020906016020160009091929091909150600082015181600001556020820151816001016000820151816000019080519060200190611533929190614ce6565b506020820151816001019080519060200190611550929190614ce6565b5060408201518160020160006101000a81548173ffffffffffffffffffffffffffffffffffffffff021916908373ffffffffffffffffffffffffffffffffffffffff160217905550505060408201518160040160008201518160000190805190602001906115bf929190614ce6565b5060208201518160010190805190602001906115dc929190614ce6565b5060408201518160020160006101000a81548173ffffffffffffffffffffffffffffffffffffffff021916908373ffffffffffffffffffffffffffffffffffffffff1602179055505050606082015181600701600082015181600001908051906020019061164b929190614ce6565b506020820151816001019080519060200190611668929190614ce6565b5060408201518160020155606082015181600301908051906020019061168f929190614ce6565b505050608082015181600b015560a082015181600c015560c082015181600d0160006101000a81548160ff021916908360ff16021790555060e082015181600e015561010082015181600f01556101208201518160100160006101000a81548160ff0219169083600281111561170157fe5b021790555061014082015181601101556101608201518160120155610180820151816013019080519060200190611739929190614ce6565b506101a08201518160140160008201518160000155602082015181600101908051906020019061176a929190614ce6565b5050505050507f43f1ae21a29a6c9d44a34c2f193fa24cb531c824a420ffa2cd6296068be1a29b8c8c8c8c856000015160405180806020018060200186815260200180602001858152602001848103845289818151815260200191508051906020019080838360005b838110156117ee5780820151818401526020810190506117d3565b50505050905090810190601f16801561181b5780820380516001836020036101000a031916815260200191505b50848103835288818151815260200191508051906020019080838360005b83811015611854578082015181840152602081019050611839565b50505050905090810190601f1680156118815780820380516001836020036101000a031916815260200191505b50848103825286818151815260200191508051906020019080838360005b838110156118ba57808201518184015260208101905061189f565b50505050905090810190601f1680156118e75780820380516001836020036101000a031916815260200191505b509850505050505050505060405180910390a180600001519150509b9a5050505050505050505050565b60006018603c80848161192057fe5b048161192857fe5b048161193057fe5b069050919050565b6060806000606060008061194b87613e41565b6119bd576040517f08c379a00000000000000000000000000000000000000000000000000000000081526004018080602001828103825260138152602001807f496e76616c696420436f6e74726163742049440000000000000000000000000081525060200191505060405180910390fd5b6119c5614d66565b600388815481106119d257fe5b9060005260206000209060160201600701604051806080016040529081600082018054600181600116156101000203166002900480601f016020809104026020016040519081016040528092919081815260200182805460018160011615610100020316600290048015611a875780601f10611a5c57610100808354040283529160200191611a87565b820191906000526020600020905b815481529060010190602001808311611a6a57829003601f168201915b50505050508152602001600182018054600181600116156101000203166002900480601f016020809104026020016040519081016040528092919081815260200182805460018160011615610100020316600290048015611b295780601f10611afe57610100808354040283529160200191611b29565b820191906000526020600020905b815481529060010190602001808311611b0c57829003601f168201915b5050505050815260200160028201548152602001600382018054600181600116156101000203166002900480601f016020809104026020016040519081016040528092919081815260200182805460018160011615610100020316600290048015611bd55780601f10611baa57610100808354040283529160200191611bd5565b820191906000526020600020905b815481529060010190602001808311611bb857829003601f168201915b5050505050815250509050806000015181602001518260400151836060015160038c81548110611c0157fe5b9060005260206000209060160201600b015460038d81548110611c2057fe5b9060005260206000209060160201600e01548595508494508292509650965096509650965096505091939550919395565b600060076004620151808481611c6357fe5b040181611c6c57fe5b069050919050565b600080611c8042612dc0565b90506000611c8d42612398565b90506000611cb860038681548110611ca157fe5b906000526020600020906016020160110154612dc0565b90506000611ce360038781548110611ccc57fe5b906000526020600020906016020160110154612398565b90508160ff16600c82028560ff16600c8602010301945050505050919050565b6000611d148686868686600061210d565b905095945050505050565b6000611d2a82613e86565b604001519050919050565b611d3d6120af565b611daf576040517f08c379a00000000000000000000000000000000000000000000000000000000081526004018080602001828103825260208152602001807f4f776e61626c653a2063616c6c6572206973206e6f7420746865206f776e657281525060200191505060405180910390fd5b600073ffffffffffffffffffffffffffffffffffffffff166000809054906101000a900473ffffffffffffffffffffffffffffffffffffffff1673ffffffffffffffffffffffffffffffffffffffff167f8be0079c531659141344cd1fd0a4f28419497f9722a3daafe3b4186f6b6457e060405160405180910390a360008060006101000a81548173ffffffffffffffffffffffffffffffffffffffff021916908373ffffffffffffffffffffffffffffffffffffffff160217905550565b6000611e7f8585858560008061210d565b9050949350505050565b6000603c8281611e9557fe5b069050919050565b6000611eaf848484600080600061210d565b90509392505050565b606080600060038481548110611eca57fe5b906000526020600020906016020160040160000160038581548110611eeb57fe5b906000526020600020906016020160040160010160038681548110611f0c57fe5b906000526020600020906016020160040160020160009054906101000a900473ffffffffffffffffffffffffffffffffffffffff16828054600181600116156101000203166002900480601f016020809104026020016040519081016040528092919081815260200182805460018160011615610100020316600290048015611fd65780601f10611fab57610100808354040283529160200191611fd6565b820191906000526020600020905b815481529060010190602001808311611fb957829003601f168201915b50505050509250818054600181600116156101000203166002900480601f0160208091040260200160405190810160405280929190818152602001828054600181600116156101000203166002900480156120725780601f1061204757610100808354040283529160200191612072565b820191906000526020600020905b81548152906001019060200180831161205557829003601f168201915b505050505091509250925092509193909250565b60008060009054906101000a900473ffffffffffffffffffffffffffffffffffffffff16905090565b60008060009054906101000a900473ffffffffffffffffffffffffffffffffffffffff1673ffffffffffffffffffffffffffffffffffffffff166120f1614023565b73ffffffffffffffffffffffffffffffffffffffff1614905090565b6000806107b290505b8761ffff168161ffff1610156121595761212f81612dd6565b15612142576301e285008201915061214c565b6301e13380820191505b8080600101915050612116565b612161614d8e565b601f816000600c811061217057fe5b602002019060ff16908160ff168152505061218a89612dd6565b156121b457601d816001600c811061219e57fe5b602002019060ff16908160ff16815250506121d5565b601c816001600c81106121c357fe5b602002019060ff16908160ff16815250505b601f816002600c81106121e457fe5b602002019060ff16908160ff1681525050601e816003600c811061220457fe5b602002019060ff16908160ff1681525050601f816004600c811061222457fe5b602002019060ff16908160ff1681525050601e816005600c811061224457fe5b602002019060ff16908160ff1681525050601f816006600c811061226457fe5b602002019060ff16908160ff1681525050601f816007600c811061228457fe5b602002019060ff16908160ff1681525050601e816008600c81106122a457fe5b602002019060ff16908160ff1681525050601f816009600c81106122c457fe5b602002019060ff16908160ff1681525050601e81600a600c81106122e457fe5b602002019060ff16908160ff1681525050601f81600b600c811061230457fe5b602002019060ff16908160ff1681525050600191505b8760ff168261ffff16101561235a57806001830361ffff16600c811061233c57fe5b602002015160ff16620151800283019250818060010192505061231a565b6001870360ff166201518002830192508560ff16610e1002830192508460ff16603c02830192508360ff168301925082925050509695505050505050565b600080600090506000806301e1338085816123af57fe5b046107b261ffff160191506123c96107b261ffff16612e4b565b6123d68361ffff16612e4b565b039050806301e285000283019250806107b2830361ffff16036301e1338002830192505b848311156124365761240e60018303612dd6565b15612421576301e285008303925061242b565b6301e13380830392505b6001820391506123fa565b819350505050919050565b600061244b6120af565b6124bd576040517f08c379a00000000000000000000000000000000000000000000000000000000081526004018080602001828103825260208152602001807f4f776e61626c653a2063616c6c6572206973206e6f7420746865206f776e657281525060200191505060405180910390fd5b6124c682613e41565b612538576040517f08c379a00000000000000000000000000000000000000000000000000000000081526004018080602001828103825260138152602001807f496e76616c696420436f6e74726163742049440000000000000000000000000081525060200191505060405180910390fd5b612540614c51565b6003838154811061254d57fe5b9060005260206000209060160201604051806101c00160405290816000820154815260200160018201604051806060016040529081600082018054600181600116156101000203166002900480601f01602080910402602001604051908101604052809291908181526020018280546001816001161561010002031660029004801561261a5780601f106125ef5761010080835404028352916020019161261a565b820191906000526020600020905b8154815290600101906020018083116125fd57829003601f168201915b50505050508152602001600182018054600181600116156101000203166002900480601f0160208091040260200160405190810160405280929190818152602001828054600181600116156101000203166002900480156126bc5780601f10612691576101008083540402835291602001916126bc565b820191906000526020600020905b81548152906001019060200180831161269f57829003601f168201915b505050505081526020016002820160009054906101000a900473ffffffffffffffffffffffffffffffffffffffff1673ffffffffffffffffffffffffffffffffffffffff1673ffffffffffffffffffffffffffffffffffffffff1681525050815260200160048201604051806060016040529081600082018054600181600116156101000203166002900480601f0160208091040260200160405190810160405280929190818152602001828054600181600116156101000203166002900480156127c85780601f1061279d576101008083540402835291602001916127c8565b820191906000526020600020905b8154815290600101906020018083116127ab57829003601f168201915b50505050508152602001600182018054600181600116156101000203166002900480601f01602080910402602001604051908101604052809291908181526020018280546001816001161561010002031660029004801561286a5780601f1061283f5761010080835404028352916020019161286a565b820191906000526020600020905b81548152906001019060200180831161284d57829003601f168201915b505050505081526020016002820160009054906101000a900473ffffffffffffffffffffffffffffffffffffffff1673ffffffffffffffffffffffffffffffffffffffff1673ffffffffffffffffffffffffffffffffffffffff1681525050815260200160078201604051806080016040529081600082018054600181600116156101000203166002900480601f0160208091040260200160405190810160405280929190818152602001828054600181600116156101000203166002900480156129765780601f1061294b57610100808354040283529160200191612976565b820191906000526020600020905b81548152906001019060200180831161295957829003601f168201915b50505050508152602001600182018054600181600116156101000203166002900480601f016020809104026020016040519081016040528092919081815260200182805460018160011615610100020316600290048015612a185780601f106129ed57610100808354040283529160200191612a18565b820191906000526020600020905b8154815290600101906020018083116129fb57829003601f168201915b5050505050815260200160028201548152602001600382018054600181600116156101000203166002900480601f016020809104026020016040519081016040528092919081815260200182805460018160011615610100020316600290048015612ac45780601f10612a9957610100808354040283529160200191612ac4565b820191906000526020600020905b815481529060010190602001808311612aa757829003601f168201915b5050505050815250508152602001600b8201548152602001600c8201548152602001600d820160009054906101000a900460ff1660ff1660ff168152602001600e8201548152602001600f82015481526020016010820160009054906101000a900460ff166002811115612b3457fe5b6002811115612b3f57fe5b81526020016011820154815260200160128201548152602001601382018054600181600116156101000203166002900480601f016020809104026020016040519081016040528092919081815260200182805460018160011615610100020316600290048015612bf05780601f10612bc557610100808354040283529160200191612bf0565b820191906000526020600020905b815481529060010190602001808311612bd357829003601f168201915b505050505081526020016014820160405180604001604052908160008201548152602001600182018054600181600116156101000203166002900480601f016020809104026020016040519081016040528092919081815260200182805460018160011615610100020316600290048015612cac5780601f10612c8157610100808354040283529160200191612cac565b820191906000526020600020905b815481529060010190602001808311612c8f57829003601f168201915b50505050508152505081525050905060003073ffffffffffffffffffffffffffffffffffffffff16634d740c0f856040518263ffffffff1660e01b81526004018082815260200191505060206040518083038186803b158015612d0e57600080fd5b505afa158015612d22573d6000803e3d6000fd5b505050506040513d6020811015612d3857600080fd5b81019080805190602001909291905050509050612d646002836101000151613db990919063ffffffff16565b8261016001518261ffff16031115612d8457612d7f8461402b565b612db8565b8160e001518161ffff161115612da257612d9d8461402b565b612db7565b8161016001518161ffff160392505050612dbb565b5b50505b919050565b6000612dcb82613e86565b602001519050919050565b60008060048361ffff1681612de757fe5b0661ffff1614612dfa5760009050612e46565b600060648361ffff1681612e0a57fe5b0661ffff1614612e1d5760019050612e46565b60006101908361ffff1681612e2e57fe5b0661ffff1614612e415760009050612e46565b600190505b919050565b6000808290506001810390506101908181612e6257fe5b0460648281612e6d57fe5b0460048381612e7857fe5b040301915050919050565b600060018360ff161480612e9a575060038360ff16145b80612ea8575060058360ff16145b80612eb6575060078360ff16145b80612ec4575060088360ff16145b80612ed25750600a8360ff16145b80612ee05750600c8360ff16145b15612eee57601f9050612f49565b60048360ff161480612f03575060068360ff16145b80612f11575060098360ff16145b80612f1f5750600b8360ff16145b15612f2d57601e9050612f49565b612f3682612dd6565b15612f4457601d9050612f49565b601c90505b92915050565b612f5881613e41565b612fca576040517f08c379a00000000000000000000000000000000000000000000000000000000081526004018080602001828103825260138152602001807f496e76616c696420436f6e74726163742049440000000000000000000000000081525060200191505060405180910390fd5b612fd481336148a5565b613046576040517f08c379a00000000000000000000000000000000000000000000000000000000081526004018080602001828103825260158152602001807f4e6f74205065726d697474656420546f205369676e000000000000000000000081525060200191505060405180910390fd5b6000600281111561305357fe5b6003828154811061306057fe5b906000526020600020906016020160100160009054906101000a900460ff16600281111561308a57fe5b146130fd576040517f08c379a00000000000000000000000000000000000000000000000000000000081526004018080602001828103825260148152602001807f4e6f742041742050656e64696e6720537461746500000000000000000000000081525060200191505060405180910390fd5b613105614db1565b60405180606001604052808581526020018481526020013373ffffffffffffffffffffffffffffffffffffffff16815250905061314c33600161491f90919063ffffffff16565b806003838154811061315a57fe5b90600052602060002090601602016004016000820151816000019080519060200190613187929190614ce6565b5060208201518160010190805190602001906131a4929190614ce6565b5060408201518160020160006101000a81548173ffffffffffffffffffffffffffffffffffffffff021916908373ffffffffffffffffffffffffffffffffffffffff1602179055509050506001600383815481106131fe57fe5b906000526020600020906016020160100160006101000a81548160ff0219169083600281111561322a57fe5b021790555050505050565b6132493360016149fa90919063ffffffff16565b6132bb576040517f08c379a00000000000000000000000000000000000000000000000000000000081526004018080602001828103825260198152602001807f446f6573204e6f7420486176652054656e616e7420526f6c650000000000000081525060200191505060405180910390fd5b6132c481613e41565b613336576040517f08c379a00000000000000000000000000000000000000000000000000000000081526004018080602001828103825260138152602001807f496e76616c696420436f6e74726163742049440000000000000000000000000081525060200191505060405180910390fd5b6133408134614ad8565b6133b2576040517f08c379a00000000000000000000000000000000000000000000000000000000081526004018080602001828103825260168152602001807f496e76616c6964205061796d656e7420416d6f756e740000000000000000000081525060200191505060405180910390fd5b60003073ffffffffffffffffffffffffffffffffffffffff16634d740c0f836040518263ffffffff1660e01b81526004018082815260200191505060206040518083038186803b15801561340557600080fd5b505afa158015613419573d6000803e3d6000fd5b505050506040513d602081101561342f57600080fd5b8101908080519060200190929190505050905061344a614c51565b6003838154811061345757fe5b9060005260206000209060160201604051806101c00160405290816000820154815260200160018201604051806060016040529081600082018054600181600116156101000203166002900480601f0160208091040260200160405190810160405280929190818152602001828054600181600116156101000203166002900480156135245780601f106134f957610100808354040283529160200191613524565b820191906000526020600020905b81548152906001019060200180831161350757829003601f168201915b50505050508152602001600182018054600181600116156101000203166002900480601f0160208091040260200160405190810160405280929190818152602001828054600181600116156101000203166002900480156135c65780601f1061359b576101008083540402835291602001916135c6565b820191906000526020600020905b8154815290600101906020018083116135a957829003601f168201915b505050505081526020016002820160009054906101000a900473ffffffffffffffffffffffffffffffffffffffff1673ffffffffffffffffffffffffffffffffffffffff1673ffffffffffffffffffffffffffffffffffffffff1681525050815260200160048201604051806060016040529081600082018054600181600116156101000203166002900480601f0160208091040260200160405190810160405280929190818152602001828054600181600116156101000203166002900480156136d25780601f106136a7576101008083540402835291602001916136d2565b820191906000526020600020905b8154815290600101906020018083116136b557829003601f168201915b50505050508152602001600182018054600181600116156101000203166002900480601f0160208091040260200160405190810160405280929190818152602001828054600181600116156101000203166002900480156137745780601f1061374957610100808354040283529160200191613774565b820191906000526020600020905b81548152906001019060200180831161375757829003601f168201915b505050505081526020016002820160009054906101000a900473ffffffffffffffffffffffffffffffffffffffff1673ffffffffffffffffffffffffffffffffffffffff1673ffffffffffffffffffffffffffffffffffffffff1681525050815260200160078201604051806080016040529081600082018054600181600116156101000203166002900480601f0160208091040260200160405190810160405280929190818152602001828054600181600116156101000203166002900480156138805780601f1061385557610100808354040283529160200191613880565b820191906000526020600020905b81548152906001019060200180831161386357829003601f168201915b50505050508152602001600182018054600181600116156101000203166002900480601f0160208091040260200160405190810160405280929190818152602001828054600181600116156101000203166002900480156139225780601f106138f757610100808354040283529160200191613922565b820191906000526020600020905b81548152906001019060200180831161390557829003601f168201915b5050505050815260200160028201548152602001600382018054600181600116156101000203166002900480601f0160208091040260200160405190810160405280929190818152602001828054600181600116156101000203166002900480156139ce5780601f106139a3576101008083540402835291602001916139ce565b820191906000526020600020905b8154815290600101906020018083116139b157829003601f168201915b5050505050815250508152602001600b8201548152602001600c8201548152602001600d820160009054906101000a900460ff1660ff1660ff168152602001600e8201548152602001600f82015481526020016010820160009054906101000a900460ff166002811115613a3e57fe5b6002811115613a4957fe5b81526020016011820154815260200160128201548152602001601382018054600181600116156101000203166002900480601f016020809104026020016040519081016040528092919081815260200182805460018160011615610100020316600290048015613afa5780601f10613acf57610100808354040283529160200191613afa565b820191906000526020600020905b815481529060010190602001808311613add57829003601f168201915b505050505081526020016014820160405180604001604052908160008201548152602001600182018054600181600116156101000203166002900480601f016020809104026020016040519081016040528092919081815260200182805460018160011615610100020316600290048015613bb65780601f10613b8b57610100808354040283529160200191613bb6565b820191906000526020600020905b815481529060010190602001808311613b9957829003601f168201915b5050505050815250508152505090508161ffff168161016001511015613bf557613bef6001826101600151613db990919063ffffffff16565b50613c54565b3373ffffffffffffffffffffffffffffffffffffffff166108fc3073ffffffffffffffffffffffffffffffffffffffff16319081150290604051600060405180830381858888f19350505050158015613c52573d6000803e3d6000fd5b505b505050565b613c616120af565b613cd3576040517f08c379a00000000000000000000000000000000000000000000000000000000081526004018080602001828103825260208152602001807f4f776e61626c653a2063616c6c6572206973206e6f7420746865206f776e657281525060200191505060405180910390fd5b613cdc81614b0d565b50565b6000603c808381613cec57fe5b0481613cf457fe5b069050919050565b613d0682826149fa565b613d5b576040517f08c379a0000000000000000000000000000000000000000000000000000000008152600401808060200182810382526021815260200180614f376021913960400191505060405180910390fd5b60008260000160008373ffffffffffffffffffffffffffffffffffffffff1673ffffffffffffffffffffffffffffffffffffffff16815260200190815260200160002060006101000a81548160ff0219169083151502179055505050565b600080828401905083811015613e37576040517f08c379a000000000000000000000000000000000000000000000000000000000815260040180806020018281038252601b8152602001807f536166654d6174683a206164646974696f6e206f766572666c6f77000000000081525060200191505060405180910390fd5b8091505092915050565b6000808210158015613e5557506007548211155b8015613e7f57506009600083815260200190815260200160002060009054906101000a900460ff16155b9050919050565b613e8e614de8565b6000809050600080613e9f85612398565b846000019061ffff16908161ffff1681525050613ec16107b261ffff16612e4b565b613ed2856000015161ffff16612e4b565b039150816301e285000283019250816107b285600001510361ffff16036301e1338002830192506000600191505b600c8260ff1611613f5657613f19828660000151612e83565b60ff1662015180029050858482011115613f445781856020019060ff16908160ff1681525050613f56565b80840193508180600101925050613f00565b600191505b613f6d85602001518660000151612e83565b60ff168260ff1611613fb257858462015180011115613f9d5781856040019060ff16908160ff1681525050613fb2565b62015180840193508180600101925050613f5b565b613fbb86611911565b856060019060ff16908160ff1681525050613fd586613cdf565b856080019060ff16908160ff1681525050613fef86611e89565b8560a0019060ff16908160ff168152505061400986611c51565b8560c0019060ff16908160ff168152505050505050919050565b600033905090565b614033614c51565b6003828154811061404057fe5b9060005260206000209060160201604051806101c00160405290816000820154815260200160018201604051806060016040529081600082018054600181600116156101000203166002900480601f01602080910402602001604051908101604052809291908181526020018280546001816001161561010002031660029004801561410d5780601f106140e25761010080835404028352916020019161410d565b820191906000526020600020905b8154815290600101906020018083116140f057829003601f168201915b50505050508152602001600182018054600181600116156101000203166002900480601f0160208091040260200160405190810160405280929190818152602001828054600181600116156101000203166002900480156141af5780601f10614184576101008083540402835291602001916141af565b820191906000526020600020905b81548152906001019060200180831161419257829003601f168201915b505050505081526020016002820160009054906101000a900473ffffffffffffffffffffffffffffffffffffffff1673ffffffffffffffffffffffffffffffffffffffff1673ffffffffffffffffffffffffffffffffffffffff1681525050815260200160048201604051806060016040529081600082018054600181600116156101000203166002900480601f0160208091040260200160405190810160405280929190818152602001828054600181600116156101000203166002900480156142bb5780601f10614290576101008083540402835291602001916142bb565b820191906000526020600020905b81548152906001019060200180831161429e57829003601f168201915b50505050508152602001600182018054600181600116156101000203166002900480601f01602080910402602001604051908101604052809291908181526020018280546001816001161561010002031660029004801561435d5780601f106143325761010080835404028352916020019161435d565b820191906000526020600020905b81548152906001019060200180831161434057829003601f168201915b505050505081526020016002820160009054906101000a900473ffffffffffffffffffffffffffffffffffffffff1673ffffffffffffffffffffffffffffffffffffffff1673ffffffffffffffffffffffffffffffffffffffff1681525050815260200160078201604051806080016040529081600082018054600181600116156101000203166002900480601f0160208091040260200160405190810160405280929190818152602001828054600181600116156101000203166002900480156144695780601f1061443e57610100808354040283529160200191614469565b820191906000526020600020905b81548152906001019060200180831161444c57829003601f168201915b50505050508152602001600182018054600181600116156101000203166002900480601f01602080910402602001604051908101604052809291908181526020018280546001816001161561010002031660029004801561450b5780601f106144e05761010080835404028352916020019161450b565b820191906000526020600020905b8154815290600101906020018083116144ee57829003601f168201915b5050505050815260200160028201548152602001600382018054600181600116156101000203166002900480601f0160208091040260200160405190810160405280929190818152602001828054600181600116156101000203166002900480156145b75780601f1061458c576101008083540402835291602001916145b7565b820191906000526020600020905b81548152906001019060200180831161459a57829003601f168201915b5050505050815250508152602001600b8201548152602001600c8201548152602001600d820160009054906101000a900460ff1660ff1660ff168152602001600e8201548152602001600f82015481526020016010820160009054906101000a900460ff16600281111561462757fe5b600281111561463257fe5b81526020016011820154815260200160128201548152602001601382018054600181600116156101000203166002900480601f0160208091040260200160405190810160405280929190818152602001828054600181600116156101000203166002900480156146e35780601f106146b8576101008083540402835291602001916146e3565b820191906000526020600020905b8154815290600101906020018083116146c657829003601f168201915b505050505081526020016014820160405180604001604052908160008201548152602001600182018054600181600116156101000203166002900480601f01602080910402602001604051908101604052809291908181526020018280546001816001161561010002031660029004801561479f5780601f106147745761010080835404028352916020019161479f565b820191906000526020600020905b81548152906001019060200180831161478257829003601f168201915b505050505081525050815250509050600281610120019060028111156147c157fe5b908160028111156147ce57fe5b815250503073ffffffffffffffffffffffffffffffffffffffff16632d7100708260400151604001516040518263ffffffff1660e01b8152600401808273ffffffffffffffffffffffffffffffffffffffff1673ffffffffffffffffffffffffffffffffffffffff168152602001915050600060405180830381600087803b15801561485957600080fd5b505af115801561486d573d6000803e3d6000fd5b505050506001600960008360000151815260200190815260200160002060006101000a81548160ff0219169083151502179055505050565b60008173ffffffffffffffffffffffffffffffffffffffff16600384815481106148cb57fe5b906000526020600020906016020160040160020160009054906101000a900473ffffffffffffffffffffffffffffffffffffffff1673ffffffffffffffffffffffffffffffffffffffff1614905092915050565b61492982826149fa565b1561499c576040517f08c379a000000000000000000000000000000000000000000000000000000000815260040180806020018281038252601f8152602001807f526f6c65733a206163636f756e7420616c72656164792068617320726f6c650081525060200191505060405180910390fd5b60018260000160008373ffffffffffffffffffffffffffffffffffffffff1673ffffffffffffffffffffffffffffffffffffffff16815260200190815260200160002060006101000a81548160ff0219169083151502179055505050565b60008073ffffffffffffffffffffffffffffffffffffffff168273ffffffffffffffffffffffffffffffffffffffff161415614a81576040517f08c379a0000000000000000000000000000000000000000000000000000000008152600401808060200182810382526022815260200180614f586022913960400191505060405180910390fd5b8260000160008373ffffffffffffffffffffffffffffffffffffffff1673ffffffffffffffffffffffffffffffffffffffff16815260200190815260200160002060009054906101000a900460ff16905092915050565b6000670de0b6b3a764000060038481548110614af057fe5b9060005260206000209060160201600b0154028214905092915050565b600073ffffffffffffffffffffffffffffffffffffffff168173ffffffffffffffffffffffffffffffffffffffff161415614b93576040517f08c379a0000000000000000000000000000000000000000000000000000000008152600401808060200182810382526026815260200180614f116026913960400191505060405180910390fd5b8073ffffffffffffffffffffffffffffffffffffffff166000809054906101000a900473ffffffffffffffffffffffffffffffffffffffff1673ffffffffffffffffffffffffffffffffffffffff167f8be0079c531659141344cd1fd0a4f28419497f9722a3daafe3b4186f6b6457e060405160405180910390a3806000806101000a81548173ffffffffffffffffffffffffffffffffffffffff021916908373ffffffffffffffffffffffffffffffffffffffff16021790555050565b604051806101c0016040528060008152602001614c6c614e3b565b8152602001614c79614e72565b8152602001614c86614ea9565b81526020016000815260200160008152602001600060ff168152602001600081526020016000815260200160006002811115614cbe57fe5b8152602001600081526020016000815260200160608152602001614ce0614ed1565b81525090565b828054600181600116156101000203166002900490600052602060002090601f016020900481019282601f10614d2757805160ff1916838001178555614d55565b82800160010185558215614d55579182015b82811115614d54578251825591602001919060010190614d39565b5b509050614d629190614eeb565b5090565b6040518060800160405280606081526020016060815260200160008152602001606081525090565b604051806101800160405280600c90602082028038833980820191505090505090565b60405180606001604052806060815260200160608152602001600073ffffffffffffffffffffffffffffffffffffffff1681525090565b6040518060e00160405280600061ffff168152602001600060ff168152602001600060ff168152602001600060ff168152602001600060ff168152602001600060ff168152602001600060ff1681525090565b60405180606001604052806060815260200160608152602001600073ffffffffffffffffffffffffffffffffffffffff1681525090565b60405180606001604052806060815260200160608152602001600073ffffffffffffffffffffffffffffffffffffffff1681525090565b6040518060800160405280606081526020016060815260200160008152602001606081525090565b604051806040016040528060008152602001606081525090565b614f0d91905b80821115614f09576000816000905550600101614ef1565b5090565b9056fe4f776e61626c653a206e6577206f776e657220697320746865207a65726f2061646472657373526f6c65733a206163636f756e7420646f6573206e6f74206861766520726f6c65526f6c65733a206163636f756e7420697320746865207a65726f2061646472657373a265627a7a7231582001192d3c5d5be51ba64ec184ce1ec2977316e0cfdf355198040b616695ec8e3f64736f6c634300050c0032",
  "source": "pragma solidity ^0.5.0;\nimport \"../node_modules/@openzeppelin/contracts/access/Roles.sol\";\nimport \"../node_modules/@openzeppelin/contracts/ownership/Ownable.sol\";\nimport \"../node_modules/@openzeppelin/contracts/token/ERC721/ERC721Full.sol\";\nimport \"./DateTime.sol\";\n///import \"../node_modules/@openzeppelin/contracts/token/ERC20/ERC20Detailed.sol\";\n\n/**\n* @title A house leasing contract\n*/\n\ncontract SmartHousing is Ownable,DateTime{\n    using Roles for Roles.Role;\n    //prevent overflow c = a + b becomes c = a.add(b)\n    using SafeMath for uint256;\n    Roles.Role private tenants;\n    address private landlord_address;\n    struct Landlord{\n        string name;\n        string hashed_pid;\n        address _address;\n    }\n    struct Tenant{\n        string name;\n        string hashed_pid;\n        address _address;\n    }\n    struct HouseInfo{\n        string physical_address;\n        string city;\n        uint256 zip_code;\n        //house_type indicate studio, two bedrooms, etc\n        string house_type;\n    }\n    struct Termination{\n        uint256 timestamp;\n        string reason;\n    }\n    // defines contract state\n    enum State {Pending, Started, Terminated}\n    // main lease contract\n    struct LeaseContract{\n        uint256 id;\n        Landlord landlord;\n        Tenant tenant;\n        HouseInfo house_info; //basic information about this leasing object\n\n        //Contract Metadata\n        uint256 rent; // rent per month\n        uint256 utility_bill; ///\n        uint8 rent_pay_day; // the day that needs to pay rent, for example 5 means you need to pay rent on 9/5 for September\n        uint256 total_term; //total number of term for this contract, unit for term is month\n        uint256 deposit; //deposit in unit of month, ex: two months deposit\n        State state;\n        uint256 start_timestamp; // when the contract actually starts\n        uint256 paid_rent_count; //array that records rent payments\n        string repair_obligation;///\n\n        //Termination\n        Termination termination; //provide terminate time and reason\n    }\n    //list of all contracts\n    LeaseContract[] contracts;\n    Landlord landlord;\n    // highest valid tokenID or contractID\n    uint256 internal maxID;\n    // number of contracts\n    uint256 private contractNumber;\n    //A mapping of terminated contracts, checks if a contract is valid\n    mapping(uint256 => bool) internal burned;\n    //A mapping of approved address for each contract\n    mapping(uint256 => address) internal allowance;\n\n    //Events\n    event ContractCreated(string physical_address, string city, uint256 zip_code, string house_type, uint256 id);\n    event NewLeaseRequest(string name, string email, uint256 phone_number, uint256 contract_id);\n    event ContractStarted(uint256 contract_id, address select_address);\n    // constructor() public{\n    //     landlord._address = msg.sender;\n    // }\n    constructor(string memory _landlord_name, string memory _landlord_hashed_pid) public{\n        landlord._address = msg.sender;\n        landlord.name = _landlord_name;\n        landlord.hashed_pid = _landlord_hashed_pid;\n    }\n    /**\n     * @dev check if one month payment is not less than require rent\n     */\n    function isValidAmount(uint256 _contractId, uint256 _payment) internal view returns(bool){\n        return _payment == contracts[_contractId].rent * 1 ether;\n    }\n    /**\n     * @dev check if a contract, its id should be valid and is not burned\n     */\n    function isValidContract(uint256 _contractId) internal view returns(bool){\n        //return _contractId != 0 && _contractId <= maxID && !burned[_contractId];\n        return _contractId >= 0 && _contractId <= maxID && !burned[_contractId];\n    }\n     /**\n     * @dev check if this signer is allowed to sign this contract\n     */\n    function isPermittedSigner(uint256 _contractId, address _signer) internal view returns(bool){\n        return contracts[_contractId].tenant._address == _signer;\n    }\n    /**\n     * @dev during the appointment with tenant, landlodrd creates a new contract and wait for tenant to sign\n     */\n    function addNewContract(address _tenant_address,\n                            string memory _physical_address,string memory _city, uint256 _zip_code, string memory _house_type,\n                            uint256 _rent, uint256 _utility_bill, uint256 _total_term, uint8 _rent_pay_day, uint256 _deposit,\n                            string memory _repair_obligation) public onlyOwner returns(uint256){\n        LeaseContract memory newcontract;\n        newcontract.landlord = landlord;\n        newcontract.house_info = HouseInfo({physical_address:_physical_address, city:_city, zip_code:_zip_code, house_type:_house_type });\n        newcontract.id = maxID;\n        allowance[newcontract.id] = _tenant_address; //only allow this address to sign the contract\n        maxID.add(1);\n        newcontract.rent = _rent;\n        newcontract.utility_bill = _utility_bill;\n        newcontract.total_term = _total_term;\n        newcontract.rent_pay_day = _rent_pay_day;\n        newcontract.deposit = _deposit;\n        newcontract.repair_obligation = _repair_obligation;\n        newcontract.state = State.Pending;\n        contracts.push(newcontract);\n        emit ContractCreated(_physical_address,_city,_zip_code,_house_type,newcontract.id);\n        return newcontract.id;\n    }\n    /**\n     * @dev sign the contract and the lease start\n     */\n    function signContract(string memory _name, string memory _hashed_pid, uint256 _contract_id) public{\n        require(isValidContract(_contract_id),'Invalid Contract ID');\n        require(isPermittedSigner(_contract_id, msg.sender),'Not Permitted To Sign');\n        require(contracts[_contract_id].state == State.Pending,'Not At Pending State');\n        Tenant memory new_tenant = Tenant(_name,_hashed_pid,msg.sender);\n        tenants.add(msg.sender);\n        contracts[_contract_id].tenant = new_tenant;\n        contracts[_contract_id].state = State.Started;\n    }\n     /**\n     * @dev remove a tenant and delete his allowance to a contract\n     */\n     function removeTenant(address _tenant)  public onlyOwner{\n         tenants.remove(_tenant);\n     }\n    /**\n     * @dev return house info, rent, and term for specific contract\n     */\n    function getContractHouseInfo(uint256 _contract_id) public view returns(string memory, string memory, uint256, string memory\n                                                                           ,uint256, uint256){\n        require(isValidContract(_contract_id),'Invalid Contract ID');\n        HouseInfo memory house_info = contracts[_contract_id].house_info;\n        return (house_info.physical_address, house_info.city, house_info.zip_code, house_info.house_type, contracts[_contract_id].rent,\n                contracts[_contract_id].total_term);\n    }\n    /**\n     * @dev obtain list of pending id for a pending contract\n     */\n     function getContractStatus(uint256 _contract_id) public view returns(State){\n         return contracts[_contract_id].state;\n     }\n      /**\n     * @dev obtain the tenant for that contract\n     */\n     function getContractTenant(uint256 _contract_id) public view returns(string memory, string memory, address){\n         return (contracts[_contract_id].tenant.name,contracts[_contract_id].tenant.hashed_pid,contracts[_contract_id].tenant._address);\n     }\n     /**\n     * @dev return current term of the given contract\n     */\n     function getCurrentTerm(uint256 _contract_id)public view returns(uint16){\n        uint8 current_month = getMonth(now);\n        uint16 current_year = getYear(now);\n        uint8 started_month = getMonth(contracts[_contract_id].start_timestamp);\n        uint16 started_year = getYear(contracts[_contract_id].start_timestamp);\n        return current_year * 12 + current_month - started_year * 12 + started_month;\n     }\n     /**\n     * @dev pay rent to the contract\n     */\n     function payRent(uint256 _contract_id) public payable{\n        require(tenants.has(msg.sender),\"Does Not Have Tenant Role\");\n        require(isValidContract(_contract_id),'Invalid Contract ID');\n        require(isValidAmount(_contract_id,msg.value),'Invalid Payment Amount');\n        uint16 current_term = this.getCurrentTerm(_contract_id);\n        LeaseContract memory target_contract = contracts[_contract_id];\n        if(target_contract.paid_rent_count < current_term){\n            target_contract.paid_rent_count.add(1);\n        }\n        else{\n            msg.sender.transfer(address(this).balance);\n        }\n     }\n     /**\n     * @dev terminate contract\n     */\n     function terminateContract(uint256 _contract_id) internal{\n        LeaseContract memory target_contract = contracts[_contract_id];\n        target_contract.state = State.Terminated;\n        this.removeTenant(target_contract.tenant._address);\n        burned[target_contract.id] = true;\n     }\n     /**\n     * @dev check the rent payment status and terminate if neccessary, return unpaid rent count\n     */\n     function updateContractStatus(uint256 _contract_id) public onlyOwner returns(uint256){\n        require(isValidContract(_contract_id),'Invalid Contract ID');\n        LeaseContract memory target_contract = contracts[_contract_id];\n        uint16 current_term = this.getCurrentTerm(_contract_id);\n        //if this tenant owe rent in an amount that exceed his deposit, the contract is terminated\n        if(current_term - target_contract.paid_rent_count > target_contract.deposit.add(2)){\n            terminateContract(_contract_id);\n        }\n        //lease end\n        else if(current_term > target_contract.total_term){\n            terminateContract(_contract_id);\n        }\n        else{\n            return(current_term-target_contract.paid_rent_count);\n        }\n     }\n\n\n}",
  "sourcePath": "/Users/liuyuantai/Desktop/Blockchain/smarthousing/contracts/SmartHousing.sol",
  "compiler": {
    "name": "solc",
    "version": "0.5.12+commit.7709ece9.Emscripten.clang"
  },
  "schemaVersion": "3.0.19",
  "updatedAt": "2019-12-11T07:55:09.681Z",
  "networkType": "ethereum",
  "devdoc": {
    "methods": {
      "addNewContract(address,string,string,uint256,string,uint256,uint256,uint256,uint8,uint256,string)": {
        "details": "during the appointment with tenant, landlodrd creates a new contract and wait for tenant to sign"
      },
      "getContractHouseInfo(uint256)": {
        "details": "return house info, rent, and term for specific contract"
      },
      "getContractStatus(uint256)": {
        "details": "obtain list of pending id for a pending contract"
      },
      "getContractTenant(uint256)": {
        "details": "obtain the tenant for that contract"
      },
      "getCurrentTerm(uint256)": {
        "details": "return current term of the given contract"
      },
      "isOwner()": {
        "details": "Returns true if the caller is the current owner."
      },
      "owner()": {
        "details": "Returns the address of the current owner."
      },
      "payRent(uint256)": {
        "details": "pay rent to the contract"
      },
      "removeTenant(address)": {
        "details": "remove a tenant and delete his allowance to a contract"
      },
      "renounceOwnership()": {
        "details": "Leaves the contract without owner. It will not be possible to call `onlyOwner` functions anymore. Can only be called by the current owner.     * NOTE: Renouncing ownership will leave the contract without an owner, thereby removing any functionality that is only available to the owner."
      },
      "signContract(string,string,uint256)": {
        "details": "sign the contract and the lease start"
      },
      "transferOwnership(address)": {
        "details": "Transfers ownership of the contract to a new account (`newOwner`). Can only be called by the current owner."
      },
      "updateContractStatus(uint256)": {
        "details": "check the rent payment status and terminate if neccessary, return unpaid rent count"
      }
    },
    "title": "A house leasing contract"
  },
  "userdoc": {
    "methods": {}
  }
}