{
  "contractName": "Users",
  "abi": [
    {
      "inputs": [],
      "payable": false,
      "stateMutability": "nonpayable",
      "type": "constructor"
    },
    {
      "anonymous": false,
      "inputs": [
        {
          "indexed": false,
          "internalType": "uint256",
          "name": "id",
          "type": "uint256"
        }
      ],
      "name": "newUserRegistered",
      "type": "event"
    },
    {
      "anonymous": false,
      "inputs": [
        {
          "indexed": false,
          "internalType": "uint256",
          "name": "id",
          "type": "uint256"
        }
      ],
      "name": "userUpdateEvent",
      "type": "event"
    },
    {
      "constant": true,
      "inputs": [
        {
          "internalType": "uint256",
          "name": "",
          "type": "uint256"
        }
      ],
      "name": "users",
      "outputs": [
        {
          "internalType": "string",
          "name": "name",
          "type": "string"
        },
        {
          "internalType": "bytes32",
          "name": "status",
          "type": "bytes32"
        },
        {
          "internalType": "address",
          "name": "walletAddress",
          "type": "address"
        },
        {
          "internalType": "uint256",
          "name": "createdAt",
          "type": "uint256"
        },
        {
          "internalType": "uint256",
          "name": "updatedAt",
          "type": "uint256"
        }
      ],
      "payable": false,
      "stateMutability": "view",
      "type": "function"
    },
    {
      "constant": true,
      "inputs": [
        {
          "internalType": "address",
          "name": "",
          "type": "address"
        }
      ],
      "name": "usersIds",
      "outputs": [
        {
          "internalType": "uint256",
          "name": "",
          "type": "uint256"
        }
      ],
      "payable": false,
      "stateMutability": "view",
      "type": "function"
    },
    {
      "constant": false,
      "inputs": [
        {
          "internalType": "string",
          "name": "_userName",
          "type": "string"
        },
        {
          "internalType": "bytes32",
          "name": "_status",
          "type": "bytes32"
        }
      ],
      "name": "registerUser",
      "outputs": [
        {
          "internalType": "uint256",
          "name": "",
          "type": "uint256"
        }
      ],
      "payable": false,
      "stateMutability": "nonpayable",
      "type": "function"
    },
    {
      "constant": false,
      "inputs": [
        {
          "internalType": "string",
          "name": "_newUserName",
          "type": "string"
        },
        {
          "internalType": "bytes32",
          "name": "_newStatus",
          "type": "bytes32"
        }
      ],
      "name": "updateUser",
      "outputs": [
        {
          "internalType": "uint256",
          "name": "",
          "type": "uint256"
        }
      ],
      "payable": false,
      "stateMutability": "nonpayable",
      "type": "function"
    },
    {
      "constant": true,
      "inputs": [
        {
          "internalType": "uint256",
          "name": "_id",
          "type": "uint256"
        }
      ],
      "name": "getUserById",
      "outputs": [
        {
          "internalType": "uint256",
          "name": "",
          "type": "uint256"
        },
        {
          "internalType": "string",
          "name": "",
          "type": "string"
        },
        {
          "internalType": "bytes32",
          "name": "",
          "type": "bytes32"
        },
        {
          "internalType": "address",
          "name": "",
          "type": "address"
        },
        {
          "internalType": "uint256",
          "name": "",
          "type": "uint256"
        },
        {
          "internalType": "uint256",
          "name": "",
          "type": "uint256"
        }
      ],
      "payable": false,
      "stateMutability": "view",
      "type": "function"
    },
    {
      "constant": true,
      "inputs": [],
      "name": "getOwnProfile",
      "outputs": [
        {
          "internalType": "uint256",
          "name": "",
          "type": "uint256"
        },
        {
          "internalType": "string",
          "name": "",
          "type": "string"
        },
        {
          "internalType": "bytes32",
          "name": "",
          "type": "bytes32"
        },
        {
          "internalType": "address",
          "name": "",
          "type": "address"
        },
        {
          "internalType": "uint256",
          "name": "",
          "type": "uint256"
        },
        {
          "internalType": "uint256",
          "name": "",
          "type": "uint256"
        }
      ],
      "payable": false,
      "stateMutability": "view",
      "type": "function"
    },
    {
      "constant": true,
      "inputs": [],
      "name": "isRegistered",
      "outputs": [
        {
          "internalType": "bool",
          "name": "",
          "type": "bool"
        }
      ],
      "payable": false,
      "stateMutability": "view",
      "type": "function"
    },
    {
      "constant": true,
      "inputs": [],
      "name": "totalUsers",
      "outputs": [
        {
          "internalType": "uint256",
          "name": "",
          "type": "uint256"
        }
      ],
      "payable": false,
      "stateMutability": "view",
      "type": "function"
    }
  ],
  "bytecode": "0x60806040523480156200001157600080fd5b506200003660006040518060200160405280600081525060006200018a60201b60201c565b50620000a5653333333333336040518060400160405280600981526020017f4c656f2042726f776e00000000000000000000000000000000000000000000008152507f417661696c61626c6500000000000000000000000000000000000000000000006200018a60201b60201c565b5062000114651111111111116040518060400160405280600881526020017f4a6f686e20446f650000000000000000000000000000000000000000000000008152507f56657279206861707079000000000000000000000000000000000000000000006200018a60201b60201c565b5062000183652222222222226040518060400160405280600a81526020017f4d61727920536d697468000000000000000000000000000000000000000000008152507f4e6f7420696e20746865206d6f6f6420746f64617900000000000000000000006200018a60201b60201c565b5062000504565b6000806000808673ffffffffffffffffffffffffffffffffffffffff1673ffffffffffffffffffffffffffffffffffffffff16815260200190815260200160002054905060008114620001dc57600080fd5b6001805490506000808773ffffffffffffffffffffffffffffffffffffffff1673ffffffffffffffffffffffffffffffffffffffff168152602001908152602001600020819055506000600180548091906001016200023c919062000361565b90506040518060a001604052808681526020018581526020018773ffffffffffffffffffffffffffffffffffffffff16815260200142815260200142815250600182815481106200028957fe5b90600052602060002090600502016000820151816000019080519060200190620002b592919062000396565b506020820151816001015560408201518160020160006101000a81548173ffffffffffffffffffffffffffffffffffffffff021916908373ffffffffffffffffffffffffffffffffffffffff16021790555060608201518160030155608082015181600401559050507f2456c02735fb44894660d2af194ca5261385d8ee03675e1d75b0da1300a764cd816040518082815260200191505060405180910390a180925050509392505050565b81548183558181111562000391576005028160050283600052602060002091820191016200039091906200041d565b5b505050565b828054600181600116156101000203166002900490600052602060002090601f016020900481019282601f10620003d957805160ff19168380011785556200040a565b828001600101855582156200040a579182015b8281111562000409578251825591602001919060010190620003ec565b5b50905062000419919062000490565b5090565b6200048d91905b80821115620004895760008082016000620004409190620004b8565b60018201600090556002820160006101000a81549073ffffffffffffffffffffffffffffffffffffffff0219169055600382016000905560048201600090555060050162000424565b5090565b90565b620004b591905b80821115620004b157600081600090555060010162000497565b5090565b90565b50805460018160011615610100020316600290046000825580601f10620004e0575062000501565b601f01602090049060005260206000209081019062000500919062000490565b5b50565b610e6680620005146000396000f3fe608060405234801561001057600080fd5b50600436106100885760003560e01c80638f3947151161005b5780638f3947151461036d578063b8e21a5b14610446578063bff1f9e11461049e578063fd1b5158146104bc57610088565b8063223668441461008d578063365b98b2146100af57806368ae55631461019e5780636ed6da9e14610277575b600080fd5b61009561058e565b604051808215151515815260200191505060405180910390f35b6100db600480360360208110156100c557600080fd5b81019080803590602001909291905050506105d6565b60405180806020018681526020018573ffffffffffffffffffffffffffffffffffffffff1673ffffffffffffffffffffffffffffffffffffffff168152602001848152602001838152602001828103825287818151815260200191508051906020019080838360005b8381101561015f578082015181840152602081019050610144565b50505050905090810190601f16801561018c5780820380516001836020036101000a031916815260200191505b50965050505050505060405180910390f35b610261600480360360408110156101b457600080fd5b81019080803590602001906401000000008111156101d157600080fd5b8201836020820111156101e357600080fd5b8035906020019184600183028401116401000000008311171561020557600080fd5b91908080601f016020809104026020016040519081016040528093929190818152602001838380828437600081840152601f19601f820116905080830192505050505050509192919290803590602001909291905050506106d1565b6040518082815260200191505060405180910390f35b6102a36004803603602081101561028d57600080fd5b81019080803590602001909291905050506106e6565b60405180878152602001806020018681526020018573ffffffffffffffffffffffffffffffffffffffff1673ffffffffffffffffffffffffffffffffffffffff168152602001848152602001838152602001828103825287818151815260200191508051906020019080838360005b8381101561032d578082015181840152602081019050610312565b50505050905090810190601f16801561035a5780820380516001836020036101000a031916815260200191505b5097505050505050505060405180910390f35b6104306004803603604081101561038357600080fd5b81019080803590602001906401000000008111156103a057600080fd5b8201836020820111156103b257600080fd5b803590602001918460018302840111640100000000831117156103d457600080fd5b91908080601f016020809104026020016040519081016040528093929190818152602001838380828437600081840152601f19601f82011690508083019250505050505050919291929080359060200190929190505050610886565b6040518082815260200191505060405180910390f35b6104886004803603602081101561045c57600080fd5b81019080803573ffffffffffffffffffffffffffffffffffffffff169060200190929190505050610968565b6040518082815260200191505060405180910390f35b6104a6610980565b6040518082815260200191505060405180910390f35b6104c461098f565b60405180878152602001806020018681526020018573ffffffffffffffffffffffffffffffffffffffff1673ffffffffffffffffffffffffffffffffffffffff168152602001848152602001838152602001828103825287818151815260200191508051906020019080838360005b8381101561054e578082015181840152602081019050610533565b50505050905090810190601f16801561057b5780820380516001836020036101000a031916815260200191505b5097505050505050505060405180910390f35b6000806000803373ffffffffffffffffffffffffffffffffffffffff1673ffffffffffffffffffffffffffffffffffffffff1681526020019081526020016000205411905090565b600181815481106105e357fe5b9060005260206000209060050201600091509050806000018054600181600116156101000203166002900480601f01602080910402602001604051908101604052809291908181526020018280546001816001161561010002031660029004801561068f5780601f106106645761010080835404028352916020019161068f565b820191906000526020600020905b81548152906001019060200180831161067257829003601f168201915b5050505050908060010154908060020160009054906101000a900473ffffffffffffffffffffffffffffffffffffffff16908060030154908060040154905085565b60006106de338484610a0b565b905092915050565b60006060600080600080600087118061070457506001805490508711155b61070d57600080fd5b610715610bdc565b6001888154811061072257fe5b90600052602060002090600502016040518060a0016040529081600082018054600181600116156101000203166002900480601f0160208091040260200160405190810160405280929190818152602001828054600181600116156101000203166002900480156107d45780601f106107a9576101008083540402835291602001916107d4565b820191906000526020600020905b8154815290600101906020018083116107b757829003601f168201915b50505050508152602001600182015481526020016002820160009054906101000a900473ffffffffffffffffffffffffffffffffffffffff1673ffffffffffffffffffffffffffffffffffffffff1673ffffffffffffffffffffffffffffffffffffffff16815260200160038201548152602001600482015481525050905087816000015182602001518360400151846060015185608001518494509650965096509650965096505091939550919395565b600061089061058e565b61089957600080fd5b60008060003373ffffffffffffffffffffffffffffffffffffffff1673ffffffffffffffffffffffffffffffffffffffff1681526020019081526020016000205490506000600182815481106108eb57fe5b9060005260206000209060050201905084816000019080519060200190610913929190610c24565b508381600101819055504281600401819055507f179dda4b314caed68129a8b8bbd77c7a4fb092c2d9fb3de452a4f8e4839dc876826040518082815260200191505060405180910390a1819250505092915050565b60006020528060005260406000206000915090505481565b60006001808054905003905090565b600060606000806000806109a161058e565b6109aa57600080fd5b60008060003373ffffffffffffffffffffffffffffffffffffffff1673ffffffffffffffffffffffffffffffffffffffff1681526020019081526020016000205490506109f6816106e6565b96509650965096509650965050909192939495565b6000806000808673ffffffffffffffffffffffffffffffffffffffff1673ffffffffffffffffffffffffffffffffffffffff16815260200190815260200160002054905060008114610a5c57600080fd5b6001805490506000808773ffffffffffffffffffffffffffffffffffffffff1673ffffffffffffffffffffffffffffffffffffffff16815260200190815260200160002081905550600060018054809190600101610aba9190610ca4565b90506040518060a001604052808681526020018581526020018773ffffffffffffffffffffffffffffffffffffffff1681526020014281526020014281525060018281548110610b0657fe5b90600052602060002090600502016000820151816000019080519060200190610b30929190610cd6565b506020820151816001015560408201518160020160006101000a81548173ffffffffffffffffffffffffffffffffffffffff021916908373ffffffffffffffffffffffffffffffffffffffff16021790555060608201518160030155608082015181600401559050507f2456c02735fb44894660d2af194ca5261385d8ee03675e1d75b0da1300a764cd816040518082815260200191505060405180910390a180925050509392505050565b6040518060a001604052806060815260200160008019168152602001600073ffffffffffffffffffffffffffffffffffffffff16815260200160008152602001600081525090565b828054600181600116156101000203166002900490600052602060002090601f016020900481019282601f10610c6557805160ff1916838001178555610c93565b82800160010185558215610c93579182015b82811115610c92578251825591602001919060010190610c77565b5b509050610ca09190610d56565b5090565b815481835581811115610cd157600502816005028360005260206000209182019101610cd09190610d7b565b5b505050565b828054600181600116156101000203166002900490600052602060002090601f016020900481019282601f10610d1757805160ff1916838001178555610d45565b82800160010185558215610d45579182015b82811115610d44578251825591602001919060010190610d29565b5b509050610d529190610d56565b5090565b610d7891905b80821115610d74576000816000905550600101610d5c565b5090565b90565b610de691905b80821115610de25760008082016000610d9a9190610de9565b60018201600090556002820160006101000a81549073ffffffffffffffffffffffffffffffffffffffff02191690556003820160009055600482016000905550600501610d81565b5090565b90565b50805460018160011615610100020316600290046000825580601f10610e0f5750610e2e565b601f016020900490600052602060002090810190610e2d9190610d56565b5b5056fea265627a7a72315820b6f2ba1196a283453991cc155c45e16bb1f15aa2a01250f8ad25635b4f6960ba64736f6c634300050c0032",
  "source": "pragma solidity ^0.5.0;\n\n\n\ncontract Users {\n    // data structure that stores a user\n    struct User {\n        string name;\n        bytes32 status;\n        address walletAddress;\n        uint createdAt;\n        uint updatedAt;\n    }\n\n    // it maps the user's wallet address with the user ID\n    mapping (address => uint) public usersIds;\n\n    // Array of User that holds the list of users and their details\n    User[] public users;\n\n    // event fired when an user is registered\n    event newUserRegistered(uint id);\n\n    // event fired when the user updates his status or name\n    event userUpdateEvent(uint id);\n\n\n\n    // Modifier: check if the caller of the smart contract is registered\n    modifier checkSenderIsRegistered {\n    \trequire(isRegistered());\n    \t_;\n    }\n\n\n\n    /**\n     * Constructor function\n     */\n    constructor() public\n    {\n        // NOTE: the first user MUST be emtpy: if you are trying to access to an element\n        // of the usersIds mapping that does not exist (like usersIds[0x12345]) you will\n        // receive 0, that's why in the first position (with index 0) must be initialized\n        addUser(address(0x0), \"\", \"\");\n\n        // Some dummy data\n        addUser(address(0x333333333333), \"Leo Brown\", \"Available\");\n        addUser(address(0x111111111111), \"John Doe\", \"Very happy\");\n        addUser(address(0x222222222222), \"Mary Smith\", \"Not in the mood today\");\n    }\n\n\n\n    /**\n     * Function to register a new user.\n     *\n     * @param _userName \t\tThe displaying name\n     * @param _status        The status of the user\n     */\n    function registerUser(string memory _userName, bytes32 _status) public\n    returns(uint)\n    {\n    \treturn addUser(msg.sender, _userName, _status);\n    }\n\n\n\n    /**\n     * Add a new user. This function must be private because an user\n     * cannot insert another user on behalf of someone else.\n     *\n     * @param _wAddr \t\tAddress wallet of the user\n     * @param _userName\t\tDisplaying name of the user\n     * @param _status    \tStatus of the user\n     */\n    function addUser(address _wAddr, string memory  _userName, bytes32 _status) private\n    returns(uint)\n    {\n        // checking if the user is already registered\n        uint userId = usersIds[_wAddr];\n        require (userId == 0);\n\n        // associating the user wallet address with the new ID\n        usersIds[_wAddr] = users.length;\n        uint newUserId = users.length++;\n\n        // storing the new user details\n        users[newUserId] = User({\n        \tname: _userName,\n        \tstatus: _status,\n        \twalletAddress: _wAddr,\n        \tcreatedAt: now,\n        \tupdatedAt: now\n        });\n\n        // emitting the event that a new user has been registered\n        emit newUserRegistered(newUserId);\n\n        return newUserId;\n    }\n\n\n\n    /**\n     * Update the user profile of the caller of this method.\n     * Note: the user can modify only his own profile.\n     *\n     * @param _newUserName\tThe new user's displaying name\n     * @param _newStatus \tThe new user's status\n     */\n    function updateUser(string memory _newUserName, bytes32 _newStatus) checkSenderIsRegistered public\n    returns(uint)\n    {\n    \t// An user can modify only his own profile.\n    \tuint userId = usersIds[msg.sender];\n\n    \tUser storage user = users[userId];\n\n    \tuser.name = _newUserName;\n    \tuser.status = _newStatus;\n    \tuser.updatedAt = now;\n\n    \temit userUpdateEvent(userId);\n\n    \treturn userId;\n    }\n\n\n\n    /**\n     * Get the user's profile information.\n     *\n     * @param _id \tThe ID of the user stored on the blockchain.\n     */\n    function getUserById(uint _id) public view\n    returns(\n    \tuint,\n    \tstring memory,\n    \tbytes32,\n    \taddress,\n    \tuint,\n    \tuint\n    ) {\n    \t// checking if the ID is valid\n    \trequire( (_id > 0) || (_id <= users.length) );\n\n    \tUser memory i = users[_id];\n\n    \treturn (\n    \t\t_id,\n    \t\ti.name,\n    \t\ti.status,\n    \t\ti.walletAddress,\n    \t\ti.createdAt,\n    \t\ti.updatedAt\n    \t);\n    }\n\n\n\n    /**\n     * Return the profile information of the caller.\n     */\n    function getOwnProfile() checkSenderIsRegistered public view\n    returns(\n    \tuint,\n    \tstring memory,\n    \tbytes32,\n    \taddress,\n    \tuint,\n    \tuint\n    ) {\n    \tuint id = usersIds[msg.sender];\n\n    \treturn getUserById(id);\n    }\n\n\n\n    /**\n     * Check if the user that is calling the smart contract is registered.\n     */\n    function isRegistered() public view returns (bool)\n    {\n    \treturn (usersIds[msg.sender] > 0);\n    }\n\n\n\n    /**\n     * Return the number of total registered users.\n     */\n    function totalUsers() public view returns (uint)\n    {\n        // NOTE: the total registered user is length-1 because the user with\n        // index 0 is empty check the contructor: addUser(address(0x0), \"\", \"\");\n        return users.length - 1;\n    }\n\n}",
  "sourcePath": "/Users/liuyuantai/Desktop/Blockchain/smarthousing/contracts/User.sol",
  "compiler": {
    "name": "solc",
    "version": "0.5.12+commit.7709ece9.Emscripten.clang"
  },
  "schemaVersion": "3.0.19",
  "updatedAt": "2019-11-30T04:39:57.507Z",
  "networkType": "ethereum",
  "devdoc": {
    "methods": {
      "getUserById(uint256)": {
        "params": {
          "_id": "The ID of the user stored on the blockchain."
        }
      },
      "registerUser(string,bytes32)": {
        "params": {
          "_status": "The status of the user",
          "_userName": "The displaying name"
        }
      },
      "updateUser(string,bytes32)": {
        "params": {
          "_newStatus": "The new user's status",
          "_newUserName": "The new user's displaying name"
        }
      }
    }
  },
  "userdoc": {
    "methods": {
      "constructor": "Constructor function",
      "getOwnProfile()": {
        "notice": "Return the profile information of the caller."
      },
      "getUserById(uint256)": {
        "notice": "Get the user's profile information."
      },
      "isRegistered()": {
        "notice": "Check if the user that is calling the smart contract is registered."
      },
      "registerUser(string,bytes32)": {
        "notice": "Function to register a new user."
      },
      "totalUsers()": {
        "notice": "Return the number of total registered users."
      },
      "updateUser(string,bytes32)": {
        "notice": "Update the user profile of the caller of this method. Note: the user can modify only his own profile."
      }
    }
  }
}